{
  "contractName": "Dummy",
  "abi": [
    {
      "anonymous": false,
      "inputs": [
        {
          "indexed": true,
          "name": "value",
          "type": "uint256"
        }
      ],
      "name": "Mined",
      "type": "event",
      "signature": "0x4229d50c63dbdc5551dd68e0a9879b01ac250cb31feaeba7588533462e6c7aaa"
    },
    {
      "constant": false,
      "inputs": [],
      "name": "mine",
      "outputs": [
        {
          "name": "",
          "type": "uint256"
        }
      ],
      "payable": false,
      "stateMutability": "nonpayable",
      "type": "function",
      "signature": "0x99f4b251"
    }
  ],
  "bytecode": "0x6080604052348015600f57600080fd5b5060cc8061001e6000396000f300608060405260043610603e5763ffffffff7c010000000000000000000000000000000000000000000000000000000060003504166399f4b25181146043575b600080fd5b348015604e57600080fd5b5060556067565b60408051918252519081900360200190f35b600080546001018082556040517f4229d50c63dbdc5551dd68e0a9879b01ac250cb31feaeba7588533462e6c7aaa908390a250600054905600a165627a7a72305820c80f2a4a2ff6e336c001e2ed158aa6b4d037083ab7ba5e5c0fa66347d703b4430029",
  "source": "pragma solidity ^0.4.22;\n\ncontract Dummy{\n    uint256 test;\n\n    event Mined(uint256 indexed value);\n\n    // this function is in order to produce blocks.\n    function mine() public returns(uint256){\n        test += 1;\n        emit Mined(test);\n        return test;\n    }\n}",
  "sourcePath": "/home/wildermind/rust-sgx/enigma-contract/contracts/Dummy.sol",
  "compiler": {
    "name": "solc",
    "version": "0.4.24+commit.e67f0147.Emscripten.clang"
  },
  "schemaVersion": "2.0.0",
  "updatedAt": "2018-07-17T13:09:34.349Z"
}