{
  "contractName": "Dummy",
  "abi": [
    {
      "anonymous": false,
      "inputs": [
        {
          "indexed": true,
          "name": "value",
          "type": "uint256"
        }
      ],
      "name": "Mined",
      "type": "event",
      "signature": "0x4229d50c63dbdc5551dd68e0a9879b01ac250cb31feaeba7588533462e6c7aaa"
    },
    {
      "anonymous": false,
      "inputs": [
        {
          "indexed": false,
          "name": "sender",
          "type": "address"
        }
      ],
      "name": "Hello",
      "type": "event",
      "signature": "0xd282f389399565f3671145f5916e51652b60eee8e5c759293a2f5771b8ddfd2e"
    },
    {
      "constant": false,
      "inputs": [],
      "name": "mine",
      "outputs": [
        {
          "name": "",
          "type": "uint256"
        }
      ],
      "payable": false,
      "stateMutability": "nonpayable",
      "type": "function",
      "signature": "0x99f4b251"
    }
  ],
  "bytecode": "0x6080604052348015600f57600080fd5b506101028061001f6000396000f300608060405260043610603e5763ffffffff7c010000000000000000000000000000000000000000000000000000000060003504166399f4b25181146043575b600080fd5b348015604e57600080fd5b5060556067565b60408051918252519081900360200190f35b6000805460010181556040805133815290517fd282f389399565f3671145f5916e51652b60eee8e5c759293a2f5771b8ddfd2e9181900360200190a16000805460405190917f4229d50c63dbdc5551dd68e0a9879b01ac250cb31feaeba7588533462e6c7aaa91a250600054905600a165627a7a723058202c15bbeeb9aa57b88a207f2a5b77148cf18e5d0f98acc4e1bea585d69e64b6cd0029",
  "source": "pragma solidity ^0.4.22;\n\ncontract Dummy{\n    uint256 test;\n\n    event Mined(uint256 indexed value);\n    event Hello(address sender);\n\n    // this function is in order to produce blocks.\n    function mine() public returns(uint256){\n        test += 1;\n        emit Hello(msg.sender);\n        emit Mined(test);\n        return test;\n    }\n}",
  "sourcePath": "/home/wildermind/rust-sgx/enigma-contract/contracts/Dummy.sol",
  "compiler": {
    "name": "solc",
    "version": "0.4.24+commit.e67f0147.Emscripten.clang"
  },
  "schemaVersion": "2.0.0",
  "updatedAt": "2018-07-18T09:40:04.836Z"
}