{
  "contractName": "Enigma",
  "abi": [
    {
      "constant": true,
      "inputs": [
        {
          "name": "",
          "type": "uint256"
        }
      ],
      "name": "workerAddresses",
      "outputs": [
        {
          "name": "",
          "type": "address"
        }
      ],
      "payable": false,
      "stateMutability": "view",
      "type": "function",
      "signature": "0x0a318da0"
    },
    {
      "constant": true,
      "inputs": [
        {
          "name": "",
          "type": "address"
        }
      ],
      "name": "workers",
      "outputs": [
        {
          "name": "signer",
          "type": "address"
        },
        {
          "name": "status",
          "type": "uint8"
        },
        {
          "name": "report",
          "type": "bytes"
        },
        {
          "name": "balance",
          "type": "uint256"
        }
      ],
      "payable": false,
      "stateMutability": "view",
      "type": "function",
      "signature": "0x4048a257"
    },
    {
      "constant": true,
      "inputs": [],
      "name": "epochSize",
      "outputs": [
        {
          "name": "",
          "type": "uint256"
        }
      ],
      "payable": false,
      "stateMutability": "view",
      "type": "function",
      "signature": "0x572d356e"
    },
    {
      "constant": true,
      "inputs": [
        {
          "name": "",
          "type": "uint256"
        }
      ],
      "name": "scAddresses",
      "outputs": [
        {
          "name": "",
          "type": "bytes32"
        }
      ],
      "payable": false,
      "stateMutability": "view",
      "type": "function",
      "signature": "0x5f0dd5bb"
    },
    {
      "constant": true,
      "inputs": [
        {
          "name": "",
          "type": "address"
        }
      ],
      "name": "userTaskDeployments",
      "outputs": [
        {
          "name": "",
          "type": "uint256"
        }
      ],
      "payable": false,
      "stateMutability": "view",
      "type": "function",
      "signature": "0x5f7a6ff3"
    },
    {
      "constant": true,
      "inputs": [],
      "name": "engToken",
      "outputs": [
        {
          "name": "",
          "type": "address"
        }
      ],
      "payable": false,
      "stateMutability": "view",
      "type": "function",
      "signature": "0x9489ad40"
    },
    {
      "constant": true,
      "inputs": [],
      "name": "workerGroupSize",
      "outputs": [
        {
          "name": "",
          "type": "uint256"
        }
      ],
      "payable": false,
      "stateMutability": "view",
      "type": "function",
      "signature": "0xa3edd784"
    },
    {
      "constant": true,
      "inputs": [
        {
          "name": "",
          "type": "bytes32"
        }
      ],
      "name": "tasks",
      "outputs": [
        {
          "name": "fee",
          "type": "uint256"
        },
        {
          "name": "proof",
          "type": "bytes"
        },
        {
          "name": "sender",
          "type": "address"
        },
        {
          "name": "status",
          "type": "uint8"
        }
      ],
      "payable": false,
      "stateMutability": "view",
      "type": "function",
      "signature": "0xe579f500"
    },
    {
      "constant": true,
      "inputs": [
        {
          "name": "",
          "type": "bytes32"
        }
      ],
      "name": "contracts",
      "outputs": [
        {
          "name": "owner",
          "type": "address"
        },
        {
          "name": "codeHash",
          "type": "bytes32"
        },
        {
          "name": "status",
          "type": "uint8"
        }
      ],
      "payable": false,
      "stateMutability": "view",
      "type": "function",
      "signature": "0xec56a373"
    },
    {
      "inputs": [
        {
          "name": "_tokenAddress",
          "type": "address"
        },
        {
          "name": "_principal",
          "type": "address"
        }
      ],
      "payable": false,
      "stateMutability": "nonpayable",
      "type": "constructor",
      "signature": "constructor"
    },
    {
      "anonymous": false,
      "inputs": [
        {
          "indexed": false,
          "name": "custodian",
          "type": "address"
        },
        {
          "indexed": false,
          "name": "signer",
          "type": "address"
        }
      ],
      "name": "Registered",
      "type": "event",
      "signature": "0x0a31ee9d46a828884b81003c8498156ea6aa15b9b54bdd0ef0b533d9eba57e55"
    },
    {
      "anonymous": false,
      "inputs": [
        {
          "indexed": false,
          "name": "sig",
          "type": "bytes"
        },
        {
          "indexed": false,
          "name": "hash",
          "type": "bytes32"
        },
        {
          "indexed": false,
          "name": "workerAddr",
          "type": "address"
        }
      ],
      "name": "ValidatedSig",
      "type": "event",
      "signature": "0xe36691ca52ee024e298e5c0ff07191b87f0ac571c01a7631db2d70d573d955cb"
    },
    {
      "anonymous": false,
      "inputs": [
        {
          "indexed": false,
          "name": "seed",
          "type": "uint256"
        },
        {
          "indexed": false,
          "name": "blockNumber",
          "type": "uint256"
        },
        {
          "indexed": false,
          "name": "workers",
          "type": "address[]"
        },
        {
          "indexed": false,
          "name": "balances",
          "type": "uint256[]"
        },
        {
          "indexed": false,
          "name": "nonce",
          "type": "uint256"
        }
      ],
      "name": "WorkersParameterized",
      "type": "event",
      "signature": "0xcdfdbdd264b9f454c9c98dc0d0b5c0a0f683c704db2233ff53b4d4f826c790cb"
    },
    {
      "anonymous": false,
      "inputs": [
        {
          "indexed": false,
          "name": "taskId",
          "type": "bytes32"
        },
        {
          "indexed": false,
          "name": "fee",
          "type": "uint256"
        },
        {
          "indexed": false,
          "name": "sender",
          "type": "address"
        }
      ],
      "name": "TaskRecordCreated",
      "type": "event",
      "signature": "0xf1c0c18d5573c419035509d5b8bf3f97ce7b92cca68bccbde847516f66d6fe05"
    },
    {
      "anonymous": false,
      "inputs": [
        {
          "indexed": false,
          "name": "taskIds",
          "type": "bytes32[]"
        },
        {
          "indexed": false,
          "name": "fees",
          "type": "uint256[]"
        },
        {
          "indexed": false,
          "name": "sender",
          "type": "address"
        }
      ],
      "name": "TaskRecordsCreated",
      "type": "event",
      "signature": "0xacd4eaf0bf2790219699c0a2d47f13405b81c59f5ff0bb951a71a29c94a6d774"
    },
    {
      "anonymous": false,
      "inputs": [
        {
          "indexed": false,
          "name": "taskId",
          "type": "bytes32"
        },
        {
          "indexed": false,
          "name": "inStateDeltaHash",
          "type": "bytes32"
        },
        {
          "indexed": false,
          "name": "outStateDeltaHash",
          "type": "bytes32"
        },
        {
          "indexed": false,
          "name": "ethCall",
          "type": "bytes"
        },
        {
          "indexed": false,
          "name": "sig",
          "type": "bytes"
        }
      ],
      "name": "ReceiptVerified",
      "type": "event",
      "signature": "0x665329bb9a4e1062edc215d9c5ab57fa54c4c88e3dfbcc68e0cd92fdd010fa6e"
    },
    {
      "anonymous": false,
      "inputs": [
        {
          "indexed": false,
          "name": "taskIds",
          "type": "bytes32[]"
        },
        {
          "indexed": false,
          "name": "inStateDeltaHashes",
          "type": "bytes32[]"
        },
        {
          "indexed": false,
          "name": "outStateDeltaHashes",
          "type": "bytes32[]"
        },
        {
          "indexed": false,
          "name": "ethCall",
          "type": "bytes"
        },
        {
          "indexed": false,
          "name": "sig",
          "type": "bytes"
        }
      ],
      "name": "ReceiptsVerified",
      "type": "event",
      "signature": "0x49f3b610d2b607252a8901e3c134022c7a6330e5f6525f0ed84dd4a127478958"
    },
    {
      "anonymous": false,
      "inputs": [
        {
          "indexed": false,
          "name": "from",
          "type": "address"
        },
        {
          "indexed": false,
          "name": "value",
          "type": "uint256"
        }
      ],
      "name": "DepositSuccessful",
      "type": "event",
      "signature": "0xb3ef81558ed1a50072a492984535a009da8b129c749500b387f1e5f4886bdde5"
    },
    {
      "anonymous": false,
      "inputs": [
        {
          "indexed": false,
          "name": "scAddr",
          "type": "bytes32"
        },
        {
          "indexed": false,
          "name": "codeHash",
          "type": "bytes32"
        }
      ],
      "name": "SecretContractDeployed",
      "type": "event",
      "signature": "0x9d707d3c048dd1c209a28ea6367edf3d939a45cb46f86be5a728577e3e52273e"
    },
    {
      "constant": false,
      "inputs": [
        {
          "name": "_signer",
          "type": "address"
        },
        {
          "name": "_report",
          "type": "bytes"
        }
      ],
      "name": "register",
      "outputs": [],
      "payable": false,
      "stateMutability": "nonpayable",
      "type": "function",
      "signature": "0x24b8fbf6"
    },
    {
      "constant": false,
      "inputs": [
        {
          "name": "_custodian",
          "type": "address"
        },
        {
          "name": "_amount",
          "type": "uint256"
        }
      ],
      "name": "deposit",
      "outputs": [],
      "payable": false,
      "stateMutability": "nonpayable",
      "type": "function",
      "signature": "0x47e7ef24"
    },
    {
      "constant": false,
      "inputs": [],
      "name": "login",
      "outputs": [],
      "payable": false,
      "stateMutability": "nonpayable",
      "type": "function",
      "signature": "0xb34e97e8"
    },
    {
      "constant": false,
      "inputs": [],
      "name": "logout",
      "outputs": [],
      "payable": false,
      "stateMutability": "nonpayable",
      "type": "function",
      "signature": "0x1f3c99c3"
    },
    {
      "constant": false,
      "inputs": [
        {
          "name": "_scAddr",
          "type": "bytes32"
        },
        {
          "name": "_codeHash",
          "type": "bytes32"
        },
        {
          "name": "_owner",
          "type": "address"
        },
        {
          "name": "_sig",
          "type": "bytes"
        }
      ],
      "name": "deploySecretContract",
      "outputs": [],
      "payable": false,
      "stateMutability": "nonpayable",
      "type": "function",
      "signature": "0xe5ba75c0"
    },
    {
      "constant": true,
      "inputs": [
        {
          "name": "_scAddr",
          "type": "bytes32"
        }
      ],
      "name": "isDeployed",
      "outputs": [
        {
          "name": "",
          "type": "bool"
        }
      ],
      "payable": false,
      "stateMutability": "view",
      "type": "function",
      "signature": "0x74c0ff4f"
    },
    {
      "constant": true,
      "inputs": [
        {
          "name": "_scAddr",
          "type": "bytes32"
        }
      ],
      "name": "getCodeHash",
      "outputs": [
        {
          "name": "",
          "type": "bytes32"
        }
      ],
      "payable": false,
      "stateMutability": "view",
      "type": "function",
      "signature": "0x27e86c84"
    },
    {
      "constant": true,
      "inputs": [],
      "name": "countSecretContracts",
      "outputs": [
        {
          "name": "",
          "type": "uint256"
        }
      ],
      "payable": false,
      "stateMutability": "view",
      "type": "function",
      "signature": "0x75bbf75b"
    },
    {
      "constant": true,
      "inputs": [
        {
          "name": "_start",
          "type": "uint256"
        },
        {
          "name": "_stop",
          "type": "uint256"
        }
      ],
      "name": "getSecretContractAddresses",
      "outputs": [
        {
          "name": "",
          "type": "bytes32[]"
        }
      ],
      "payable": false,
      "stateMutability": "view",
      "type": "function",
      "signature": "0x8e055b8b"
    },
    {
      "constant": true,
      "inputs": [
        {
          "name": "_scAddr",
          "type": "bytes32"
        }
      ],
      "name": "countStateDeltas",
      "outputs": [
        {
          "name": "",
          "type": "uint256"
        }
      ],
      "payable": false,
      "stateMutability": "view",
      "type": "function",
      "signature": "0xc41bfb03"
    },
    {
      "constant": true,
      "inputs": [
        {
          "name": "_scAddr",
          "type": "bytes32"
        },
        {
          "name": "_index",
          "type": "uint256"
        }
      ],
      "name": "getStateDeltaHash",
      "outputs": [
        {
          "name": "",
          "type": "bytes32"
        }
      ],
      "payable": false,
      "stateMutability": "view",
      "type": "function",
      "signature": "0x28aa1aaa"
    },
    {
      "constant": true,
      "inputs": [
        {
          "name": "_scAddr",
          "type": "bytes32"
        },
        {
          "name": "_start",
          "type": "uint256"
        },
        {
          "name": "_stop",
          "type": "uint256"
        }
      ],
      "name": "getStateDeltaHashes",
      "outputs": [
        {
          "name": "",
          "type": "bytes32[]"
        }
      ],
      "payable": false,
      "stateMutability": "view",
      "type": "function",
      "signature": "0xd1dfd95e"
    },
    {
      "constant": true,
      "inputs": [
        {
          "name": "_scAddr",
          "type": "bytes32"
        },
        {
          "name": "_stateDeltaHash",
          "type": "bytes32"
        }
      ],
      "name": "isValidDeltaHash",
      "outputs": [
        {
          "name": "",
          "type": "bool"
        }
      ],
      "payable": false,
      "stateMutability": "view",
      "type": "function",
      "signature": "0xccfae218"
    },
    {
      "constant": false,
      "inputs": [
        {
          "name": "_taskId",
          "type": "bytes32"
        },
        {
          "name": "_fee",
          "type": "uint256"
        }
      ],
      "name": "createTaskRecord",
      "outputs": [],
      "payable": false,
      "stateMutability": "nonpayable",
      "type": "function",
      "signature": "0x03316d16"
    },
    {
      "constant": false,
      "inputs": [
        {
          "name": "_taskIds",
          "type": "bytes32[]"
        },
        {
          "name": "_fees",
          "type": "uint256[]"
        }
      ],
      "name": "createTaskRecords",
      "outputs": [],
      "payable": false,
      "stateMutability": "nonpayable",
      "type": "function",
      "signature": "0x120db8ab"
    },
    {
      "constant": false,
      "inputs": [
        {
          "name": "_scAddr",
          "type": "bytes32"
        },
        {
          "name": "_taskId",
          "type": "bytes32"
        },
        {
          "name": "_inStateDeltaHash",
          "type": "bytes32"
        },
        {
          "name": "_outStateDeltaHash",
          "type": "bytes32"
        },
        {
          "name": "_ethCall",
          "type": "bytes"
        },
        {
          "name": "_sig",
          "type": "bytes"
        }
      ],
      "name": "commitReceipt",
      "outputs": [],
      "payable": false,
      "stateMutability": "nonpayable",
      "type": "function",
      "signature": "0x978fa217"
    },
    {
      "constant": false,
      "inputs": [
        {
          "name": "_scAddr",
          "type": "bytes32"
        },
        {
          "name": "_taskIds",
          "type": "bytes32[]"
        },
        {
          "name": "_inStateDeltaHashes",
          "type": "bytes32[]"
        },
        {
          "name": "_outStateDeltaHashes",
          "type": "bytes32[]"
        },
        {
          "name": "_ethCall",
          "type": "bytes"
        },
        {
          "name": "_sig",
          "type": "bytes"
        }
      ],
      "name": "commitReceipts",
      "outputs": [],
      "payable": false,
      "stateMutability": "nonpayable",
      "type": "function",
      "signature": "0x5f0d6ac0"
    },
    {
      "constant": false,
      "inputs": [
        {
          "name": "_seed",
          "type": "uint256"
        },
        {
          "name": "_sig",
          "type": "bytes"
        }
      ],
      "name": "setWorkersParams",
      "outputs": [],
      "payable": false,
      "stateMutability": "nonpayable",
      "type": "function",
      "signature": "0x2873e73c"
    },
    {
      "constant": true,
      "inputs": [
        {
          "name": "_blockNumber",
          "type": "uint256"
        }
      ],
      "name": "getWorkerParams",
      "outputs": [
        {
          "name": "",
          "type": "uint256"
        },
        {
          "name": "",
          "type": "uint256"
        },
        {
          "name": "",
          "type": "address[]"
        },
        {
          "name": "",
          "type": "uint256[]"
        }
      ],
      "payable": false,
      "stateMutability": "view",
      "type": "function",
      "signature": "0x9836ca31"
    },
    {
      "constant": true,
      "inputs": [
        {
          "name": "_blockNumber",
          "type": "uint256"
        },
        {
          "name": "_scAddr",
          "type": "bytes32"
        }
      ],
      "name": "getWorkerGroup",
      "outputs": [
        {
          "name": "",
          "type": "address[]"
        }
      ],
      "payable": false,
      "stateMutability": "view",
      "type": "function",
      "signature": "0x1d40ff0b"
    },
    {
      "constant": true,
      "inputs": [
        {
          "name": "_blockNumber",
          "type": "uint256"
        }
      ],
      "name": "getWorkersParams",
      "outputs": [
        {
          "name": "",
          "type": "uint256"
        },
        {
          "name": "",
          "type": "uint256"
        },
        {
          "name": "",
          "type": "address[]"
        },
        {
          "name": "",
          "type": "address[]"
        }
      ],
      "payable": false,
      "stateMutability": "view",
      "type": "function",
      "signature": "0x59c91a12"
    },
    {
      "constant": true,
      "inputs": [
        {
          "name": "_custodian",
          "type": "address"
        }
      ],
      "name": "getReport",
      "outputs": [
        {
          "name": "",
          "type": "address"
        },
        {
          "name": "",
          "type": "bytes"
        }
      ],
      "payable": false,
      "stateMutability": "view",
      "type": "function",
      "signature": "0xa3bdae3e"
    }
  ],
  "bytecode": "0x608060405260646001553480156200001657600080fd5b50604051604080620047dd833981018060405262000038919081019062000089565b60008054600160a060020a03938416600160a060020a0319918216179091556002805492909316911617905560016022556005602355620000e7565b6000620000828251620000d4565b9392505050565b600080604083850312156200009d57600080fd5b6000620000ab858562000074565b9250506020620000be8582860162000074565b9150509250929050565b600160a060020a031690565b6000620000e182620000c8565b92915050565b6146e680620000f76000396000f3fe60806040526004361061018a5763ffffffff7c010000000000000000000000000000000000000000000000000000000060003504166303316d16811461018f5780630a318da0146101b1578063120db8ab146101e75780631d40ff0b146102075780631f3c99c31461023457806324b8fbf61461024957806327e86c84146102695780632873e73c1461029657806328aa1aaa146102b65780634048a257146102d657806347e7ef2414610306578063572d356e1461032657806359c91a121461033b5780635f0d6ac01461036b5780635f0dd5bb1461038b5780635f7a6ff3146103ab57806374c0ff4f146103cb57806375bbf75b146103f85780638e055b8b1461040d5780639489ad401461043a578063978fa2171461045c5780639836ca311461047c578063a3bdae3e146104ac578063a3edd784146104da578063b34e97e8146104ef578063c41bfb0314610504578063ccfae21814610524578063d1dfd95e14610544578063e579f50014610564578063e5ba75c014610594578063ec56a373146105b4575b600080fd5b34801561019b57600080fd5b506101af6101aa36600461396e565b6105e3565b005b3480156101bd57600080fd5b506101d16101cc366004613851565b610834565b6040516101de91906140da565b60405180910390f35b3480156101f357600080fd5b506101af6102023660046137d4565b61085c565b34801561021357600080fd5b5061022761022236600461396e565b610ba3565b6040516101de91906141ef565b34801561024057600080fd5b506101af610dc6565b34801561025557600080fd5b506101af610264366004613752565b610f43565b34801561027557600080fd5b50610289610284366004613851565b611065565b6040516101de91906142bf565b3480156102a257600080fd5b506101af6102b1366004613ac9565b6110bf565b3480156102c257600080fd5b506102896102d136600461396e565b61164c565b3480156102e257600080fd5b506102f66102f1366004613734565b6116c0565b6040516101de949392919061418f565b34801561031257600080fd5b506101af6103213660046137a4565b611784565b34801561033257600080fd5b50610289611ab8565b34801561034757600080fd5b5061035b610356366004613851565b611abe565b6040516101de9493929190614487565b34801561037757600080fd5b506101af61038636600461386f565b611acb565b34801561039757600080fd5b506102896103a6366004613851565b611ca5565b3480156103b757600080fd5b506102896103c6366004613734565b611cc4565b3480156103d757600080fd5b506103eb6103e6366004613851565b611cd6565b6040516101de91906142b1565b34801561040457600080fd5b50610289611d10565b34801561041957600080fd5b5061042d61042836600461396e565b611d17565b6040516101de9190614200565b34801561044657600080fd5b5061044f611db7565b6040516101de919061433d565b34801561046857600080fd5b506101af610477366004613a06565b611dc6565b34801561048857600080fd5b5061049c610497366004613851565b612076565b6040516101de94939291906144d2565b3480156104b857600080fd5b506104cc6104c7366004613734565b6121ad565b6040516101de92919061416f565b3480156104e657600080fd5b506102896123ef565b3480156104fb57600080fd5b506101af6123f5565b34801561051057600080fd5b5061028961051f366004613851565b612570565b34801561053057600080fd5b506103eb61053f36600461396e565b6125ca565b34801561055057600080fd5b5061042d61055f366004613a5e565b612674565b34801561057057600080fd5b5061058461057f366004613851565b612774565b6040516101de949392919061444b565b3480156105a057600080fd5b506101af6105af36600461398d565b612835565b3480156105c057600080fd5b506105d46105cf366004613851565b612b31565b6040516101de93929190614147565b6000828152601f6020526040902060020154600160a060020a0316156106275760405160e560020a62461bcd02815260040161061e9061440b565b60405180910390fd5b6000546040517fdd62ed3e0000000000000000000000000000000000000000000000000000000081528291600160a060020a03169063dd62ed3e9061067290339030906004016140e8565b60206040518083038186803b15801561068a57600080fd5b505afa15801561069e573d6000803e3d6000fd5b505050506040513d601f19601f820116820180604052506106c29190810190613aab565b10156106e35760405160e560020a62461bcd02815260040161061e906143cb565b6000546040517f23b872dd000000000000000000000000000000000000000000000000000000008152600160a060020a03909116906323b872dd9061073090339030908690600401614103565b602060405180830381600087803b15801561074a57600080fd5b505af115801561075e573d6000803e3d6000fd5b505050506040513d601f19601f820116820180604052506107829190810190613833565b15156107a35760405160e560020a62461bcd02815260040161061e9061439b565b6000828152601f602052604090819020828155600201805473ffffffffffffffffffffffffffffffffffffffff19163390811774ff0000000000000000000000000000000000000000191660a060020a1790915590517ff1c0c18d5573c419035509d5b8bf3f97ce7b92cca68bccbde847516f66d6fe05916108289185918591614315565b60405180910390a15050565b601c80548290811061084257fe5b600091825260209091200154600160a060020a0316905081565b60005b8251811015610b6f576000600160a060020a0316601f6000858481518110151561088557fe5b6020908102909101810151825281019190915260400160002060020154600160a060020a0316146108cb5760405160e560020a62461bcd02815260040161061e9061440b565b81818151811015156108d957fe5b602090810290910101516000546040517fdd62ed3e000000000000000000000000000000000000000000000000000000008152600160a060020a039091169063dd62ed3e9061092e90339030906004016140e8565b60206040518083038186803b15801561094657600080fd5b505afa15801561095a573d6000803e3d6000fd5b505050506040513d601f19601f8201168201806040525061097e9190810190613aab565b101561099f5760405160e560020a62461bcd02815260040161061e906143cb565b6000548251600160a060020a03909116906323b872dd90339030908690869081106109c657fe5b906020019060200201516040518463ffffffff167c0100000000000000000000000000000000000000000000000000000000028152600401610a0a93929190614103565b602060405180830381600087803b158015610a2457600080fd5b505af1158015610a38573d6000803e3d6000fd5b505050506040513d601f19601f82011682018060405250610a5c9190810190613833565b1515610a7d5760405160e560020a62461bcd02815260040161061e9061439b565b8181815181101515610a8b57fe5b90602001906020020151601f60008584815181101515610aa757fe5b9060200190602002015181526020019081526020016000206000018190555033601f60008584815181101515610ad957fe5b90602001906020020151815260200190815260200160002060020160006101000a815481600160a060020a030219169083600160a060020a031602179055506001601f60008584815181101515610b2c57fe5b90602001906020020151815260200190815260200160002060020160146101000a81548160ff02191690836002811115610b6257fe5b021790555060010161085f565b507facd4eaf0bf2790219699c0a2d47f13405b81c59f5ff0bb951a71a29c94a6d7748282336040516108289392919061427d565b60606000610bb084612b5e565b9050610bba6134b5565b60038260058110610bc757fe5b6005020160a060405190810160405290816000820154815260200160018201805480602002602001604051908101604052809291908181526020018280548015610c3a57602002820191906000526020600020905b8154600160a060020a03168152600190910190602001808311610c1c575b5050505050815260200160028201805480602002602001604051908101604052809291908181526020018280548015610c9257602002820191906000526020600020905b815481526020019060010190808311610c7e575b505050505081526020016003820154815260200160048201548152505090506060602354604051908082528060200260200182016040528015610cdf578160200160208202803883390190505b5090506000805b602354811015610db8575b6000610cff89878a86612c0b565b90506000805b8551811015610d50578581815181101515610d1c57fe5b90602001906020020151600160a060020a031683600160a060020a03161415610d485760019150610d50565b600101610d05565b50801515610d7f57818584815181101515610d6757fe5b600160a060020a039092166020928302909101909101525b50508251600190920191600090849083908110610d9857fe5b60209081029091010151600160a060020a031614610cf157600101610ce6565b509093505050505b92915050565b33610dcf6134e5565b600160a060020a038281166000908152601e60209081526040918290208251608081019093528054938416835291929083019060a060020a900460ff166003811115610e1757fe5b6003811115610e2257fe5b8152602001600182018054600181600116156101000203166002900480601f016020809104026020016040519081016040528092919081815260200182805460018160011615610100020316600290048015610ebf5780601f10610e9457610100808354040283529160200191610ebf565b820191906000526020600020905b815481529060010190602001808311610ea257829003601f168201915b505050918352505060029182015460209091015290915081602001516003811115610ee657fe5b14610f065760405160e560020a62461bcd02815260040161061e906143ab565b336000908152601e6020526040902080546003919074ff0000000000000000000000000000000000000000191660a060020a835b02179055505050565b336000908152601e6020526040902054600160a060020a03161515610fb257601c80546001810182556000919091527f0e4562a10381dec21b205ed72637e6b1b523bdd0e4d4d50af5cd23dd4500a21101805473ffffffffffffffffffffffffffffffffffffffff1916331790555b336000908152601e602090815260408220805473ffffffffffffffffffffffffffffffffffffffff1916600160a060020a03861617815560028101929092558251611003926001019184019061350e565b50336000818152601e602052604090819020805474ff0000000000000000000000000000000000000000191660a060020a179055517f0a31ee9d46a828884b81003c8498156ea6aa15b9b54bdd0ef0b533d9eba57e55916108289185906140e8565b6000816001600082815260208052604090206003015460ff16600181111561108957fe5b146110a95760405160e560020a62461bcd02815260040161061e9061441b565b5050600090815260208052604090206001015490565b336110c86134e5565b600160a060020a038281166000908152601e60209081526040918290208251608081019093528054938416835291929083019060a060020a900460ff16600381111561111057fe5b600381111561111b57fe5b8152602001600182018054600181600116156101000203166002900480601f0160208091040260200160405190810160405280929190818152602001828054600181600116156101000203166002900480156111b85780601f1061118d576101008083540402835291602001916111b8565b820191906000526020600020905b81548152906001019060200180831161119b57829003601f168201915b50505091835250506002919091015460209091015290506000816020015160038111156111e157fe5b14156112025760405160e560020a62461bcd02815260040161061e9061434b565b600254336000908152601e6020526040902054600160a060020a039081169116146112425760405160e560020a62461bcd02815260040161061e906143fb565b6000805b60058110156112aa576003816005811061125c57fe5b6005020154151561126f578091506112aa565b6003826005811061127c57fe5b600502016000015460038260058110151561129357fe5b600502015410156112a2578091505b600101611246565b5043600382600581106112b957fe5b6005020160000181905550846003826005811015156112d457fe5b600360059182029290920182019290925533600090815260216020526040902054918390811061130057fe5b60050201600401556000805b601c548110156115a15761131e6134e5565b601e6000601c8481548110151561133157fe5b6000918252602080832090910154600160a060020a0390811684528382019490945260409283019091208251608081019093528054938416835291929083019060ff60a060020a90910416600381111561138757fe5b600381111561139257fe5b8152602001600182018054600181600116156101000203166002900480601f01602080910402602001604051908101604052809291908181526020018280546001816001161561010002031660029004801561142f5780601f106114045761010080835404028352916020019161142f565b820191906000526020600020905b81548152906001019060200180831161141257829003601f168201915b50505050508152602001600282015481525050905060225481606001511015801561146a57506002548151600160a060020a03908116911614155b8015611485575060028160200151600381111561148357fe5b145b15611598576003846005811061149757fe5b6005020160010180548091906001016114b0919061358c565b50601c8054839081106114bf57fe5b600091825260209091200154600160a060020a0316600385600581106114e157fe5b60050201600101848154811015156114f557fe5b6000918252602090912001805473ffffffffffffffffffffffffffffffffffffffff1916600160a060020a03929092169190911790556003846005811061153857fe5b600502016002018054809190600101611551919061358c565b5060608101516003856005811061156457fe5b600502016002018481548110151561157857fe5b60009182526020909120015561159583600163ffffffff612ea316565b92505b5060010161130c565b507fcdfdbdd264b9f454c9c98dc0d0b5c0a0f683c704db2233ff53b4d4f826c790cb8643600385600581106115d257fe5b600502016001016003866005811015156115e857fe5b600502016002016021600033600160a060020a0316600160a060020a0316815260200190815260200160002054604051611626959493929190614513565b60405180910390a150503360009081526021602052604090208054600101905550505050565b6000826001600082815260208052604090206003015460ff16600181111561167057fe5b146116905760405160e560020a62461bcd02815260040161061e9061441b565b600084815260208052604090206002018054849081106116ac57fe5b906000526020600020015491505092915050565b601e602090815260009182526040918290208054600180830180548651600261010094831615949094026000190190911692909204601f8101869004860283018601909652858252600160a060020a0383169560a060020a90930460ff1694919290918301828280156117745780601f1061174957610100808354040283529160200191611774565b820191906000526020600020905b81548152906001019060200180831161175757829003601f168201915b5050505050908060020154905084565b8161178d6134e5565b600160a060020a038281166000908152601e60209081526040918290208251608081019093528054938416835291929083019060a060020a900460ff1660038111156117d557fe5b60038111156117e057fe5b8152602001600182018054600181600116156101000203166002900480601f01602080910402602001604051908101604052809291908181526020018280546001816001161561010002031660029004801561187d5780601f106118525761010080835404028352916020019161187d565b820191906000526020600020905b81548152906001019060200180831161186057829003601f168201915b50505091835250506002919091015460209091015290506000816020015160038111156118a657fe5b14156118c75760405160e560020a62461bcd02815260040161061e9061434b565b6000546040517fdd62ed3e0000000000000000000000000000000000000000000000000000000081528491600160a060020a03169063dd62ed3e90611912908890309060040161412b565b60206040518083038186803b15801561192a57600080fd5b505afa15801561193e573d6000803e3d6000fd5b505050506040513d601f19601f820116820180604052506119629190810190613aab565b10156119835760405160e560020a62461bcd02815260040161061e9061435b565b6000546040517f23b872dd000000000000000000000000000000000000000000000000000000008152600160a060020a03909116906323b872dd906119d090879030908890600401614139565b602060405180830381600087803b1580156119ea57600080fd5b505af11580156119fe573d6000803e3d6000fd5b505050506040513d601f19601f82011682018060405250611a229190810190613833565b1515611a2d57600080fd5b600160a060020a0384166000908152601e6020526040902060020154611a59908463ffffffff612ea316565b600160a060020a0385166000908152601e60205260409081902060020191909155517fb3ef81558ed1a50072a492984535a009da8b129c749500b387f1e5f4886bdde590611aaa90869086906141d4565b60405180910390a150505050565b60015481565b6000806060809193509193565b33611ad46134e5565b600160a060020a038281166000908152601e60209081526040918290208251608081019093528054938416835291929083019060a060020a900460ff166003811115611b1c57fe5b6003811115611b2757fe5b8152602001600182018054600181600116156101000203166002900480601f016020809104026020016040519081016040528092919081815260200182805460018160011615610100020316600290048015611bc45780601f10611b9957610100808354040283529160200191611bc4565b820191906000526020600020905b815481529060010190602001808311611ba757829003601f168201915b505050918352505060029182015460209091015290915081602001516003811115611beb57fe5b14611c0b5760405160e560020a62461bcd02815260040161061e906143ab565b876001600082815260208052604090206003015460ff166001811115611c2d57fe5b14611c4d5760405160e560020a62461bcd02815260040161061e9061441b565b611c5b898989898989612ebc565b7f49f3b610d2b607252a8901e3c134022c7a6330e5f6525f0ed84dd4a1274789588888888888604051611c92959493929190614211565b60405180910390a1505050505050505050565b601d805482908110611cb357fe5b600091825260209091200154905081565b60216020526000908152604090205481565b60006001600083815260208052604090206003015460ff166001811115611cf957fe5b1415611d0757506001611d0b565b5060005b919050565b601d545b90565b6060811515611d2657601d5491505b6060611d38838563ffffffff6131c716565b604051908082528060200260200182016040528015611d61578160200160208202803883390190505b5090506000845b84811015611dad57601d805482908110611d7e57fe5b90600052602060002001548383815181101515611d9757fe5b6020908102909101015260019182019101611d68565b5090949350505050565b600054600160a060020a031681565b33611dcf6134e5565b600160a060020a038281166000908152601e60209081526040918290208251608081019093528054938416835291929083019060a060020a900460ff166003811115611e1757fe5b6003811115611e2257fe5b8152602001600182018054600181600116156101000203166002900480601f016020809104026020016040519081016040528092919081815260200182805460018160011615610100020316600290048015611ebf5780601f10611e9457610100808354040283529160200191611ebf565b820191906000526020600020905b815481529060010190602001808311611ea257829003601f168201915b505050918352505060029182015460209091015290915081602001516003811115611ee657fe5b14611f065760405160e560020a62461bcd02815260040161061e906143ab565b876001600082815260208052604090206003015460ff166001811115611f2857fe5b14611f485760405160e560020a62461bcd02815260040161061e9061441b565b60016000898152601f6020526040902060029081015460a060020a900460ff1690811115611f7257fe5b14611f925760405160e560020a62461bcd02815260040161061e9061437b565b611fa08989898989896131dc565b6000888152601f602090815260409091208551611fc59260019092019187019061350e565b506000888152601f602090815260408083206002808201805474ff00000000000000000000000000000000000000001916740200000000000000000000000000000000000000001790559054338552601e90935292209091015461202891612ea3565b336000908152601e60205260409081902060020191909155517f665329bb9a4e1062edc215d9c5ab57fa54c4c88e3dfbcc68e0cd92fdd010fa6e90611c92908a908a908a908a908a906142db565b600080606080600061208786612b5e565b90506120916134b5565b6003826005811061209e57fe5b6005020160a06040519081016040529081600082015481526020016001820180548060200260200160405190810160405280929190818152602001828054801561211157602002820191906000526020600020905b8154600160a060020a031681526001909101906020018083116120f3575b505050505081526020016002820180548060200260200160405190810160405280929190818152602001828054801561216957602002820191906000526020600020905b815481526020019060010190808311612155575b5050509183525050600382015460208083019190915260049092015460409182015282516060840151928401519390910151909a9199509197509095509350505050565b60006060826121ba6134e5565b600160a060020a038281166000908152601e60209081526040918290208251608081019093528054938416835291929083019060a060020a900460ff16600381111561220257fe5b600381111561220d57fe5b8152602001600182018054600181600116156101000203166002900480601f0160208091040260200160405190810160405280929190818152602001828054600181600116156101000203166002900480156122aa5780601f1061227f576101008083540402835291602001916122aa565b820191906000526020600020905b81548152906001019060200180831161228d57829003601f168201915b50505091835250506002919091015460209091015290506000816020015160038111156122d357fe5b14156122f45760405160e560020a62461bcd02815260040161061e9061434b565b600160a060020a038581166000908152601e60205260409020541615156123305760405160e560020a62461bcd02815260040161061e906143db565b600160a060020a038581166000908152601e60209081526040918290208054600191820180548551600261010095831615959095026000190190911693909304601f81018590048502840185019095528483529416939290918391908301828280156123dd5780601f106123b2576101008083540402835291602001916123dd565b820191906000526020600020905b8154815290600101906020018083116123c057829003601f168201915b50505050509050935093505050915091565b60235481565b336123fe6134e5565b600160a060020a038281166000908152601e60209081526040918290208251608081019093528054938416835291929083019060a060020a900460ff16600381111561244657fe5b600381111561245157fe5b8152602001600182018054600181600116156101000203166002900480601f0160208091040260200160405190810160405280929190818152602001828054600181600116156101000203166002900480156124ee5780601f106124c3576101008083540402835291602001916124ee565b820191906000526020600020905b8154815290600101906020018083116124d157829003601f168201915b505050918352505060029190910154602090910152905060008160200151600381111561251757fe5b14156125385760405160e560020a62461bcd02815260040161061e9061434b565b336000908152601e6020526040902080546002919074ff0000000000000000000000000000000000000000191660a060020a83610f3a565b6000816001600082815260208052604090206003015460ff16600181111561259457fe5b146125b45760405160e560020a62461bcd02815260040161061e9061441b565b5050600090815260208052604090206002015490565b6000826001600082815260208052604090206003015460ff1660018111156125ee57fe5b1461260e5760405160e560020a62461bcd02815260040161061e9061441b565b6000805b600086815260208052604090206002015481101561266b576000868152602080526040902060020180548691908390811061264957fe5b90600052602060002001541415612663576001915061266b565b600101612612565b50949350505050565b6060836001600082815260208052604090206003015460ff16600181111561269857fe5b146126b85760405160e560020a62461bcd02815260040161061e9061441b565b8215156126d357600085815260208052604090206002015492505b60606126e5848663ffffffff6131c716565b60405190808252806020026020018201604052801561270e578160200160208202803883390190505b5090506000855b85811015612768576000888152602080526040902060020180548290811061273957fe5b9060005260206000200154838381518110151561275257fe5b6020908102909101015260019182019101612715565b50909695505050505050565b601f60208181526000928352604092839020805460018083018054875160029382161561010002600019019091169290920495860185900485028201850190965284815290949193909283018282801561280f5780601f106127e45761010080835404028352916020019161280f565b820191906000526020600020905b8154815290600101906020018083116127f257829003601f168201915b50505060029093015491925050600160a060020a0381169060ff60a060020a9091041684565b3361283e6134e5565b600160a060020a038281166000908152601e60209081526040918290208251608081019093528054938416835291929083019060a060020a900460ff16600381111561288657fe5b600381111561289157fe5b8152602001600182018054600181600116156101000203166002900480601f01602080910402602001604051908101604052809291908181526020018280546001816001161561010002031660029004801561292e5780601f106129035761010080835404028352916020019161292e565b820191906000526020600020905b81548152906001019060200180831161291157829003601f168201915b505050918352505060029190910154602090910152905060008160200151600381111561295757fe5b14156129785760405160e560020a62461bcd02815260040161061e9061434b565b600160a060020a0384166000818152602160209081526040918290205482518083018a90526c010000000000000000000000009094028484015260548085019190915282518085039091018152607490930190915281519101208681146129de57600080fd5b600087815260208052604081206003015460ff1660018111156129fd57fe5b14612a1d5760405160e560020a62461bcd02815260040161061e9061436b565b60408051602080820189905282518083038201815291830190925280519101206000612a5886612a4c84613385565b9063ffffffff6133d616565b9050600160a060020a0380821690881614612a7257600080fd5b600089815260208080526040808320805473ffffffffffffffffffffffffffffffffffffffff1916600160a060020a038c16908117825560018083018e90556003909201805460ff191683179055601d80548084019091557f6d4407e7be21f808e6509aa9fa9143369579dd7d760fe20a2c09680fc146134f018e9055845260219092529182902080549091019055517f9d707d3c048dd1c209a28ea6367edf3d939a45cb46f86be5a728577e3e52273e90611c929085908b906142cd565b6020805260009081526040902080546001820154600390920154600160a060020a03909116919060ff1683565b6000600019815b6005811015612bd8578360038260058110612b7c57fe5b600502015411801590612bc757508160000b6000191480612bc757506003600083900b60058110612ba957fe5b6005020160000154600382600581101515612bc057fe5b6005020154115b15612bd0578091505b600101612b65565b50600019600082900b1415612c025760405160e560020a62461bcd02815260040161061e9061443b565b60000b92915050565b6000612c156134b5565b60038560058110612c2257fe5b6005020160a060405190810160405290816000820154815260200160018201805480602002602001604051908101604052809291908181526020018280548015612c9557602002820191906000526020600020905b8154600160a060020a03168152600190910190602001808311612c77575b5050505050815260200160028201805480602002602001604051908101604052809291908181526020018280548015612ced57602002820191906000526020600020905b815481526020019060010190808311612cd9575b50505091835250506003820154602082015260049091015460409091015290506000805b826020015151811015612d8257602083015180516000919083908110612d3357fe5b60209081029091010151600160a060020a031614612d7a57612d77836040015182815181101515612d6057fe5b60209081029091010151839063ffffffff612ea316565b91505b600101612d11565b5060608083015183516040805160208082018d905281830194909452938401919091526080830188905260a0830184905260c08084018890528151808503909101815260e09093019052815191012060008282811515612dde57fe5b06905060005b846020015151811015612e7457602085015180516000919083908110612e0657fe5b60209081029091010151600160a060020a031614612e6c576040850151805182908110612e2f57fe5b602090810290910101519091039060008213612e6c576020850151805182908110612e5657fe5b9060200190602002015195505050505050612e9b565b600101612de4565b50602084015180516000198101908110612e8a57fe5b906020019060200201519450505050505b949350505050565b600082820183811015612eb557600080fd5b9392505050565b6000868152602080526040902060020154801515612f1257846000815181101515612ee357fe5b6020908102909101015115612f0d5760405160e560020a62461bcd02815260040161061e906143bb565b612f81565b60008781526020805260409020600201612f3382600163ffffffff6131c716565b81548110612f3d57fe5b9060005260206000200154856000815181101515612f5757fe5b6020908102909101015114612f815760405160e560020a62461bcd02815260040161061e9061438b565b60005b8651811015613059576001601f60008984815181101515612fa157fe5b90602001906020020151815260200190815260200160002060020160149054906101000a900460ff166002811115612fd557fe5b14612ff55760405160e560020a62461bcd02815260040161061e9061437b565b600081111561305157846001820381518110151561300f57fe5b90602001906020020151868281518110151561302757fe5b60209081029091010151146130515760405160e560020a62461bcd02815260040161061e906143eb565b600101612f84565b5060005b86518110156131bd5760008881526020805260409020855160029091019086908390811061308757fe5b60209081029091018101518254600181810185556000948552929093209092019190915587516130bc9163ffffffff6131c716565b8114156131065782601f600089848151811015156130d657fe5b906020019060200201518152602001908152602001600020600101908051906020019061310492919061350e565b505b6002601f6000898481518110151561311a57fe5b90602001906020020151815260200190815260200160002060020160146101000a81548160ff0219169083600281111561315057fe5b02179055506131a2601f6000898481518110151561316a57fe5b60209081029091018101518252818101929092526040908101600090812054338252601e90935220600201549063ffffffff612ea316565b336000908152601e602052604090206002015560010161305d565b5050505050505050565b6000828211156131d657600080fd5b50900390565b600086815260208052604090206002015480151561321a5784156132155760405160e560020a62461bcd02815260040161061e906143bb565b613273565b6000878152602080526040902060020161323b82600163ffffffff6131c716565b8154811061324557fe5b9060005260206000200154851415156132735760405160e560020a62461bcd02815260040161061e9061438b565b60008781526020808052604080832060020180546001810182559084528284200187905580518083018a81529181018990526060810188905286518a938a938a938a939192608090910191908401908083835b602083106132e55780518252601f1990920191602091820191016132c6565b6001836020036101000a038019825116818451168082178552505050505050905001945050505050604051602081830303815290604052805190602001209050600061333a84836133d690919063ffffffff16565b336000908152601e6020526040902054909150600160a060020a0380831691161461337a5760405160e560020a62461bcd02815260040161061e9061442b565b505050505050505050565b604080517f19457468657265756d205369676e6564204d6573736167653a0a333200000000602080830191909152603c8083019490945282518083039094018452605c909101909152815191012090565b600080600080845160411415156133f35760009350505050610dc0565b50505060208201516040830151606084015160001a601b60ff8216101561341857601b015b8060ff16601b1415801561343057508060ff16601c14155b156134415760009350505050610dc0565b6040805160008152602080820180845289905260ff8416828401526060820186905260808201859052915160019260a0808401939192601f1981019281900390910190855afa158015613498573d6000803e3d6000fd5b505050602060405103519350505050610dc0565b50505092915050565b60a06040519081016040528060008152602001606081526020016060815260200160008152602001600081525090565b604080516080810190915260008082526020820190815260200160608152602001600081525090565b828054600181600116156101000203166002900490600052602060002090601f016020900481019282601f1061354f57805160ff191683800117855561357c565b8280016001018555821561357c579182015b8281111561357c578251825591602001919060010190613561565b506135889291506135b5565b5090565b8154818355818111156135b0576000838152602090206135b09181019083016135b5565b505050565b611d1491905b8082111561358857600081556001016135bb565b6000612eb582356145f3565b6000601f820183136135ec57600080fd5b81356135ff6135fa8261458a565b614563565b9150818183526020840193506020810190508385602084028201111561362457600080fd5b60005b83811015613650578161363a88826136d6565b8452506020928301929190910190600101613627565b5050505092915050565b6000601f8201831361366b57600080fd5b81356136796135fa8261458a565b9150818183526020840193506020810190508385602084028201111561369e57600080fd5b60005b8381101561365057816136b488826136d6565b84525060209283019291909101906001016136a1565b6000612eb582516145fe565b6000612eb58235611d14565b6000601f820183136136f357600080fd5b81356137016135fa826145ab565b9150808252602083016020830185838301111561371d57600080fd5b6134ac838284614666565b6000612eb58251611d14565b60006020828403121561374657600080fd5b6000612e9b84846135cf565b6000806040838503121561376557600080fd5b600061377185856135cf565b925050602083013567ffffffffffffffff81111561378e57600080fd5b61379a858286016136e2565b9150509250929050565b600080604083850312156137b757600080fd5b60006137c385856135cf565b925050602061379a858286016136d6565b600080604083850312156137e757600080fd5b823567ffffffffffffffff8111156137fe57600080fd5b61380a858286016135db565b925050602083013567ffffffffffffffff81111561382757600080fd5b61379a8582860161365a565b60006020828403121561384557600080fd5b6000612e9b84846136ca565b60006020828403121561386357600080fd5b6000612e9b84846136d6565b60008060008060008060c0878903121561388857600080fd5b600061389489896136d6565b965050602087013567ffffffffffffffff8111156138b157600080fd5b6138bd89828a016135db565b955050604087013567ffffffffffffffff8111156138da57600080fd5b6138e689828a016135db565b945050606087013567ffffffffffffffff81111561390357600080fd5b61390f89828a016135db565b935050608087013567ffffffffffffffff81111561392c57600080fd5b61393889828a016136e2565b92505060a087013567ffffffffffffffff81111561395557600080fd5b61396189828a016136e2565b9150509295509295509295565b6000806040838503121561398157600080fd5b60006137c385856136d6565b600080600080608085870312156139a357600080fd5b60006139af87876136d6565b94505060206139c0878288016136d6565b93505060406139d1878288016135cf565b925050606085013567ffffffffffffffff8111156139ee57600080fd5b6139fa878288016136e2565b91505092959194509250565b60008060008060008060c08789031215613a1f57600080fd5b6000613a2b89896136d6565b9650506020613a3c89828a016136d6565b9550506040613a4d89828a016136d6565b945050606061390f89828a016136d6565b600080600060608486031215613a7357600080fd5b6000613a7f86866136d6565b9350506020613a90868287016136d6565b9250506040613aa1868287016136d6565b9150509250925092565b600060208284031215613abd57600080fd5b6000612e9b8484613728565b60008060408385031215613adc57600080fd5b600061377185856136d6565b613af181614633565b82525050565b613af1816145f3565b6000613b0b826145e5565b808452602084019350613b1d836145d3565b60005b82811015613b4d57613b33868351613af7565b613b3c826145d3565b602096909601959150600101613b20565b5093949350505050565b6000613b62826145e9565b808452602084019350613b74836145d9565b60005b82811015613b4d57613b8a868354613af7565b613b93826145ed565b602096909601959150600101613b77565b6000613baf826145e5565b808452602084019350613bc1836145d3565b60005b82811015613b4d57613bd7868351613c94565b613be0826145d3565b602096909601959150600101613bc4565b6000613bfc826145e5565b808452602084019350613c0e836145d3565b60005b82811015613b4d57613c24868351613c94565b613c2d826145d3565b602096909601959150600101613c11565b6000613c49826145e9565b808452602084019350613c5b836145d9565b60005b82811015613b4d57613c71868354613c94565b613c7a826145ed565b602096909601959150600101613c5e565b613af1816145fe565b613af181611d14565b6000613ca8826145e5565b808452613cbc816020860160208601614672565b613cc5816146a2565b9093016020019392505050565b613af18161463a565b613af181614645565b613af181614650565b613af18161465b565b601481527f556e7265676973746572656420776f726b65722e000000000000000000000000602082015260400190565b602681527f4e6f7420656e6f75676820746f6b656e7320616c6c6f77656420666f7220747260208201527f616e736665720000000000000000000000000000000000000000000000000000604082015260600190565b602181527f53656372657420636f6e747261637420616c7265616479206465706c6f79656460208201527f2e00000000000000000000000000000000000000000000000000000000000000604082015260600190565b601381527f496e76616c6964207461736b2073746174757300000000000000000000000000602082015260400190565b601e81527f496e76616c696420696e7075742073746174652064656c746120686173680000602082015260400190565b601281527f5472616e73666572206e6f742076616c69640000000000000000000000000000602082015260400190565b601581527f576f726b6572206e6f74206c6f6767656420696e2e0000000000000000000000602082015260400190565b602e81527f496e76616c696420696e7075742073746174652064656c74612068617368206660208201527f6f7220656d707479207374617465000000000000000000000000000000000000604082015260600190565b601481527f416c6c6f77616e6365206e6f7420656e6f756768000000000000000000000000602082015260400190565b601581527f576f726b6572206e6f7420726567697374657265640000000000000000000000602082015260400190565b602381527f496e76616c69642073746174652064656c746120686173686573206f7264657260208201527f696e670000000000000000000000000000000000000000000000000000000000604082015260600190565b602681527f4f6e6c7920746865205072696e636970616c2063616e2075706461746520746860208201527f6520736565640000000000000000000000000000000000000000000000000000604082015260600190565b601381527f5461736b20616c72656164792065786973742e00000000000000000000000000602082015260400190565b601d81527f53656372657420636f6e7472616374206e6f74206465706c6f7965642e000000602082015260400190565b601281527f496e76616c6964207369676e61747572652e0000000000000000000000000000602082015260400190565b603681527f4e6f20776f726b65727320706172616d657465727320656e74727920666f722060208201527f73706563696669656420626c6f636b206e756d62657200000000000000000000604082015260600190565b60208101610dc08284613af7565b604081016140f68285613ae8565b612eb56020830184613af7565b606081016141118286613ae8565b61411e6020830185613af7565b612e9b6040830184613c94565b604081016140f68285613af7565b606081016141118286613af7565b606081016141558286613af7565b6141626020830185613c94565b612e9b6040830184613cdb565b6040810161417d8285613af7565b8181036020830152612e9b8184613c9d565b6080810161419d8287613af7565b6141aa6020830186613ced565b81810360408301526141bc8185613c9d565b90506141cb6060830184613c94565b95945050505050565b604081016141e28285613af7565b612eb56020830184613c94565b60208082528101612eb58184613b00565b60208082528101612eb58184613ba4565b60a080825281016142228188613ba4565b905081810360208301526142368187613ba4565b9050818103604083015261424a8186613ba4565b9050818103606083015261425e8185613c9d565b905081810360808301526142728184613c9d565b979650505050505050565b6060808252810161428e8186613ba4565b905081810360208301526142a28185613bf1565b9050612e9b6040830184613ae8565b60208101610dc08284613c8b565b60208101610dc08284613c94565b604081016141e28285613c94565b60a081016142e98288613c94565b6142f66020830187613c94565b6143036040830186613c94565b818103606083015261425e8185613c9d565b606081016143238286613c94565b6143306020830185613c94565b612e9b6040830184613ae8565b60208101610dc08284613cd2565b60208082528101610dc081613cf6565b60208082528101610dc081613d26565b60208082528101610dc081613d7c565b60208082528101610dc081613dd2565b60208082528101610dc081613e02565b60208082528101610dc081613e32565b60208082528101610dc081613e62565b60208082528101610dc081613e92565b60208082528101610dc081613ee8565b60208082528101610dc081613f18565b60208082528101610dc081613f48565b60208082528101610dc081613f9e565b60208082528101610dc081613ff4565b60208082528101610dc081614024565b60208082528101610dc081614054565b60208082528101610dc081614084565b608081016144598287613c94565b818103602083015261446b8186613c9d565b905061447a6040830185613af7565b6141cb6060830184613ce4565b608081016144958287613c94565b6144a26020830186613c94565b81810360408301526144b48185613b00565b905081810360608301526144c88184613b00565b9695505050505050565b608081016144e08287613c94565b6144ed6020830186613c94565b81810360408301526144ff8185613b00565b905081810360608301526144c88184613bf1565b60a081016145218288613c94565b61452e6020830187613c94565b81810360408301526145408186613b57565b905081810360608301526145548185613c3e565b90506144c86080830184613c94565b60405181810167ffffffffffffffff8111828210171561458257600080fd5b604052919050565b600067ffffffffffffffff8211156145a157600080fd5b5060209081020190565b600067ffffffffffffffff8211156145c257600080fd5b506020601f91909101601f19160190565b60200190565b60009081526020902090565b5190565b5490565b60010190565b6000610dc082614627565b151590565b60006002821061358857fe5b60006003821061358857fe5b60006004821061358857fe5b600160a060020a031690565b6000610dc0825b6000610dc0826145f3565b6000610dc082614603565b6000610dc08261460f565b6000610dc08261461b565b82818337506000910152565b60005b8381101561468d578181015183820152602001614675565b8381111561469c576000848401525b50505050565b601f01601f19169056fea265627a7a723058203e824e2a49af73eab2b997e8417f60e608f48da415f7ae689c732421dd98bab16c6578706572696d656e74616cf50037",
  "source": "pragma solidity ^0.5.0;\npragma experimental ABIEncoderV2;\n\nimport \"openzeppelin-solidity/contracts/math/SafeMath.sol\";\nimport \"openzeppelin-solidity/contracts/cryptography/ECDSA.sol\";\n\ncontract ERC20 {\n    function allowance(address owner, address spender) public view returns (uint256);\n\n    function transferFrom(address from, address to, uint256 value) public returns (bool);\n\n    function approve(address spender, uint256 value) public returns (bool);\n\n    function totalSupply() public view returns (uint256);\n\n    function balanceOf(address who) public view returns (uint256);\n\n    function transfer(address to, uint256 value) public returns (bool);\n\n    event Transfer(address indexed from, address indexed to, uint256 value);\n    event Approval(address indexed owner, address indexed spender, uint256 value);\n}\n\ncontract Enigma {\n    using SafeMath for uint256;\n    using ECDSA for bytes32;\n\n    // The interface of the deployed ENG ERC20 token contract\n    ERC20 public engToken;\n\n    uint public epochSize = 100;\n\n    struct TaskRecord {\n        uint fee;\n        bytes proof; // Signature of (taskId, inStateDeltaHash, outStateDeltaHash, ethCall)\n        address sender;\n        TaskStatus status;\n    }\n    enum TaskStatus {RecordUndefined, RecordCreated, ReceiptVerified}\n\n    /**\n    * The signer address of the principal node\n    * This must be set when deploying the contract and remains immutable\n    * Since the signer address is derived from the public key of an\n    * SGX enclave, this ensures that the principal node cannot be tempered\n    * with or replaced.\n    */\n    address principal;\n\n    // The data representation of a worker (or node)\n    struct Worker {\n        address signer;\n        WorkerStatus status; // Uninitialized: 0; Active: 1; Inactive: 2\n        bytes report; // Decided to store this as one  RLP encoded attribute for easier external storage in the future\n        uint256 balance;\n    }\n\n    enum WorkerStatus {Unregistered, Registered, LoggedIn, LoggedOut}\n\n    /**\n    * The data representation of the worker parameters used as input for\n    * the worker selection algorithm\n    */\n    struct WorkersParams {\n        uint firstBlockNumber;\n        address[] workers;\n        uint[] balances;\n        uint seed;\n        uint nonce;\n    }\n\n    struct SecretContract {\n        address owner;\n        bytes32 codeHash;\n        bytes32[] stateDeltaHashes;\n        SecretContractStatus status;\n        // TODO: consider keeping an index of taskIds\n    }\n    // TODO: do we want to have a contract lifecycle?\n    enum SecretContractStatus {Undefined, Deployed}\n\n    /**\n    * The last 5 worker parameters\n    * We keep a collection of worker parameters to account for latency issues.\n    * A computation task might be conceivably given out at a certain block number\n    * but executed at a later block in a different epoch. It follows that\n    * the contract must have access to the worker parameters effective when giving\n    * out the task, otherwise the selected worker would not match. We calculated\n    * that keeping the last 5 items should be more than enough to account for\n    * all latent tasks. Tasks results will be rejected past this limit.\n    */\n    WorkersParams[5] workersParams;\n\n    // An address-based index of all registered worker\n    address[] public workerAddresses;\n    // An address-based index of all secret contracts\n    bytes32[] public scAddresses;\n\n    // A registry of all registered workers with their attributes\n    mapping(address => Worker) public workers;\n    mapping(bytes32 => TaskRecord) public tasks;\n    mapping(bytes32 => SecretContract) public contracts;\n\n    // A mapping of number of secret contract deployments for each address\n    mapping(address => uint) public userTaskDeployments;\n\n    // TODO: do we keep tasks forever? if not, when do we delete them?\n    uint stakingThreshold;\n    uint public workerGroupSize;\n\n    // The events emitted by the contract\n    event Registered(address custodian, address signer);\n    event ValidatedSig(bytes sig, bytes32 hash, address workerAddr);\n    event WorkersParameterized(uint seed, uint256 blockNumber, address[] workers, uint[] balances, uint nonce);\n    event TaskRecordCreated(bytes32 taskId, uint fee, address sender);\n    event TaskRecordsCreated(bytes32[] taskIds, uint[] fees, address sender);\n    event ReceiptVerified(bytes32 taskId, bytes32 inStateDeltaHash, bytes32 outStateDeltaHash, bytes ethCall, bytes sig);\n    event ReceiptsVerified(bytes32[] taskIds, bytes32[] inStateDeltaHashes, bytes32[] outStateDeltaHashes, bytes ethCall, bytes sig);\n    event DepositSuccessful(address from, uint value);\n    event SecretContractDeployed(bytes32 scAddr, bytes32 codeHash);\n\n    constructor(address _tokenAddress, address _principal) public {\n        engToken = ERC20(_tokenAddress);\n        principal = _principal;\n        stakingThreshold = 1;\n        workerGroupSize = 5;\n    }\n\n    //TODO: break down these methods into services for upgradability\n\n    /**\n    * Checks if the custodian wallet is registered as a worker\n    *\n    * @param _user The custodian address of the worker\n    */\n    modifier workerRegistered(address _user) {\n        Worker memory worker = workers[_user];\n        require(worker.status != WorkerStatus.Unregistered, \"Unregistered worker.\");\n        _;\n    }\n\n    /**\n    * Checks if the custodian wallet is logged in as a worker\n    *\n    * @param _user The custodian address of the worker\n    */\n    modifier workerLoggedIn(address _user) {\n        Worker memory worker = workers[_user];\n        require(worker.status == WorkerStatus.LoggedIn, \"Worker not logged in.\");\n        _;\n    }\n\n    modifier contractDeployed(bytes32 _scAddr) {\n        require(contracts[_scAddr].status == SecretContractStatus.Deployed, \"Secret contract not deployed.\");\n        _;\n    }\n\n    /**\n    * Registers a new worker of change the signer parameters of an existing\n    * worker. This should be called by every worker (and the principal)\n    * node in order to receive tasks.\n    *\n    * @param _signer The signer address, derived from the enclave public key\n    * @param _report The RLP encoded report returned by the IAS\n    */\n    function register(address _signer, bytes memory _report)\n    public\n    {\n        // TODO: consider exit if both signer and custodian as matching\n        // If the custodian is not already register, we add an index entry\n        if (workers[msg.sender].signer == address(0)) {\n            workerAddresses.push(msg.sender);\n        }\n\n        // Set the custodian attributes\n        workers[msg.sender].signer = _signer;\n        workers[msg.sender].balance = 0;\n        workers[msg.sender].report = _report;\n        workers[msg.sender].status = WorkerStatus.Registered;\n\n        emit Registered(msg.sender, _signer);\n    }\n\n    function deposit(address _custodian, uint _amount)\n    public\n    workerRegistered(_custodian)\n    {\n        require(engToken.allowance(_custodian, address(this)) >= _amount, \"Not enough tokens allowed for transfer\");\n        require(engToken.transferFrom(_custodian, address(this), _amount));\n\n        workers[_custodian].balance = workers[_custodian].balance.add(_amount);\n\n        emit DepositSuccessful(_custodian, _amount);\n    }\n\n    function login() public workerRegistered(msg.sender) {\n        workers[msg.sender].status = WorkerStatus.LoggedIn;\n    }\n\n    function logout() public workerLoggedIn(msg.sender) {\n        workers[msg.sender].status = WorkerStatus.LoggedOut;\n    }\n\n    // TODO: should the scAddr be computed on-chain from the codeHash + some randomness\n    // TODO: should any user deploy a secret contract or only a trusted enclave?\n    function deploySecretContract(bytes32 _scAddr, bytes32 _codeHash, address _owner, bytes memory _sig)\n    public\n    workerRegistered(msg.sender)\n    {\n        bytes32 scAddr = keccak256(abi.encodePacked(_codeHash, _owner, userTaskDeployments[_owner]));\n        require(scAddr == _scAddr);\n        require(contracts[_scAddr].status == SecretContractStatus.Undefined, \"Secret contract already deployed.\");\n        bytes32 msgHash = keccak256(abi.encodePacked(_codeHash));\n        address verifyAddr = msgHash.toEthSignedMessageHash().recover(_sig);\n        require(verifyAddr == _owner);\n\n        //TODO: is this too naive?\n        contracts[_scAddr].owner = _owner;\n        contracts[_scAddr].codeHash = _codeHash;\n        contracts[_scAddr].status = SecretContractStatus.Deployed;\n        scAddresses.push(_scAddr);\n        userTaskDeployments[_owner]++;\n        emit SecretContractDeployed(scAddr, _codeHash);\n    }\n\n    function isDeployed(bytes32 _scAddr)\n    public\n    view\n    returns (bool)\n    {\n        if (contracts[_scAddr].status == SecretContractStatus.Deployed) {\n            return true;\n        } else {\n            return false;\n        }\n    }\n\n    function getCodeHash(bytes32 _scAddr)\n    public\n    view\n    contractDeployed(_scAddr)\n    returns (bytes32)\n    {\n        return contracts[_scAddr].codeHash;\n    }\n\n    function countSecretContracts()\n    public\n    view\n    returns (uint)\n    {\n        return scAddresses.length;\n    }\n\n    /**\n    * Selects address from _start up to, but not including, the _stop number\n    **/\n    function getSecretContractAddresses(uint _start, uint _stop)\n    public\n    view\n    returns (bytes32[] memory)\n    {\n        if (_stop == 0) {\n            _stop = scAddresses.length;\n        }\n        bytes32[] memory addresses = new bytes32[](_stop.sub(_start));\n        uint pos = 0;\n        for (uint i = _start; i < _stop; i++) {\n            addresses[pos] = scAddresses[i];\n            pos++;\n        }\n        return addresses;\n    }\n\n    function countStateDeltas(bytes32 _scAddr)\n    public\n    view\n    contractDeployed(_scAddr)\n    returns (uint)\n    {\n        return contracts[_scAddr].stateDeltaHashes.length;\n    }\n\n    function getStateDeltaHash(bytes32 _scAddr, uint _index)\n    public\n    view\n    contractDeployed(_scAddr)\n    returns (bytes32)\n    {\n        return contracts[_scAddr].stateDeltaHashes[_index];\n    }\n\n    /**\n    * Selects state deltas from _start up to, but not including, the _stop number\n    **/\n    function getStateDeltaHashes(bytes32 _scAddr, uint _start, uint _stop)\n    public\n    view\n    contractDeployed(_scAddr)\n    returns (bytes32[] memory)\n    {\n        if (_stop == 0) {\n            _stop = contracts[_scAddr].stateDeltaHashes.length;\n        }\n        bytes32[] memory deltas = new bytes32[](_stop.sub(_start));\n        uint pos = 0;\n        for (uint i = _start; i < _stop; i++) {\n            deltas[pos] = contracts[_scAddr].stateDeltaHashes[i];\n            pos++;\n        }\n        return deltas;\n    }\n\n    function isValidDeltaHash(bytes32 _scAddr, bytes32 _stateDeltaHash)\n    public\n    view\n    contractDeployed(_scAddr)\n    returns (bool)\n    {\n        bool valid = false;\n        for (uint i = 0; i < contracts[_scAddr].stateDeltaHashes.length; i++) {\n            if (contracts[_scAddr].stateDeltaHashes[i] == _stateDeltaHash) {\n                valid = true;\n                break;\n            }\n        }\n        return valid;\n    }\n\n    /**\n    * Store task record\n    *\n    */\n    function createTaskRecord(\n        bytes32 _taskId,\n        uint _fee\n    )\n    public\n    {\n        require(tasks[_taskId].sender == address(0), \"Task already exist.\");\n        require(engToken.allowance(msg.sender, address(this)) >= _fee, \"Allowance not enough\");\n        require(engToken.transferFrom(msg.sender, address(this), _fee), \"Transfer not valid\");\n\n        tasks[_taskId].fee = _fee;\n        tasks[_taskId].sender = msg.sender;\n        tasks[_taskId].status = TaskStatus.RecordCreated;\n\n        emit TaskRecordCreated(_taskId, _fee, msg.sender);\n    }\n\n    function createTaskRecords(\n        bytes32[] memory _taskIds,\n        uint[] memory _fees\n    )\n    public\n    {\n        for (uint i = 0; i < _taskIds.length; i++) {\n            require(tasks[_taskIds[i]].sender == address(0), \"Task already exist.\");\n            require(engToken.allowance(msg.sender, address(this)) >= _fees[i], \"Allowance not enough\");\n            require(engToken.transferFrom(msg.sender, address(this), _fees[i]), \"Transfer not valid\");\n\n            tasks[_taskIds[i]].fee = _fees[i];\n            tasks[_taskIds[i]].sender = msg.sender;\n            tasks[_taskIds[i]].status = TaskStatus.RecordCreated;\n        }\n        emit TaskRecordsCreated(_taskIds, _fees, msg.sender);\n    }\n\n    // Execute the encoded function in the specified contract\n    function executeCall(address _to, uint256 _value, bytes memory _data)\n    internal\n    returns (bool success)\n    {\n        assembly {\n            success := call(gas, _to, _value, add(_data, 0x20), mload(_data), 0, 0)\n        }\n    }\n\n    function verifyReceipt(\n        bytes32 _scAddr,\n        bytes32 _taskId,\n        bytes32 _inStateDeltaHash,\n        bytes32 _outStateDeltaHash,\n        bytes memory _ethCall,\n        bytes memory _sig\n    )\n    internal\n    {\n        uint index = contracts[_scAddr].stateDeltaHashes.length;\n        if (index == 0) {\n            require(_inStateDeltaHash == 0x0, 'Invalid input state delta hash for empty state');\n        } else {\n            require(_inStateDeltaHash == contracts[_scAddr].stateDeltaHashes[index.sub(1)], 'Invalid input state delta hash');\n        }\n        contracts[_scAddr].stateDeltaHashes.push(_outStateDeltaHash);\n\n        // TODO: execute the Ethereum calls\n\n        // Build a hash to validate that the I/Os are matching\n        bytes32 hash = keccak256(abi.encodePacked(_taskId, _inStateDeltaHash, _outStateDeltaHash, _ethCall));\n\n        // The worker address is not a real Ethereum wallet address but\n        // one generated from its signing key\n        address workerAddr = hash.recover(_sig);\n        require(workerAddr == workers[msg.sender].signer, \"Invalid signature.\");\n    }\n\n    /**\n    * Commit the computation task results on chain\n    */\n    function commitReceipt(\n        bytes32 _scAddr,\n        bytes32 _taskId,\n        bytes32 _inStateDeltaHash,\n        bytes32 _outStateDeltaHash,\n        bytes memory _ethCall,\n        bytes memory _sig\n    )\n    public\n    workerLoggedIn(msg.sender)\n    contractDeployed(_scAddr)\n    {\n        require(tasks[_taskId].status == TaskStatus.RecordCreated, 'Invalid task status');\n        verifyReceipt(_scAddr, _taskId, _inStateDeltaHash, _outStateDeltaHash, _ethCall, _sig);\n\n        tasks[_taskId].proof = _sig;\n        tasks[_taskId].status = TaskStatus.ReceiptVerified;\n        workers[msg.sender].balance = workers[msg.sender].balance.add(tasks[_taskId].fee);\n        emit ReceiptVerified(_taskId, _inStateDeltaHash, _outStateDeltaHash, _ethCall, _sig);\n    }\n\n    function verifyReceipts(\n        bytes32 _scAddr,\n        bytes32[] memory _taskIds,\n        bytes32[] memory _inStateDeltaHashes,\n        bytes32[] memory _outStateDeltaHashes,\n        bytes memory _ethCall,\n        bytes memory _sig\n    )\n    internal\n    {\n        // First, we verify the state delta hashes ordering\n        uint index = contracts[_scAddr].stateDeltaHashes.length;\n        if (index == 0) {\n            require(_inStateDeltaHashes[0] == 0x0, 'Invalid input state delta hash for empty state');\n        } else {\n            require(_inStateDeltaHashes[0] == contracts[_scAddr].stateDeltaHashes[index.sub(1)], 'Invalid input state delta hash');\n        }\n        for (uint i = 0; i < _taskIds.length; i++) {\n            require(tasks[_taskIds[i]].status == TaskStatus.RecordCreated, 'Invalid task status');\n            if (i > 0) {\n                require(_inStateDeltaHashes[i] == _outStateDeltaHashes[i - 1], 'Invalid state delta hashes ordering');\n            }\n        }\n        // TODO: verify signature\n        // Then, we store the outStateDeltaHashes\n        for (uint ic = 0; ic < _taskIds.length; ic++) {\n            contracts[_scAddr].stateDeltaHashes.push(_outStateDeltaHashes[ic]);\n            if (ic == _taskIds.length.sub(1)) {\n                tasks[_taskIds[ic]].proof = _sig;\n            }\n            tasks[_taskIds[ic]].status = TaskStatus.ReceiptVerified;\n            workers[msg.sender].balance = workers[msg.sender].balance.add(tasks[_taskIds[ic]].fee);\n        }\n        // TODO: execute the Ethereum calls\n    }\n\n    function commitReceipts(\n        bytes32 _scAddr,\n        bytes32[] memory _taskIds,\n        bytes32[] memory _inStateDeltaHashes,\n        bytes32[] memory _outStateDeltaHashes,\n        bytes memory _ethCall,\n        bytes memory _sig\n    )\n    public\n    workerLoggedIn(msg.sender)\n    contractDeployed(_scAddr)\n    {\n        verifyReceipts(_scAddr, _taskIds, _inStateDeltaHashes, _outStateDeltaHashes, _ethCall, _sig);\n        emit ReceiptsVerified(_taskIds, _inStateDeltaHashes, _outStateDeltaHashes, _ethCall, _sig);\n    }\n\n    // Verify the signature submitted while reparameterizing workers\n    function verifyParamsSig(uint256 _seed, bytes memory _sig)\n    internal\n    pure\n    returns (address)\n    {\n        bytes32 hash = keccak256(abi.encodePacked(_seed));\n        address signer = hash.recover(_sig);\n        return signer;\n    }\n\n    /**\n    * Reparameterizing workers with a new seed\n    * This should be called for each epoch by the Principal node\n    *\n    * @param _seed The random integer generated by the enclave\n    * @param _sig The random integer signed by the the principal node's enclave\n    */\n    function setWorkersParams(uint _seed, bytes memory _sig)\n    public\n    workerRegistered(msg.sender)\n    {\n        // Reparameterizing workers with a new seed\n        // This should be called for each epoch by the Principal node\n\n        // We assume that the Principal is always the first registered node\n        require(workers[msg.sender].signer == principal, \"Only the Principal can update the seed\");\n        // TODO: verify the principal sig\n\n        // Create a new workers parameters item for the specified seed.\n        // The workers parameters list is a sort of cache, it never grows beyond its limit.\n        // If the list is full, the new item will replace the item assigned to the lowest block number.\n        uint paramIndex = 0;\n        for (uint pi = 0; pi < workersParams.length; pi++) {\n            // Find an empty slot in the array, if full use the lowest block number\n            if (workersParams[pi].firstBlockNumber == 0) {\n                paramIndex = pi;\n                break;\n            } else if (workersParams[pi].firstBlockNumber < workersParams[paramIndex].firstBlockNumber) {\n                paramIndex = pi;\n            }\n        }\n        workersParams[paramIndex].firstBlockNumber = block.number;\n        workersParams[paramIndex].seed = _seed;\n        workersParams[paramIndex].nonce = userTaskDeployments[msg.sender];\n\n        // Copy the current worker list\n        uint workerIndex = 0;\n        for (uint wi = 0; wi < workerAddresses.length; wi++) {\n            Worker memory worker = workers[workerAddresses[wi]];\n            if ((worker.balance >= stakingThreshold) && (worker.signer != principal) &&\n                (worker.status == WorkerStatus.LoggedIn)) {\n                workersParams[paramIndex].workers.length++;\n                workersParams[paramIndex].workers[workerIndex] = workerAddresses[wi];\n\n                workersParams[paramIndex].balances.length++;\n                workersParams[paramIndex].balances[workerIndex] = worker.balance;\n\n                workerIndex = workerIndex.add(1);\n            }\n        }\n        emit WorkersParameterized(_seed, block.number, workersParams[paramIndex].workers,\n            workersParams[paramIndex].balances, userTaskDeployments[msg.sender]);\n        userTaskDeployments[msg.sender]++;\n    }\n\n    function getWorkerParamsIndex(uint _blockNumber)\n    internal\n    view\n    returns (uint)\n    {\n        // The workers parameters for a given block number\n        int8 index = - 1;\n        for (uint i = 0; i < workersParams.length; i++) {\n            if (workersParams[i].firstBlockNumber <= _blockNumber && (index == - 1 || workersParams[i].firstBlockNumber > workersParams[uint(index)].firstBlockNumber)) {\n                index = int8(i);\n            }\n        }\n        require(index != - 1, \"No workers parameters entry for specified block number\");\n        return uint(index);\n    }\n\n    function getWorkerParams(uint _blockNumber)\n    public\n    view\n    returns (uint, uint, address[] memory, uint[] memory) {\n        uint index = getWorkerParamsIndex(_blockNumber);\n        WorkersParams memory params = workersParams[index];\n        return (params.firstBlockNumber, params.seed, params.workers, params.balances);\n    }\n\n    function compileTokens(uint _blockNumber, uint _paramIndex, bytes32 _scAddr, uint _nonce)\n    internal\n    view\n    returns (address)\n    {\n        WorkersParams memory params = workersParams[_paramIndex];\n        uint tokenCpt = 0;\n        for (uint i = 0; i < params.workers.length; i++) {\n            if (params.workers[i] != address(0)) {\n                tokenCpt = tokenCpt.add(params.balances[i]);\n            }\n        }\n        bytes32 randHash = keccak256(abi.encodePacked(_blockNumber, params.seed, params.firstBlockNumber, _scAddr,\n            tokenCpt, _nonce));\n        int randVal = int256(uint256(randHash) % tokenCpt);\n        for (uint k = 0; k < params.workers.length; k++) {\n            if (params.workers[k] != address(0)) {\n                randVal -= int256(params.balances[k]);\n                if (randVal <= 0) {\n                    return params.workers[k];\n                }\n            }\n        }\n        return params.workers[params.workers.length - 1];\n    }\n\n    function getWorkerGroup(uint _blockNumber, bytes32 _scAddr)\n    public\n    view\n    returns (address[] memory)\n    {\n        // Compile a list of selected workers for the block number and\n        // secret contract.\n        uint paramIndex = getWorkerParamsIndex(_blockNumber);\n        WorkersParams memory params = workersParams[paramIndex];\n\n        address[] memory selectedWorkers = new address[](workerGroupSize);\n        uint nonce = 0;\n        for (uint it = 0; it < workerGroupSize; it++) {\n            do {\n                address worker = compileTokens(_blockNumber, paramIndex, _scAddr, nonce);\n                bool dup = false;\n                for (uint id = 0; id < selectedWorkers.length; id++) {\n                    if (worker == selectedWorkers[id]) {\n                        dup = true;\n                        break;\n                    }\n                }\n                if (dup == false) {\n                    selectedWorkers[it] = worker;\n                }\n                nonce++;\n            }\n            while (selectedWorkers[it] == address(0));\n        }\n        return selectedWorkers;\n    }\n\n    /**\n    * The worker parameters corresponding to the specified block number\n    *\n    * @param _blockNumber The reference block number\n    */\n    function getWorkersParams(uint _blockNumber)\n    public\n    view\n    returns (uint, uint, address[] memory, address[] memory)\n    {\n        // TODO: finalize implementation\n        uint firstBlockNumber = 0;\n        uint seed = 0;\n        address[] memory activeWorkers;\n        address[] memory activeContracts;\n        return (firstBlockNumber, seed, activeWorkers, activeContracts);\n    }\n\n    /**\n    * The RLP encoded report returned by the IAS server\n    *\n    * @param _custodian The worker's custodian address\n    */\n    function getReport(address _custodian)\n    public\n    view\n    workerRegistered(_custodian)\n    returns (address, bytes memory)\n    {\n        // The RLP encoded report and signer's address for the specified worker\n        require(workers[_custodian].signer != address(0), \"Worker not registered\");\n        return (workers[_custodian].signer, workers[_custodian].report);\n    }\n}\n",
  "sourcePath": "/home/fredfortier/Code/Enigma/discovery/enigma-contract-internal/contracts/Enigma.sol",
  "compiler": {
    "name": "solc",
    "version": "0.5.0+commit.1d4f565a.Emscripten.clang"
  },
  "schemaVersion": "3.0.1",
  "updatedAt": "2019-01-08T03:42:54.717Z",
  "devdoc": {
    "methods": {
      "getReport(address)": {
        "params": {
          "_custodian": "The worker's custodian address"
        }
      },
      "getWorkersParams(uint256)": {
        "params": {
          "_blockNumber": "The reference block number"
        }
      },
      "register(address,bytes)": {
        "params": {
          "_report": "The RLP encoded report returned by the IAS",
          "_signer": "The signer address, derived from the enclave public key"
        }
      },
      "setWorkersParams(uint256,bytes)": {
        "params": {
          "_seed": "The random integer generated by the enclave",
          "_sig": "The random integer signed by the the principal node's enclave"
        }
      }
    }
  },
  "userdoc": {
    "methods": {
      "commitReceipt(bytes32,bytes32,bytes32,bytes32,bytes,bytes)": {
        "notice": "Commit the computation task results on chain"
      },
      "createTaskRecord(bytes32,uint256)": {
        "notice": "Store task record    "
      },
      "getReport(address)": {
        "notice": "The RLP encoded report returned by the IAS server"
      },
      "getSecretContractAddresses(uint256,uint256)": {
        "notice": "Selects address from _start up to, but not including, the _stop number*"
      },
      "getStateDeltaHashes(bytes32,uint256,uint256)": {
        "notice": "Selects state deltas from _start up to, but not including, the _stop number*"
      },
      "getWorkersParams(uint256)": {
        "notice": "The worker parameters corresponding to the specified block number"
      },
      "register(address,bytes)": {
        "notice": "Registers a new worker of change the signer parameters of an existing worker. This should be called by every worker (and the principal) node in order to receive tasks."
      },
      "setWorkersParams(uint256,bytes)": {
        "notice": "Reparameterizing workers with a new seed This should be called for each epoch by the Principal node"
      }
    }
  }
}