{
  "contractName": "Enigma",
  "abi": [
    {
      "constant": true,
      "inputs": [
        {
          "name": "",
          "type": "uint256"
        }
      ],
      "name": "workerAddresses",
      "outputs": [
        {
          "name": "",
          "type": "address"
        }
      ],
      "payable": false,
      "stateMutability": "view",
      "type": "function",
      "signature": "0x0a318da0"
    },
    {
      "constant": true,
      "inputs": [
        {
          "name": "",
          "type": "address"
        }
      ],
      "name": "workers",
      "outputs": [
        {
          "name": "signer",
          "type": "address"
        },
        {
          "name": "report",
          "type": "bytes"
        },
        {
          "name": "balance",
          "type": "uint256"
        },
        {
          "name": "status",
          "type": "uint256"
        }
      ],
      "payable": false,
      "stateMutability": "view",
      "type": "function",
      "signature": "0x4048a257"
    },
    {
      "constant": true,
      "inputs": [],
      "name": "engToken",
      "outputs": [
        {
          "name": "",
          "type": "address"
        }
      ],
      "payable": false,
      "stateMutability": "view",
      "type": "function",
      "signature": "0x9489ad40"
    },
    {
      "constant": true,
      "inputs": [
        {
          "name": "",
          "type": "bytes32"
        }
      ],
      "name": "tasks",
      "outputs": [
        {
          "name": "dappContract",
          "type": "address"
        },
        {
          "name": "callable",
          "type": "string"
        },
        {
          "name": "callableArgs",
          "type": "bytes"
        },
        {
          "name": "callback",
          "type": "string"
        },
        {
          "name": "worker",
          "type": "address"
        },
        {
          "name": "sig",
          "type": "bytes"
        },
        {
          "name": "reward",
          "type": "uint256"
        },
        {
          "name": "blockNumber",
          "type": "uint256"
        },
        {
          "name": "status",
          "type": "uint8"
        }
      ],
      "payable": false,
      "stateMutability": "view",
      "type": "function",
      "signature": "0xe579f500"
    },
    {
      "inputs": [
        {
          "name": "_tokenAddress",
          "type": "address"
        },
        {
          "name": "_principal",
          "type": "address"
        }
      ],
      "payable": false,
      "stateMutability": "nonpayable",
      "type": "constructor",
      "signature": "constructor"
    },
    {
      "anonymous": false,
      "inputs": [
        {
          "indexed": false,
          "name": "custodian",
          "type": "address"
        },
        {
          "indexed": false,
          "name": "signer",
          "type": "address"
        },
        {
          "indexed": false,
          "name": "_success",
          "type": "bool"
        }
      ],
      "name": "Register",
      "type": "event",
      "signature": "0xaea7118a676707165821e4678d9998eaabd7a2864b5db99ec0badef3fb7fa1e4"
    },
    {
      "anonymous": false,
      "inputs": [
        {
          "indexed": false,
          "name": "sig",
          "type": "bytes"
        },
        {
          "indexed": false,
          "name": "hash",
          "type": "bytes32"
        },
        {
          "indexed": false,
          "name": "workerAddr",
          "type": "address"
        },
        {
          "indexed": false,
          "name": "_success",
          "type": "bool"
        }
      ],
      "name": "ValidateSig",
      "type": "event",
      "signature": "0x82063f582a14b0e9c33225c41ae5031b299c0618b69179682ebf5bb716032bd4"
    },
    {
      "anonymous": false,
      "inputs": [
        {
          "indexed": false,
          "name": "dappContract",
          "type": "address"
        },
        {
          "indexed": false,
          "name": "worker",
          "type": "address"
        },
        {
          "indexed": false,
          "name": "sig",
          "type": "bytes"
        },
        {
          "indexed": false,
          "name": "reward",
          "type": "uint256"
        },
        {
          "indexed": false,
          "name": "_success",
          "type": "bool"
        }
      ],
      "name": "CommitResults",
      "type": "event",
      "signature": "0x860ef3e30d5efeaa79f3d448bd5219e9b92ca92eefb7bcc4e8c6b3420fe9dd3d"
    },
    {
      "anonymous": false,
      "inputs": [
        {
          "indexed": false,
          "name": "seed",
          "type": "uint256"
        },
        {
          "indexed": false,
          "name": "workers",
          "type": "address[]"
        },
        {
          "indexed": false,
          "name": "_success",
          "type": "bool"
        }
      ],
      "name": "WorkersParameterized",
      "type": "event",
      "signature": "0x363e1a0b29df899b2a8946ad6ac8f81796117158a11dc2c2a5b8c0297789ffa1"
    },
    {
      "anonymous": false,
      "inputs": [
        {
          "indexed": true,
          "name": "dappContract",
          "type": "address"
        },
        {
          "indexed": true,
          "name": "taskId",
          "type": "bytes32"
        },
        {
          "indexed": false,
          "name": "callable",
          "type": "string"
        },
        {
          "indexed": false,
          "name": "callableArgs",
          "type": "bytes"
        },
        {
          "indexed": false,
          "name": "callback",
          "type": "string"
        },
        {
          "indexed": false,
          "name": "fee",
          "type": "uint256"
        },
        {
          "indexed": false,
          "name": "preprocessors",
          "type": "bytes32[]"
        },
        {
          "indexed": false,
          "name": "blockNumber",
          "type": "uint256"
        },
        {
          "indexed": false,
          "name": "_success",
          "type": "bool"
        }
      ],
      "name": "ComputeTask",
      "type": "event",
      "signature": "0x4ff070954b5d945704da2dfe97df43d753324f63c307db579707f91239df423e"
    },
    {
      "constant": false,
      "inputs": [
        {
          "name": "a",
          "type": "uint256"
        }
      ],
      "name": "test",
      "outputs": [
        {
          "name": "",
          "type": "uint256"
        }
      ],
      "payable": false,
      "stateMutability": "nonpayable",
      "type": "function",
      "signature": "0x29e99f07"
    },
    {
      "constant": true,
      "inputs": [],
      "name": "test_view",
      "outputs": [
        {
          "name": "",
          "type": "uint256"
        }
      ],
      "payable": false,
      "stateMutability": "view",
      "type": "function",
      "signature": "0xefa47496"
    },
    {
      "constant": false,
      "inputs": [
        {
          "name": "signer",
          "type": "address"
        },
        {
          "name": "report",
          "type": "bytes"
        },
        {
          "name": "test",
          "type": "uint256"
        }
      ],
      "name": "fake_register1",
      "outputs": [
        {
          "name": "",
          "type": "uint256"
        }
      ],
      "payable": true,
      "stateMutability": "payable",
      "type": "function",
      "signature": "0x3af949f5"
    },
    {
      "constant": false,
      "inputs": [
        {
          "name": "signer",
          "type": "address"
        },
        {
          "name": "test",
          "type": "uint256"
        }
      ],
      "name": "fake_register2",
      "outputs": [
        {
          "name": "",
          "type": "uint256"
        }
      ],
      "payable": true,
      "stateMutability": "payable",
      "type": "function",
      "signature": "0xc3cc1847"
    },
    {
      "constant": false,
      "inputs": [
        {
          "name": "signer",
          "type": "address"
        },
        {
          "name": "test",
          "type": "uint256"
        }
      ],
      "name": "fake_register3",
      "outputs": [
        {
          "name": "",
          "type": "uint256"
        }
      ],
      "payable": false,
      "stateMutability": "nonpayable",
      "type": "function",
      "signature": "0x452cbe5e"
    },
    {
      "constant": true,
      "inputs": [
        {
          "name": "worker",
          "type": "address"
        }
      ],
      "name": "test_validate_registration",
      "outputs": [
        {
          "name": "",
          "type": "bool"
        }
      ],
      "payable": false,
      "stateMutability": "view",
      "type": "function",
      "signature": "0xf8bbea02"
    },
    {
      "constant": false,
      "inputs": [
        {
          "name": "signer",
          "type": "address"
        },
        {
          "name": "report",
          "type": "bytes"
        }
      ],
      "name": "register",
      "outputs": [
        {
          "name": "",
          "type": "uint8"
        }
      ],
      "payable": true,
      "stateMutability": "payable",
      "type": "function",
      "signature": "0x24b8fbf6"
    },
    {
      "constant": true,
      "inputs": [
        {
          "name": "dappContract",
          "type": "address"
        },
        {
          "name": "callable",
          "type": "string"
        },
        {
          "name": "callableArgs",
          "type": "bytes"
        },
        {
          "name": "blockNumber",
          "type": "uint256"
        }
      ],
      "name": "generateTaskId",
      "outputs": [
        {
          "name": "",
          "type": "bytes32"
        }
      ],
      "payable": false,
      "stateMutability": "view",
      "type": "function",
      "signature": "0x48aa8573"
    },
    {
      "constant": false,
      "inputs": [
        {
          "name": "dappContract",
          "type": "address"
        },
        {
          "name": "callable",
          "type": "string"
        },
        {
          "name": "callableArgs",
          "type": "bytes"
        },
        {
          "name": "callback",
          "type": "string"
        },
        {
          "name": "fee",
          "type": "uint256"
        },
        {
          "name": "preprocessors",
          "type": "bytes32[]"
        },
        {
          "name": "blockNumber",
          "type": "uint256"
        }
      ],
      "name": "compute",
      "outputs": [
        {
          "name": "",
          "type": "uint8"
        }
      ],
      "payable": false,
      "stateMutability": "nonpayable",
      "type": "function",
      "signature": "0xbf3c5c51"
    },
    {
      "constant": false,
      "inputs": [
        {
          "name": "taskId",
          "type": "bytes32"
        },
        {
          "name": "data",
          "type": "bytes"
        },
        {
          "name": "sig",
          "type": "bytes"
        },
        {
          "name": "blockNumber",
          "type": "uint256"
        }
      ],
      "name": "commitResults",
      "outputs": [
        {
          "name": "",
          "type": "uint8"
        }
      ],
      "payable": false,
      "stateMutability": "nonpayable",
      "type": "function",
      "signature": "0xa944c0cd"
    },
    {
      "constant": true,
      "inputs": [],
      "name": "test_recover_addr2",
      "outputs": [
        {
          "name": "",
          "type": "address"
        }
      ],
      "payable": false,
      "stateMutability": "view",
      "type": "function",
      "signature": "0xa7ca0b60"
    },
    {
      "constant": true,
      "inputs": [],
      "name": "test_seed",
      "outputs": [
        {
          "name": "",
          "type": "uint256"
        }
      ],
      "payable": false,
      "stateMutability": "view",
      "type": "function",
      "signature": "0xf4fd0b83"
    },
    {
      "constant": false,
      "inputs": [
        {
          "name": "seed",
          "type": "uint256"
        },
        {
          "name": "sig",
          "type": "bytes"
        }
      ],
      "name": "setWorkersParams",
      "outputs": [
        {
          "name": "",
          "type": "uint8"
        }
      ],
      "payable": false,
      "stateMutability": "nonpayable",
      "type": "function",
      "signature": "0x2873e73c"
    },
    {
      "constant": true,
      "inputs": [
        {
          "name": "blockNumber",
          "type": "uint256"
        }
      ],
      "name": "getWorkersParams",
      "outputs": [
        {
          "name": "",
          "type": "uint256"
        },
        {
          "name": "",
          "type": "uint256"
        },
        {
          "name": "",
          "type": "address[]"
        }
      ],
      "payable": false,
      "stateMutability": "view",
      "type": "function",
      "signature": "0x59c91a12"
    },
    {
      "constant": true,
      "inputs": [
        {
          "name": "blockNumber",
          "type": "uint256"
        },
        {
          "name": "taskId",
          "type": "bytes32"
        }
      ],
      "name": "selectWorker",
      "outputs": [
        {
          "name": "",
          "type": "address"
        }
      ],
      "payable": false,
      "stateMutability": "view",
      "type": "function",
      "signature": "0x41f53fa4"
    },
    {
      "constant": true,
      "inputs": [
        {
          "name": "custodian",
          "type": "address"
        }
      ],
      "name": "getReport",
      "outputs": [
        {
          "name": "",
          "type": "address"
        },
        {
          "name": "",
          "type": "bytes"
        }
      ],
      "payable": false,
      "stateMutability": "view",
      "type": "function",
      "signature": "0xa3bdae3e"
    }
  ],
  "bytecode": "0x608060405234801561001057600080fd5b50604051604080612b2c83398101604052805160209091015160038054600160a060020a03938416600160a060020a03199182161790915560048054939092169216919091179055612ac5806100676000396000f3006080604052600436106101115763ffffffff7c01000000000000000000000000000000000000000000000000000000006000350416630a318da0811461011657806324b8fbf61461014a5780632873e73c146101c857806329e99f07146102265780633af949f5146102505780634048a257146102ac57806341f53fa41461036c578063452cbe5e1461038757806348aa8573146103ab57806359c91a12146104525780639489ad40146104cc578063a3bdae3e146104e1578063a7ca0b6014610593578063a944c0cd146105a8578063bf3c5c5114610646578063c3cc18471461076b578063e579f50014610782578063efa4749614610999578063f4fd0b83146109ae578063f8bbea02146109c3575b600080fd5b34801561012257600080fd5b5061012e6004356109f8565b60408051600160a060020a039092168252519081900360200190f35b60408051602060046024803582810135601f81018590048502860185019096528585526101a4958335600160a060020a0316953695604494919390910191908190840183828082843750949750610a209650505050505050565b604051808260018111156101b457fe5b60ff16815260200191505060405180910390f35b3480156101d457600080fd5b5060408051602060046024803582810135601f81018590048502860185019096528585526101a4958335953695604494919390910191908190840183828082843750949750610b219650505050505050565b34801561023257600080fd5b5061023e600435610f53565b60408051918252519081900360200190f35b60408051602060046024803582810135601f810185900485028601850190965285855261023e958335600160a060020a03169536956044949193909101919081908401838280828437509497505093359450610f629350505050565b3480156102b857600080fd5b506102cd600160a060020a0360043516610f6d565b6040518085600160a060020a0316600160a060020a0316815260200180602001848152602001838152602001828103825285818151815260200191508051906020019080838360005b8381101561032e578181015183820152602001610316565b50505050905090810190601f16801561035b5780820380516001836020036101000a031916815260200191505b509550505050505060405180910390f35b34801561037857600080fd5b5061012e60043560243561102d565b34801561039357600080fd5b5061023e600160a060020a03600435166024356110a3565b3480156103b757600080fd5b5060408051602060046024803582810135601f810185900485028601850190965285855261023e958335600160a060020a031695369560449491939091019190819084018382808284375050604080516020601f89358b018035918201839004830284018301909452808352979a99988101979196509182019450925082915084018382808284375094975050933594506110ad9350505050565b34801561045e57600080fd5b5061046a60043561118b565b6040518084815260200183815260200180602001828103825283818151815260200191508051906020019060200280838360005b838110156104b657818101518382015260200161049e565b5050505090500194505050505060405180910390f35b3480156104d857600080fd5b5061012e6112ed565b3480156104ed57600080fd5b50610502600160a060020a03600435166112fc565b6040518083600160a060020a0316600160a060020a0316815260200180602001828103825283818151815260200191508051906020019080838360005b8381101561055757818101518382015260200161053f565b50505050905090810190601f1680156105845780820380516001836020036101000a031916815260200191505b50935050505060405180910390f35b34801561059f57600080fd5b5061012e611570565b3480156105b457600080fd5b5060408051602060046024803582810135601f81018590048502860185019096528585526101a495833595369560449491939091019190819084018382808284375050604080516020601f89358b018035918201839004830284018301909452808352979a99988101979196509182019450925082915084018382808284375094975050933594506115809350505050565b34801561065257600080fd5b5060408051602060046024803582810135601f81018590048502860185019096528585526101a4958335600160a060020a031695369560449491939091019190819084018382808284375050604080516020601f89358b018035918201839004830284018301909452808352979a99988101979196509182019450925082915084018382808284375050604080516020601f89358b018035918201839004830284018301909452808352979a99988101979196509182019450925082915084018382808284375050604080516020808901358a01803580830284810184018652818552999c8b359c909b909a9501985092965081019450909250829190850190849080828437509497505093359450611d199350505050565b61023e600160a060020a03600435166024356110a3565b34801561078e57600080fd5b5061079a60043561213f565b604051808a600160a060020a0316600160a060020a0316815260200180602001806020018060200189600160a060020a0316600160a060020a03168152602001806020018881526020018781526020018660018111156107f657fe5b60ff16815260200185810385528d818151815260200191508051906020019080838360005b8381101561083357818101518382015260200161081b565b50505050905090810190601f1680156108605780820380516001836020036101000a031916815260200191505b5085810384528c5181528c516020918201918e019080838360005b8381101561089357818101518382015260200161087b565b50505050905090810190601f1680156108c05780820380516001836020036101000a031916815260200191505b5085810383528b5181528b516020918201918d019080838360005b838110156108f35781810151838201526020016108db565b50505050905090810190601f1680156109205780820380516001836020036101000a031916815260200191505b5085810382528951815289516020918201918b019080838360005b8381101561095357818101518382015260200161093b565b50505050905090810190601f1680156109805780820380516001836020036101000a031916815260200191505b509d505050505050505050505050505060405180910390f35b3480156109a557600080fd5b5061023e6123cd565b3480156109ba57600080fd5b5061023e6123d3565b3480156109cf57600080fd5b506109e4600160a060020a03600435166123d9565b604080519115158252519081900360200190f35b6005805482908110610a0657fe5b600091825260209091200154600160a060020a0316905081565b600580546000918190610a369060018301612984565b5033600582815481101515610a4757fe5b600091825260208083209091018054600160a060020a0394851673ffffffffffffffffffffffffffffffffffffffff19918216179091553383526015825260409092208054938816939092169290921781553460028201558451610ab492600192909201918601906129ad565b5033600081815260156020908152604091829020600160039091018190558251938452600160a060020a0388169184019190915282820152517faea7118a676707165821e4678d9998eaabd7a2864b5db99ec0badef3fb7fa1e49181900360600190a15060009392505050565b600080600080600033610b32612a2b565b600160a060020a03828116600090815260156020908152604091829020825160808101845281549094168452600180820180548551600261010094831615949094026000190190911692909204601f8101859004850283018501909552848252919385840193919291830182828015610bec5780601f10610bc157610100808354040283529160200191610bec565b820191906000526020600020905b815481529060010190602001808311610bcf57829003601f168201915b5050505050815260200160028201548152602001600382015481525050905060008160600151111515610c69576040805160e560020a62461bcd02815260206004820152601460248201527f556e7265676973746572656420776f726b65722e000000000000000000000000604482015290519081900360640190fd5b60045433600090815260156020526040902054600160a060020a03908116911614610d04576040805160e560020a62461bcd02815260206004820152602660248201527f4f6e6c7920746865205072696e636970616c2063616e2075706461746520746860448201527f6520736565640000000000000000000000000000000000000000000000000000606482015290519081900360840190fd5b610d0e898961242a565b60018a90556002805473ffffffffffffffffffffffffffffffffffffffff1916600160a060020a0383161790559550600094508493505b6005841015610da75760068460058110610d5b57fe5b60030201541515610d6e57839450610da7565b60068560058110610d7b57fe5b600302015460068560058110610d8d57fe5b60030201541015610d9c578394505b600190930192610d45565b4360068660058110610db557fe5b60030201558860068660058110610dc857fe5b6003020160020181905550600092505b600554831015610eaf576005805484908110610df057fe5b600091825260209091200154600160a060020a031615610ea45760068560058110610e1757fe5b600302016001018054809190600101610e309190612984565b506005805484908110610e3f57fe5b600091825260209091200154600160a060020a031660068660058110610e6157fe5b6003020160010184815481101515610e7557fe5b9060005260206000200160006101000a815481600160a060020a030219169083600160a060020a031602179055505b600190920191610dd8565b7f363e1a0b29df899b2a8946ad6ac8f81796117158a11dc2c2a5b8c0297789ffa189600560016040518084815260200180602001831515151581526020018281038252848181548152602001915080548015610f3457602002820191906000526020600020905b8154600160a060020a03168152600190910190602001808311610f16575b505094505050505060405180910390a150600098975050505050505050565b6000819055600a81025b919050565b600081905592915050565b6015602090815260009182526040918290208054600180830180548651600261010094831615949094026000190190911692909204601f8101869004860283018601909652858252600160a060020a039092169492939092908301828280156110175780601f10610fec57610100808354040283529160200191611017565b820191906000526020600020905b815481529060010190602001808311610ffa57829003601f168201915b5050505050908060020154908060030154905084565b60008060006060806000806110418961118b565b95509550955061105084612459565b60408051878152602081018b90528151908190039091019020815191945092508281151561107a57fe5b069050828181518110151561108b57fe5b90602001906020020151965050505050505092915050565b6000819055919050565b600080858585856040518085600160a060020a0316600160a060020a03166c0100000000000000000000000002815260140184805190602001908083835b6020831061110a5780518252601f1990920191602091820191016110eb565b51815160209384036101000a600019018019909216911617905286519190930192860191508083835b602083106111525780518252601f199092019160209182019101611133565b51815160209384036101000a600019018019909216911617905292019384525060405192839003019091209a9950505050505050505050565b600080606060008061119b612a5d565b60606111a68861260f565b9350600019600085900b141561122c576040805160e560020a62461bcd02815260206004820152603660248201527f4e6f20776f726b65727320706172616d657465727320656e74727920666f722060448201527f73706563696669656420626c6f636b206e756d62657200000000000000000000606482015290519081900360840190fd5b600084900b92506006836005811061124057fe5b600302016060604051908101604052908160008201548152602001600182018054806020026020016040519081016040528092919081815260200182805480156112b357602002820191906000526020600020905b8154600160a060020a03168152600190910190602001808311611295575b5050505050815260200160028201548152505091506112d58260200151612459565b82516040909301519299929850965090945050505050565b600354600160a060020a031681565b6000606082611309612a2b565b600160a060020a03828116600090815260156020908152604091829020825160808101845281549094168452600180820180548551600261010094831615949094026000190190911692909204601f81018590048502830185019095528482529193858401939192918301828280156113c35780601f10611398576101008083540402835291602001916113c3565b820191906000526020600020905b8154815290600101906020018083116113a657829003601f168201915b5050505050815260200160028201548152602001600382015481525050905060008160600151111515611440576040805160e560020a62461bcd02815260206004820152601460248201527f556e7265676973746572656420776f726b65722e000000000000000000000000604482015290519081900360640190fd5b600160a060020a038086166000908152601560205260409020541615156114b1576040805160e560020a62461bcd02815260206004820152601560248201527f576f726b6572206e6f7420726567697374657265640000000000000000000000604482015290519081900360640190fd5b600160a060020a038581166000908152601560209081526040918290208054600191820180548551600261010095831615959095026000190190911693909304601f810185900485028401850190955284835294169392909183919083018282801561155e5780601f106115335761010080835404028352916020019161155e565b820191906000526020600020905b81548152906001019060200180831161154157829003601f168201915b50505050509050935093505050915091565b600254600160a060020a03165b90565b6000806000803361158f612a2b565b600160a060020a03828116600090815260156020908152604091829020825160808101845281549094168452600180820180548551600261010094831615949094026000190190911692909204601f81018590048502830185019095528482529193858401939192918301828280156116495780601f1061161e57610100808354040283529160200191611649565b820191906000526020600020905b81548152906001019060200180831161162c57829003601f168201915b50505050508152602001600282015481526020016003820154815250509050600081606001511115156116c6576040805160e560020a62461bcd02815260206004820152601460248201527f556e7265676973746572656420776f726b65722e000000000000000000000000604482015290519081900360640190fd5b60008a81526016602052604081206008015460ff1660018111156116e657fe5b14611761576040805160e560020a62461bcd02815260206004820152602960248201527f496c6c6567616c207374617475732c207461736b206d75737420626520696e2060448201527f70726f67726573732e0000000000000000000000000000000000000000000000606482015290519081900360840190fd5b60008a8152601660209081526040918290208251610120810184528154600160a060020a03168152600180830180548651601f600294831615610100026000190190921693909304908101869004860283018601909652858252611a2e95929485810193908301828280156118175780601f106117ec57610100808354040283529160200191611817565b820191906000526020600020905b8154815290600101906020018083116117fa57829003601f168201915b5050509183525050600282810180546040805160206001841615610100026000190190931694909404601f810183900483028501830190915280845293810193908301828280156118a95780601f1061187e576101008083540402835291602001916118a9565b820191906000526020600020905b81548152906001019060200180831161188c57829003601f168201915b505050918352505060038201805460408051602060026001851615610100026000190190941693909304601f810184900484028201840190925281815293820193929183018282801561193d5780601f106119125761010080835404028352916020019161193d565b820191906000526020600020905b81548152906001019060200180831161192057829003601f168201915b50505091835250506004820154600160a060020a031660208083019190915260058301805460408051601f600260001960018616156101000201909416939093049283018590048502810185018252828152940193928301828280156119e45780601f106119b9576101008083540402835291602001916119e4565b820191906000526020600020905b8154815290600101906020018083116119c757829003601f168201915b50505091835250506006820154602082015260078201546040820152600882015460609091019060ff166001811115611a1957fe5b6001811115611a2457fe5b9052508a8a61268b565b9450600160a060020a0385161515611a90576040805160e560020a62461bcd02815260206004820152601d60248201527f43616e6e6f74207665726966792074686973207369676e61747572652e000000604482015290519081900360640190fd5b33600090815260156020526040902054600160a060020a03868116911614611b02576040805160e560020a62461bcd02815260206004820152601260248201527f496e76616c6964207369676e61747572652e0000000000000000000000000000604482015290519081900360640190fd5b60008a81526016602052604081206006015494508411611b6c576040805160e560020a62461bcd02815260206004820152601660248201527f5265776172642063616e6e6f74206265207a65726f2e00000000000000000000604482015290519081900360640190fd5b60008a815260166020908152604090912060048101805473ffffffffffffffffffffffffffffffffffffffff1916331790558951611bb2926005909201918b01906129ad565b5060008a8152601660209081526040808320600801805460ff19166001179055338352601590915290206002810154909350611bee9085612875565b83600201819055507f860ef3e30d5efeaa79f3d448bd5219e9b92ca92eefb7bcc4e8c6b3420fe9dd3d601660008c6000191660001916815260200190815260200160002060000160009054906101000a9004600160a060020a0316868a8760016040518086600160a060020a0316600160a060020a0316815260200185600160a060020a0316600160a060020a031681526020018060200184815260200183151515158152602001828103825285818151815260200191508051906020019080838360005b83811015611ccb578181015183820152602001611cb3565b50505050905090810190601f168015611cf85780820380516001836020036101000a031916815260200191505b50965050505050505060405180910390a15060009998505050505050505050565b600080611d28898989866110ad565b600081815260166020526040902054909150600160a060020a031615611dbe576040805160e560020a62461bcd02815260206004820152602760248201527f5461736b2077697468207468652073616d65207461736b496420616c7265616460448201527f7920657869737400000000000000000000000000000000000000000000000000606482015290519081900360840190fd5b6000818152601660209081526040909120600681018790558951611dea926001909201918b01906129ad565b5060008181526016602090815260409091208851611e10926002909201918a01906129ad565b5060008181526016602090815260409091208751611e36926003909201918901906129ad565b506000818152601660205260408120600801805460ff191660018302179055508860166000836000191660001916815260200190815260200160002060000160006101000a815481600160a060020a030219169083600160a060020a031602179055508260166000836000191660001916815260200190815260200160002060070181905550806000191689600160a060020a03167f4ff070954b5d945704da2dfe97df43d753324f63c307db579707f91239df423e8a8a8a8a8a8a600160405180806020018060200180602001888152602001806020018781526020018615151515815260200185810385528c818151815260200191508051906020019080838360005b83811015611f53578181015183820152602001611f3b565b50505050905090810190601f168015611f805780820380516001836020036101000a031916815260200191505b5085810384528b5181528b516020918201918d019080838360005b83811015611fb3578181015183820152602001611f9b565b50505050905090810190601f168015611fe05780820380516001836020036101000a031916815260200191505b5085810383528a5181528a516020918201918c019080838360005b83811015612013578181015183820152602001611ffb565b50505050905090810190601f1680156120405780820380516001836020036101000a031916815260200191505b508581038252885181528851602091820191808b01910280838360005b8381101561207557818101518382015260200161205d565b505050509050019b50505050505050505050505060405180910390a3600354604080517f23b872dd000000000000000000000000000000000000000000000000000000008152336004820152306024820152604481018890529051600160a060020a03909216916323b872dd916064808201926020929091908290030181600087803b15801561210457600080fd5b505af1158015612118573d6000803e3d6000fd5b505050506040513d602081101561212e57600080fd5b5060009a9950505050505050505050565b6016602090815260009182526040918290208054600180830180548651600261010094831615949094026000190190911692909204601f8101869004860283018601909652858252600160a060020a039092169492939092908301828280156121e95780601f106121be576101008083540402835291602001916121e9565b820191906000526020600020905b8154815290600101906020018083116121cc57829003601f168201915b50505060028085018054604080516020601f600019610100600187161502019094169590950492830185900485028101850190915281815295969594509092509083018282801561227b5780601f106122505761010080835404028352916020019161227b565b820191906000526020600020905b81548152906001019060200180831161225e57829003601f168201915b5050505060038301805460408051602060026001851615610100026000190190941693909304601f810184900484028201840190925281815294959493509083018282801561230b5780601f106122e05761010080835404028352916020019161230b565b820191906000526020600020905b8154815290600101906020018083116122ee57829003601f168201915b50505050600483015460058401805460408051602060026101006001861615026000190190941693909304601f81018490048402820184019092528181529596600160a060020a0390941695939450908301828280156123ac5780601f10612381576101008083540402835291602001916123ac565b820191906000526020600020905b81548152906001019060200180831161238f57829003601f168201915b50505050600683015460078401546008909401549293909290915060ff1689565b60005490565b60015490565b336000908152601560205260408120600301546001148015612415575033600090815260156020526040902054600160a060020a038381169116145b1561242257506001610f5d565b506000610f5d565b60408051838152905190819003602001902060009081612450828563ffffffff61288816565b95945050505050565b60606000808281805b86518410156124fb57868481518110151561247957fe5b90602001906020020151600160a060020a03166000141580156124e457506004548751600160a060020a03909116906015906000908a90889081106124ba57fe5b6020908102909101810151600160a060020a03908116835290820192909252604001600020541614155b156124f0576001909401935b600190930192612462565b84604051908082528060200260200182016040528015612525578160200160208202803883390190505b50925060009150600090505b865181101561260457868181518110151561254857fe5b90602001906020020151600160a060020a03166000141580156125b357506004548751600160a060020a03909116906015906000908a908590811061258957fe5b6020908102909101810151600160a060020a03908116835290820192909252604001600020541614155b156125fc5786818151811015156125c657fe5b9060200190602002015183838151811015156125de57fe5b600160a060020a039092166020928302909101909101526001909101905b600101612531565b509095945050505050565b6000600019815b600581101561268457836006826005811061262d57fe5b60030201541180159061267357508160000b600019148061267357506006600083900b6005811061265a57fe5b60030201546006826005811061266c57fe5b6003020154115b1561267c578091505b600101612616565b5092915050565b6000606060008061269f876000015161295d565b9250866040015186846040518084805190602001908083835b602083106126d75780518252601f1990920191602091820191016126b8565b51815160209384036101000a600019018019909216911617905286519190930192860191508083835b6020831061271f5780518252601f199092019160209182019101612700565b51815160209384036101000a600019018019909216911617905285519190930192850191508083835b602083106127675780518252601f199092019160209182019101612748565b5181516020939093036101000a6000190180199091169216919091179052604051920182900390912096506127a59450869350899250506128889050565b604080516020808201869052600160a060020a03841692820192909252600160608201819052608080835289519083015288519394507f82063f582a14b0e9c33225c41ae5031b299c0618b69179682ebf5bb716032bd493899387938793929091829160a083019188019080838360005b8381101561282e578181015183820152602001612816565b50505050905090810190601f16801561285b5780820380516001836020036101000a031916815260200191505b509550505050505060405180910390a19695505050505050565b8181018281101561288257fe5b92915050565b600080600080845160411415156128a25760009350612954565b50505060208201516040830151606084015160001a601b60ff821610156128c757601b015b8060ff16601b141580156128df57508060ff16601c14155b156128ed5760009350612954565b60408051600080825260208083018085528a905260ff8516838501526060830187905260808301869052925160019360a0808501949193601f19840193928390039091019190865af1158015612947573d6000803e3d6000fd5b5050506020604051035193505b50505092915050565b60408051603f833b908101601f191682019092528181529080600060208401853c50919050565b8154818355818111156129a8576000838152602090206129a8918101908301612a7f565b505050565b828054600181600116156101000203166002900490600052602060002090601f016020900481019282601f106129ee57805160ff1916838001178555612a1b565b82800160010185558215612a1b579182015b82811115612a1b578251825591602001919060010190612a00565b50612a27929150612a7f565b5090565b6080604051908101604052806000600160a060020a031681526020016060815260200160008152602001600081525090565b6060604051908101604052806000815260200160608152602001600081525090565b61157d91905b80821115612a275760008155600101612a855600a165627a7a72305820288fb58b0b26218b8e2fc67f2352192dfb87a72f99b5cc9250b3de1a68fbf4050029",
  "source": "pragma solidity ^0.4.22;\n\nimport \"./zeppelin/SafeMath.sol\";\nimport \"./zeppelin/ECRecovery.sol\";\nimport \"./utils/GetCode2.sol\";\n\ncontract IERC20 {\n    function balanceOf(address who) public constant returns (uint256);\n\n    function transfer(address to, uint256 value) public returns (bool);\n\n    function allowance(address owner, address spender) public constant returns (uint256);\n\n    function transferFrom(address from, address to, uint256 value) public returns (bool);\n\n    function approve(address spender, uint256 value) public returns (bool);\n\n    event Transfer(address indexed from, address indexed to, uint256 value);\n    event Approval(address indexed owner, address indexed spender, uint256 value);\n}\n\n\ncontract Enigma {\n    using SafeMath for uint256;\n    using ECRecovery for bytes32;\n    uint test_int;\n    uint256 test_seed2;\n    address test_recover_addr;\n    IERC20 public engToken;\n\n    struct Task {\n        address dappContract;\n        string callable;\n        bytes callableArgs;\n        string callback;\n        address worker;\n        bytes sig;\n        uint256 reward;\n        uint256 blockNumber;\n        TaskStatus status;\n    }\n    enum TaskStatus {InProgress, Executed}\n\n    address principal;\n\n    struct Worker {\n        address signer;\n        bytes report; // Decided to store this as one  RLP encoded attribute for easier external storage in the future\n        uint256 balance;\n        uint status; // Uninitialized: 0; Active: 1; Inactive: 2\n    }\n\n    struct WorkersParams {\n        uint256 firstBlockNumber;\n        address[] workerAddresses;\n        uint256 seed;\n    }\n\n    address[] public workerAddresses;\n    WorkersParams[5] workersParams;\n    mapping(address => Worker) public workers;\n    mapping(bytes32 => Task) public tasks;\n\n    event Register(address custodian, address signer, bool _success);\n    event ValidateSig(bytes sig, bytes32 hash, address workerAddr, bool _success);\n    event CommitResults(address dappContract, address worker, bytes sig, uint reward, bool _success);\n    event WorkersParameterized(uint256 seed, address[] workers, bool _success);\n\n    // Enigma computation task\n    event ComputeTask(address indexed dappContract, bytes32 indexed taskId, string callable, bytes callableArgs, string callback, uint256 fee, bytes32[] preprocessors, uint256 blockNumber, bool _success);\n\n    enum ReturnValue {Ok, Error}\n\n    constructor(address _tokenAddress, address _principal) public {\n        engToken = IERC20(_tokenAddress);\n        principal = _principal;\n    }\n\n    modifier workerRegistered(address user) {\n        Worker memory worker = workers[user];\n        require(worker.status > 0, \"Unregistered worker.\");\n        _;\n    }\n    function test(uint a) public returns(uint){\n        test_int = a;\n        return test_int * 10;\n    }\n    function test_view() public view returns (uint){\n        return test_int;\n    }\n    function fake_register1(address signer, bytes report, uint test)\n    public\n    payable\n    returns (uint) {\n        test_int = test;\n        return test;\n    }\n    function fake_register2(address signer, uint test)\n    public\n    payable\n    returns (uint) {\n        test_int = test;\n        return test;\n    }\n    function fake_register3(address signer, uint test)\n    public\n    returns (uint) {\n        test_int = test;\n        return test;\n    }\n    function test_validate_registration(address worker) public view returns(bool){\n        if(workers[msg.sender].status == 1 && workers[msg.sender].signer == worker){\n            return true;\n        }else{\n            return false;\n        }\n    }\n    function register(address signer, bytes report)\n    public\n    payable\n    returns (ReturnValue) {\n        // Register a new worker and deposit stake\n        // TODO: enable before release\n        //        require(workers[msg.sender].status == 0, \"Worker already register.\");\n\n        uint index = workerAddresses.length;\n        workerAddresses.length++;\n        workerAddresses[index] = msg.sender;\n\n        workers[msg.sender].signer = signer;\n        workers[msg.sender].balance = msg.value;\n        workers[msg.sender].report = report;\n        workers[msg.sender].status = 1;\n\n        emit Register(msg.sender, signer, true);\n\n        return ReturnValue.Ok;\n    }\n    \n    function generateTaskId(address dappContract, string callable, bytes callableArgs, uint256 blockNumber)\n    public\n    view\n    returns (bytes32)\n    {\n        // Generates a unique task id\n        bytes32 hash = keccak256(dappContract, callable, callableArgs, blockNumber);\n        return hash;\n    }\n\n    function compute(address dappContract, string callable, bytes callableArgs, string callback, uint256 fee, bytes32[] preprocessors, uint256 blockNumber)\n    public\n    returns (ReturnValue) {\n        // Create a computation task and save the fee in escrow\n        bytes32 taskId = generateTaskId(dappContract, callable, callableArgs, blockNumber);\n        require(tasks[taskId].dappContract == 0x0, \"Task with the same taskId already exist\");\n\n        tasks[taskId].reward = fee;\n        tasks[taskId].callable = callable;\n        tasks[taskId].callableArgs = callableArgs;\n        tasks[taskId].callback = callback;\n        tasks[taskId].status = TaskStatus.InProgress;\n        tasks[taskId].dappContract = dappContract;\n        tasks[taskId].blockNumber = blockNumber;\n\n        // Emit the ComputeTask event which each node is watching for\n        emit ComputeTask(dappContract, taskId, callable, callableArgs, callback, fee, preprocessors, blockNumber, true);\n\n        // Transferring before emitting does not work\n        // TODO: check the allowance first\n        engToken.transferFrom(msg.sender, this, fee);\n\n        return ReturnValue.Ok;\n    }\n\n    function verifyCommitSig(Task task, bytes data, bytes sig)\n    internal\n    constant\n    returns (address) {\n        // Recreating a data hash to validate the signature\n        bytes memory code = GetCode2.at(task.dappContract);\n\n        // Build a hash to validate that the I/Os are matching\n        bytes32 hash = sha3(task.callableArgs, data, code);\n\n        // The worker address is not a real Ethereum wallet address but\n        // one generated from its signing key\n        address workerAddr = hash.recover(sig);\n\n        emit ValidateSig(sig, hash, workerAddr, true);\n        return workerAddr;\n    }\n\n    // copied from GnosisSafe\n    // https://github.com/gnosis/gnosis-safe-contracts/blob/master/contracts/GnosisSafe.sol\n    function executeCall(address to, uint256 value, bytes data) internal returns (bool success) {\n        assembly {\n            success := call(gas, to, value, add(data, 0x20), mload(data), 0, 0)\n        }\n    }\n\n    function commitResults(bytes32 taskId, bytes data, bytes sig, uint256 blockNumber)\n    public\n    workerRegistered(msg.sender)\n    returns (ReturnValue) {\n        // Task must be solved only once\n        require(tasks[taskId].status == TaskStatus.InProgress, \"Illegal status, task must be in progress.\");\n\n        address sigAddr = verifyCommitSig(tasks[taskId], data, sig);\n        require(sigAddr != address(0), \"Cannot verify this signature.\");\n        require(sigAddr == workers[msg.sender].signer, \"Invalid signature.\");\n\n        // The contract must hold enough fund to distribute reward\n        // TODO: validate that the reward matches the opcodes computed\n        uint256 reward = tasks[taskId].reward;\n        require(reward > 0, \"Reward cannot be zero.\");\n\n        // Invoking the callback method of the original contract\n        // TODO: disable for now because the Python tests don't create deals, works with the JS tests\n        //        require(executeCall(secretContract, msg.value, data), \"Unable to invoke the callback\");\n\n        // Keep a trace of the task worker and proof\n        tasks[taskId].worker = msg.sender;\n        tasks[taskId].sig = sig;\n        tasks[taskId].status = TaskStatus.Executed;\n\n        // TODO: send directly to the worker's custodian instead\n        // Put the reward in the worker's bank\n        // He can withdraw later\n        Worker storage worker = workers[msg.sender];\n        worker.balance = worker.balance.add(reward);\n\n        emit CommitResults(tasks[taskId].dappContract, sigAddr, sig, reward, true);\n\n        return ReturnValue.Ok;\n    }\n\n    function verifyParamsSig(uint256 seed, bytes sig)\n    internal\n    constant\n    returns (address) {\n        // Verify the signature submitted while reparameterizing workers\n        bytes32 hash = sha3(seed);\n        address signer = hash.recover(sig);\n        return signer;\n    }\n    function test_recover_addr2() public view returns (address){\n        return test_recover_addr;\n    }\n    function test_seed() public view returns (uint256){\n        return test_seed2;\n    }\n    // function setWorkersParams(uint256 seed, bytes sig)\n    // public\n    // workerRegistered(msg.sender)\n    // returns (ReturnValue) {\n    //     require(workers[msg.sender].signer == principal, \"Only the Principal can update the seed\");\n    //     return ReturnValue.Ok;\n    // }\n    function setWorkersParams(uint256 seed, bytes sig)\n    public\n    workerRegistered(msg.sender)\n    returns (ReturnValue) {\n        // Reparameterizing workers with a new seed\n        // This should be called for each epoch by the Principal node\n\n        // We assume that the Principal is always the first registered node\n        require(workers[msg.sender].signer == principal, \"Only the Principal can update the seed\");\n\n        address sigAddr = verifyParamsSig(seed, sig);\n        // TODO: need a second report for testing the principal\n        // mine \n        test_seed2 = seed;\n        test_recover_addr = sigAddr;\n        // end of mine \n        //require(sigAddr == principal, \"Invalid signature\");\n\n        // Create a new workers parameters item for the specified seed.\n        // The workers parameters list is a sort of cache, it never grows beyond its limit.\n        // If the list is full, the new item will replace the item assigned to the lowest block number.\n        uint ti = 0;\n        for (uint pi = 0; pi < workersParams.length; pi++) {\n            // Find an empty slot in the array, if full use the lowest block number\n            if (workersParams[pi].firstBlockNumber == 0) {\n                ti = pi;\n                break;\n            } else if (workersParams[pi].firstBlockNumber < workersParams[ti].firstBlockNumber) {\n                ti = pi;\n            }\n        }\n        workersParams[ti].firstBlockNumber = block.number;\n        workersParams[ti].seed = seed;\n\n        // Copy the current worker list\n        for (uint wi = 0; wi < workerAddresses.length; wi++) {\n            if (workerAddresses[wi] != 0x0) {\n                workersParams[ti].workerAddresses.length++;\n                workersParams[ti].workerAddresses[wi] = workerAddresses[wi];\n            }\n        }\n        emit WorkersParameterized(seed, workerAddresses, true);\n        return ReturnValue.Ok;\n    }\n\n    function getWorkersParamsIndex(uint256 blockNumber)\n    internal\n    constant\n    returns (int8) {\n        // The workers parameters nearest the specified block number\n        int8 ci = - 1;\n        for (uint i = 0; i < workersParams.length; i++) {\n            if (workersParams[i].firstBlockNumber <= blockNumber && (ci == - 1 || workersParams[i].firstBlockNumber > workersParams[uint(ci)].firstBlockNumber)) {\n                ci = int8(i);\n            }\n        }\n        return ci;\n    }\n\n    function getWorkersParams(uint256 blockNumber)\n    public\n    view\n    returns (uint256, uint256, address[]) {\n        // The workers parameters for a given block number\n        int8 idx = getWorkersParamsIndex(blockNumber);\n        require(idx != - 1, \"No workers parameters entry for specified block number\");\n\n        uint index = uint(idx);\n        WorkersParams memory _workerParams = workersParams[index];\n        address[] memory addrs = filterWorkers(_workerParams.workerAddresses);\n\n        return (_workerParams.firstBlockNumber, _workerParams.seed, addrs);\n    }\n\n    function filterWorkers(address[] addrs)\n    internal\n    constant\n    returns (address[]) {\n        // TODO: I don't know why the list contains empty addresses, investigate\n        uint cpt = 0;\n        for (uint i = 0; i < addrs.length; i++) {\n            if (addrs[i] != 0x0 && workers[addrs[i]].signer != principal) {\n                cpt++;\n            }\n        }\n        address[] memory _workers = new address[](cpt);\n        uint cur = 0;\n        for (uint iw = 0; iw < addrs.length; iw++) {\n            if (addrs[iw] != 0x0 && workers[addrs[iw]].signer != principal) {\n                _workers[cur] = addrs[iw];\n                cur++;\n            }\n        }\n        return _workers;\n    }\n\n    function selectWorker(uint256 blockNumber, bytes32 taskId)\n    public\n    view\n    returns (address) {\n        // Apply pseudo-randomness to discover the selected worker for the specified task\n        (uint256 b, uint256 seed, address[] memory workers) = getWorkersParams(blockNumber);\n        address[] memory _workers = filterWorkers(workers);\n\n        bytes32 hash = keccak256(seed, taskId);\n        uint256 index = uint256(hash) % _workers.length;\n        return _workers[index];\n    }\n\n    function getReport(address custodian)\n    public\n    view\n    workerRegistered(custodian)\n    returns (address, bytes) {\n        // The RLP encoded report and signer's address for the specified worker\n        require(workers[custodian].signer != 0x0, \"Worker not registered\");\n        return (workers[custodian].signer, workers[custodian].report);\n    }\n}\n",
  "sourcePath": "/home/wildermind/rust-sgx/enigma-contract/contracts/Enigma.sol",
  "compiler": {
    "name": "solc",
    "version": "0.4.24+commit.e67f0147.Emscripten.clang"
  },
  "schemaVersion": "2.0.0",
  "updatedAt": "2018-07-16T12:38:57.830Z"
}