{
  "contractName": "Enigma",
  "abi": [
    {
      "constant": true,
      "inputs": [
        {
          "name": "_scAddr",
          "type": "bytes32"
        }
      ],
      "name": "getSecretContract",
      "outputs": [
        {
          "components": [
            {
              "name": "owner",
              "type": "address"
            },
            {
              "name": "preCodeHash",
              "type": "bytes32"
            },
            {
              "name": "codeHash",
              "type": "bytes32"
            },
            {
              "name": "stateDeltaHashes",
              "type": "bytes32[]"
            },
            {
              "name": "outputHash",
              "type": "bytes32"
            },
            {
              "name": "status",
              "type": "uint8"
            }
          ],
          "name": "",
          "type": "tuple"
        }
      ],
      "payable": false,
      "stateMutability": "view",
      "type": "function",
      "signature": "0x7624281e"
    },
    {
      "constant": true,
      "inputs": [
        {
          "name": "_taskId",
          "type": "bytes32"
        }
      ],
      "name": "getTaskRecord",
      "outputs": [
        {
          "components": [
            {
              "name": "inputsHash",
              "type": "bytes32"
            },
            {
              "name": "gasLimit",
              "type": "uint256"
            },
            {
              "name": "gasPx",
              "type": "uint256"
            },
            {
              "name": "proof",
              "type": "bytes"
            },
            {
              "name": "sender",
              "type": "address"
            },
            {
              "name": "blockNumber",
              "type": "uint256"
            },
            {
              "name": "status",
              "type": "uint8"
            }
          ],
          "name": "",
          "type": "tuple"
        }
      ],
      "payable": false,
      "stateMutability": "view",
      "type": "function",
      "signature": "0x8ed05737"
    },
    {
      "constant": true,
      "inputs": [
        {
          "name": "_worker",
          "type": "address"
        }
      ],
      "name": "getWorker",
      "outputs": [
        {
          "components": [
            {
              "name": "signer",
              "type": "address"
            },
            {
              "name": "status",
              "type": "uint8"
            },
            {
              "name": "statusUpdateBlockNumber",
              "type": "uint256"
            },
            {
              "name": "report",
              "type": "bytes"
            },
            {
              "name": "balance",
              "type": "uint256"
            },
            {
              "name": "stake",
              "type": "uint256"
            }
          ],
          "name": "",
          "type": "tuple"
        }
      ],
      "payable": false,
      "stateMutability": "view",
      "type": "function",
      "signature": "0xc011b1c3"
    },
    {
      "constant": true,
      "inputs": [],
      "name": "getEpochSize",
      "outputs": [
        {
          "name": "",
          "type": "uint256"
        }
      ],
      "payable": false,
      "stateMutability": "view",
      "type": "function",
      "signature": "0xdf4da461"
    },
    {
      "constant": true,
      "inputs": [
        {
          "name": "_sender",
          "type": "address"
        }
      ],
      "name": "getUserTaskDeployments",
      "outputs": [
        {
          "name": "",
          "type": "uint256"
        }
      ],
      "payable": false,
      "stateMutability": "view",
      "type": "function",
      "signature": "0xf9a9b7ae"
    },
    {
      "inputs": [
        {
          "name": "_tokenAddress",
          "type": "address"
        },
        {
          "name": "_principal",
          "type": "address"
        }
      ],
      "payable": false,
      "stateMutability": "nonpayable",
      "type": "constructor",
      "signature": "constructor"
    },
    {
      "anonymous": false,
      "inputs": [
        {
          "indexed": false,
          "name": "custodian",
          "type": "address"
        },
        {
          "indexed": false,
          "name": "signer",
          "type": "address"
        }
      ],
      "name": "Registered",
      "type": "event",
      "signature": "0x0a31ee9d46a828884b81003c8498156ea6aa15b9b54bdd0ef0b533d9eba57e55"
    },
    {
      "anonymous": false,
      "inputs": [
        {
          "indexed": false,
          "name": "sig",
          "type": "bytes"
        },
        {
          "indexed": false,
          "name": "hash",
          "type": "bytes32"
        },
        {
          "indexed": false,
          "name": "workerAddr",
          "type": "address"
        }
      ],
      "name": "ValidatedSig",
      "type": "event",
      "signature": "0xe36691ca52ee024e298e5c0ff07191b87f0ac571c01a7631db2d70d573d955cb"
    },
    {
      "anonymous": false,
      "inputs": [
        {
          "indexed": false,
          "name": "seed",
          "type": "uint256"
        },
        {
          "indexed": false,
          "name": "firstBlockNumber",
          "type": "uint256"
        },
        {
          "indexed": false,
          "name": "inclusionBlockNumber",
          "type": "uint256"
        },
        {
          "indexed": false,
          "name": "workers",
          "type": "address[]"
        },
        {
          "indexed": false,
          "name": "stakes",
          "type": "uint256[]"
        },
        {
          "indexed": false,
          "name": "nonce",
          "type": "uint256"
        }
      ],
      "name": "WorkersParameterized",
      "type": "event",
      "signature": "0x4ac4fa4588e2c6fdaec0f375ac3b33fab7b69895fbb538347f8adb03164c5ddd"
    },
    {
      "anonymous": false,
      "inputs": [
        {
          "indexed": false,
          "name": "taskId",
          "type": "bytes32"
        },
        {
          "indexed": false,
          "name": "inputsHash",
          "type": "bytes32"
        },
        {
          "indexed": false,
          "name": "gasLimit",
          "type": "uint256"
        },
        {
          "indexed": false,
          "name": "gasPx",
          "type": "uint256"
        },
        {
          "indexed": false,
          "name": "sender",
          "type": "address"
        },
        {
          "indexed": false,
          "name": "blockNumber",
          "type": "uint256"
        }
      ],
      "name": "TaskRecordCreated",
      "type": "event",
      "signature": "0x78987cf84223c792255f8e28ed70431315c014e8c10a614a6d915ee9ec1c01f7"
    },
    {
      "anonymous": false,
      "inputs": [
        {
          "indexed": false,
          "name": "taskIds",
          "type": "bytes32[]"
        },
        {
          "indexed": false,
          "name": "inputsHashes",
          "type": "bytes32[]"
        },
        {
          "indexed": false,
          "name": "gasLimits",
          "type": "uint256[]"
        },
        {
          "indexed": false,
          "name": "gasPxs",
          "type": "uint256[]"
        },
        {
          "indexed": false,
          "name": "sender",
          "type": "address"
        },
        {
          "indexed": false,
          "name": "blockNumber",
          "type": "uint256"
        }
      ],
      "name": "TaskRecordsCreated",
      "type": "event",
      "signature": "0xdfac019078ab963c0398db3d1bf93d6a114ff12e130f939803db275bd24252c7"
    },
    {
      "anonymous": false,
      "inputs": [
        {
          "indexed": false,
          "name": "taskId",
          "type": "bytes32"
        },
        {
          "indexed": false,
          "name": "stateDeltaHash",
          "type": "bytes32"
        },
        {
          "indexed": false,
          "name": "outputHash",
          "type": "bytes32"
        },
        {
          "indexed": false,
          "name": "optionalEthereumData",
          "type": "bytes"
        },
        {
          "indexed": false,
          "name": "optionalEthereumContractAddress",
          "type": "address"
        },
        {
          "indexed": false,
          "name": "sig",
          "type": "bytes"
        }
      ],
      "name": "ReceiptVerified",
      "type": "event",
      "signature": "0x62246183a7e6efb525911ef7b1db82280929a66e95fb4f4998cd157bfd15fdc5"
    },
    {
      "anonymous": false,
      "inputs": [
        {
          "indexed": false,
          "name": "taskIds",
          "type": "bytes32[]"
        },
        {
          "indexed": false,
          "name": "stateDeltaHashes",
          "type": "bytes32[]"
        },
        {
          "indexed": false,
          "name": "outputHash",
          "type": "bytes32"
        },
        {
          "indexed": false,
          "name": "optionalEthereumData",
          "type": "bytes"
        },
        {
          "indexed": false,
          "name": "optionalEthereumContractAddress",
          "type": "address"
        },
        {
          "indexed": false,
          "name": "sig",
          "type": "bytes"
        }
      ],
      "name": "ReceiptsVerified",
      "type": "event",
      "signature": "0xc7dbe1741f5b8533547b2129193e677cd4ee275c5c2a6f7505fdd30c354ba914"
    },
    {
      "anonymous": false,
      "inputs": [
        {
          "indexed": false,
          "name": "taskId",
          "type": "bytes32"
        },
        {
          "indexed": false,
          "name": "sig",
          "type": "bytes"
        }
      ],
      "name": "ReceiptFailed",
      "type": "event",
      "signature": "0xb6fea360017e3af252ed4596a124395e73b6a74663655ec09faab58171302454"
    },
    {
      "anonymous": false,
      "inputs": [
        {
          "indexed": false,
          "name": "taskId",
          "type": "bytes32"
        }
      ],
      "name": "TaskFeeReturned",
      "type": "event",
      "signature": "0x8f86891ac4edccb13a0629ba04c2b3c434909504438dda249003b4fd85752d1f"
    },
    {
      "anonymous": false,
      "inputs": [
        {
          "indexed": false,
          "name": "from",
          "type": "address"
        },
        {
          "indexed": false,
          "name": "value",
          "type": "uint256"
        }
      ],
      "name": "DepositSuccessful",
      "type": "event",
      "signature": "0xb3ef81558ed1a50072a492984535a009da8b129c749500b387f1e5f4886bdde5"
    },
    {
      "anonymous": false,
      "inputs": [
        {
          "indexed": false,
          "name": "to",
          "type": "address"
        },
        {
          "indexed": false,
          "name": "value",
          "type": "uint256"
        }
      ],
      "name": "WithdrawSuccessful",
      "type": "event",
      "signature": "0x84e742a3ea03623687a5febaa797636d728230721d4b3d1405d19fbbc16298d9"
    },
    {
      "anonymous": false,
      "inputs": [
        {
          "indexed": false,
          "name": "scAddr",
          "type": "bytes32"
        },
        {
          "indexed": false,
          "name": "codeHash",
          "type": "bytes32"
        },
        {
          "indexed": false,
          "name": "initStateDeltaHash",
          "type": "bytes32"
        }
      ],
      "name": "SecretContractDeployed",
      "type": "event",
      "signature": "0x696a24a4e9187ea71b374178e4c33d07aabcafd87013f7d48010104de5f73158"
    },
    {
      "constant": false,
      "inputs": [
        {
          "name": "_signer",
          "type": "address"
        },
        {
          "name": "_report",
          "type": "bytes"
        },
        {
          "name": "_signature",
          "type": "bytes"
        }
      ],
      "name": "register",
      "outputs": [],
      "payable": false,
      "stateMutability": "nonpayable",
      "type": "function",
      "signature": "0x786cd4d7"
    },
    {
      "constant": false,
      "inputs": [
        {
          "name": "_custodian",
          "type": "address"
        },
        {
          "name": "_amount",
          "type": "uint256"
        }
      ],
      "name": "deposit",
      "outputs": [],
      "payable": false,
      "stateMutability": "nonpayable",
      "type": "function",
      "signature": "0x47e7ef24"
    },
    {
      "constant": false,
      "inputs": [
        {
          "name": "_custodian",
          "type": "address"
        },
        {
          "name": "_amount",
          "type": "uint256"
        }
      ],
      "name": "withdraw",
      "outputs": [],
      "payable": false,
      "stateMutability": "nonpayable",
      "type": "function",
      "signature": "0xf3fef3a3"
    },
    {
      "constant": false,
      "inputs": [],
      "name": "login",
      "outputs": [],
      "payable": false,
      "stateMutability": "nonpayable",
      "type": "function",
      "signature": "0xb34e97e8"
    },
    {
      "constant": false,
      "inputs": [],
      "name": "logout",
      "outputs": [],
      "payable": false,
      "stateMutability": "nonpayable",
      "type": "function",
      "signature": "0x1f3c99c3"
    },
    {
      "constant": false,
      "inputs": [
        {
          "name": "_taskId",
          "type": "bytes32"
        },
        {
          "name": "_gasUsed",
          "type": "uint256"
        },
        {
          "name": "_sig",
          "type": "bytes"
        }
      ],
      "name": "deploySecretContractFailure",
      "outputs": [],
      "payable": false,
      "stateMutability": "nonpayable",
      "type": "function",
      "signature": "0xe9dbdee6"
    },
    {
      "constant": false,
      "inputs": [
        {
          "name": "_taskId",
          "type": "bytes32"
        },
        {
          "name": "_preCodeHash",
          "type": "bytes32"
        },
        {
          "name": "_codeHash",
          "type": "bytes32"
        },
        {
          "name": "_initStateDeltaHash",
          "type": "bytes32"
        },
        {
          "name": "_optionalEthereumData",
          "type": "bytes"
        },
        {
          "name": "_optionalEthereumContractAddress",
          "type": "address"
        },
        {
          "name": "_gasUsed",
          "type": "uint256"
        },
        {
          "name": "_sig",
          "type": "bytes"
        }
      ],
      "name": "deploySecretContract",
      "outputs": [],
      "payable": false,
      "stateMutability": "nonpayable",
      "type": "function",
      "signature": "0x9609feeb"
    },
    {
      "constant": true,
      "inputs": [
        {
          "name": "_scAddr",
          "type": "bytes32"
        }
      ],
      "name": "isDeployed",
      "outputs": [
        {
          "name": "",
          "type": "bool"
        }
      ],
      "payable": false,
      "stateMutability": "view",
      "type": "function",
      "signature": "0x74c0ff4f"
    },
    {
      "constant": true,
      "inputs": [],
      "name": "countSecretContracts",
      "outputs": [
        {
          "name": "",
          "type": "uint256"
        }
      ],
      "payable": false,
      "stateMutability": "view",
      "type": "function",
      "signature": "0x75bbf75b"
    },
    {
      "constant": true,
      "inputs": [
        {
          "name": "_start",
          "type": "uint256"
        },
        {
          "name": "_stop",
          "type": "uint256"
        }
      ],
      "name": "getSecretContractAddresses",
      "outputs": [
        {
          "name": "",
          "type": "bytes32[]"
        }
      ],
      "payable": false,
      "stateMutability": "view",
      "type": "function",
      "signature": "0x8e055b8b"
    },
    {
      "constant": true,
      "inputs": [
        {
          "name": "_scAddr",
          "type": "bytes32"
        }
      ],
      "name": "countStateDeltas",
      "outputs": [
        {
          "name": "",
          "type": "uint256"
        }
      ],
      "payable": false,
      "stateMutability": "view",
      "type": "function",
      "signature": "0xc41bfb03"
    },
    {
      "constant": true,
      "inputs": [
        {
          "name": "_scAddr",
          "type": "bytes32"
        },
        {
          "name": "_index",
          "type": "uint256"
        }
      ],
      "name": "getStateDeltaHash",
      "outputs": [
        {
          "name": "",
          "type": "bytes32"
        }
      ],
      "payable": false,
      "stateMutability": "view",
      "type": "function",
      "signature": "0x28aa1aaa"
    },
    {
      "constant": true,
      "inputs": [
        {
          "name": "_scAddr",
          "type": "bytes32"
        },
        {
          "name": "_start",
          "type": "uint256"
        },
        {
          "name": "_stop",
          "type": "uint256"
        }
      ],
      "name": "getStateDeltaHashes",
      "outputs": [
        {
          "name": "",
          "type": "bytes32[]"
        }
      ],
      "payable": false,
      "stateMutability": "view",
      "type": "function",
      "signature": "0xd1dfd95e"
    },
    {
      "constant": true,
      "inputs": [
        {
          "name": "_scAddr",
          "type": "bytes32"
        },
        {
          "name": "_stateDeltaHash",
          "type": "bytes32"
        }
      ],
      "name": "isValidDeltaHash",
      "outputs": [
        {
          "name": "",
          "type": "bool"
        }
      ],
      "payable": false,
      "stateMutability": "view",
      "type": "function",
      "signature": "0xccfae218"
    },
    {
      "constant": false,
      "inputs": [
        {
          "name": "_inputsHash",
          "type": "bytes32"
        },
        {
          "name": "_gasLimit",
          "type": "uint256"
        },
        {
          "name": "_gasPx",
          "type": "uint256"
        },
        {
          "name": "_firstBlockNumber",
          "type": "uint256"
        },
        {
          "name": "_nonce",
          "type": "uint256"
        }
      ],
      "name": "createDeploymentTaskRecord",
      "outputs": [],
      "payable": false,
      "stateMutability": "nonpayable",
      "type": "function",
      "signature": "0x02e15a91"
    },
    {
      "constant": false,
      "inputs": [
        {
          "name": "_inputsHash",
          "type": "bytes32"
        },
        {
          "name": "_gasLimit",
          "type": "uint256"
        },
        {
          "name": "_gasPx",
          "type": "uint256"
        },
        {
          "name": "_firstBlockNumber",
          "type": "uint256"
        }
      ],
      "name": "createTaskRecord",
      "outputs": [],
      "payable": false,
      "stateMutability": "nonpayable",
      "type": "function",
      "signature": "0x167e54b7"
    },
    {
      "constant": false,
      "inputs": [
        {
          "name": "_inputsHashes",
          "type": "bytes32[]"
        },
        {
          "name": "_gasLimits",
          "type": "uint256[]"
        },
        {
          "name": "_gasPxs",
          "type": "uint256[]"
        },
        {
          "name": "_firstBlockNumber",
          "type": "uint256"
        }
      ],
      "name": "createTaskRecords",
      "outputs": [],
      "payable": false,
      "stateMutability": "nonpayable",
      "type": "function",
      "signature": "0x10851876"
    },
    {
      "constant": false,
      "inputs": [
        {
          "name": "_scAddr",
          "type": "bytes32"
        },
        {
          "name": "_taskId",
          "type": "bytes32"
        },
        {
          "name": "_stateDeltaHash",
          "type": "bytes32"
        },
        {
          "name": "_outputHash",
          "type": "bytes32"
        },
        {
          "name": "_optionalEthereumData",
          "type": "bytes"
        },
        {
          "name": "_optionalEthereumContractAddress",
          "type": "address"
        },
        {
          "name": "_gasUsed",
          "type": "uint256"
        },
        {
          "name": "_sig",
          "type": "bytes"
        }
      ],
      "name": "commitReceipt",
      "outputs": [],
      "payable": false,
      "stateMutability": "nonpayable",
      "type": "function",
      "signature": "0x3d8063a5"
    },
    {
      "constant": false,
      "inputs": [
        {
          "name": "_scAddr",
          "type": "bytes32"
        },
        {
          "name": "_taskIds",
          "type": "bytes32[]"
        },
        {
          "name": "_stateDeltaHashes",
          "type": "bytes32[]"
        },
        {
          "name": "_outputHash",
          "type": "bytes32"
        },
        {
          "name": "_optionalEthereumData",
          "type": "bytes"
        },
        {
          "name": "_optionalEthereumContractAddress",
          "type": "address"
        },
        {
          "name": "_gasesUsed",
          "type": "uint256[]"
        },
        {
          "name": "_sig",
          "type": "bytes"
        }
      ],
      "name": "commitReceipts",
      "outputs": [],
      "payable": false,
      "stateMutability": "nonpayable",
      "type": "function",
      "signature": "0x72b0b85c"
    },
    {
      "constant": false,
      "inputs": [
        {
          "name": "_scAddr",
          "type": "bytes32"
        },
        {
          "name": "_taskId",
          "type": "bytes32"
        },
        {
          "name": "_gasUsed",
          "type": "uint256"
        },
        {
          "name": "_sig",
          "type": "bytes"
        }
      ],
      "name": "commitTaskFailure",
      "outputs": [],
      "payable": false,
      "stateMutability": "nonpayable",
      "type": "function",
      "signature": "0xde22c646"
    },
    {
      "constant": false,
      "inputs": [
        {
          "name": "_blockNumber",
          "type": "uint256"
        },
        {
          "name": "_seed",
          "type": "uint256"
        },
        {
          "name": "_sig",
          "type": "bytes"
        }
      ],
      "name": "setWorkersParams",
      "outputs": [],
      "payable": false,
      "stateMutability": "nonpayable",
      "type": "function",
      "signature": "0x50946a9f"
    },
    {
      "constant": true,
      "inputs": [
        {
          "name": "_blockNumber",
          "type": "uint256"
        }
      ],
      "name": "getActiveWorkers",
      "outputs": [
        {
          "name": "",
          "type": "address[]"
        },
        {
          "name": "",
          "type": "uint256[]"
        }
      ],
      "payable": false,
      "stateMutability": "view",
      "type": "function",
      "signature": "0x16f9a2a4"
    },
    {
      "constant": true,
      "inputs": [
        {
          "name": "_blockNumber",
          "type": "uint256"
        }
      ],
      "name": "getFirstBlockNumber",
      "outputs": [
        {
          "name": "",
          "type": "uint256"
        }
      ],
      "payable": false,
      "stateMutability": "view",
      "type": "function",
      "signature": "0xcbbc061d"
    },
    {
      "constant": true,
      "inputs": [
        {
          "name": "_blockNumber",
          "type": "uint256"
        }
      ],
      "name": "getWorkerParams",
      "outputs": [
        {
          "name": "",
          "type": "uint256"
        },
        {
          "name": "",
          "type": "uint256"
        },
        {
          "name": "",
          "type": "address[]"
        },
        {
          "name": "",
          "type": "uint256[]"
        }
      ],
      "payable": false,
      "stateMutability": "view",
      "type": "function",
      "signature": "0x9836ca31"
    },
    {
      "constant": true,
      "inputs": [
        {
          "name": "_blockNumber",
          "type": "uint256"
        },
        {
          "name": "_scAddr",
          "type": "bytes32"
        }
      ],
      "name": "getWorkerGroup",
      "outputs": [
        {
          "name": "",
          "type": "address[]"
        }
      ],
      "payable": false,
      "stateMutability": "view",
      "type": "function",
      "signature": "0x1d40ff0b"
    },
    {
      "constant": true,
      "inputs": [
        {
          "name": "_custodian",
          "type": "address"
        }
      ],
      "name": "getReport",
      "outputs": [
        {
          "name": "",
          "type": "address"
        },
        {
          "name": "",
          "type": "bytes"
        }
      ],
      "payable": false,
      "stateMutability": "view",
      "type": "function",
      "signature": "0xa3bdae3e"
    },
    {
      "constant": true,
      "inputs": [
        {
          "name": "_data",
          "type": "bytes"
        },
        {
          "name": "_signature",
          "type": "bytes"
        }
      ],
      "name": "verifyReport",
      "outputs": [
        {
          "name": "",
          "type": "uint256"
        }
      ],
      "payable": false,
      "stateMutability": "view",
      "type": "function",
      "signature": "0xb5c14992"
    }
  ],
  "bytecode": "0x60806040523480156200001157600080fd5b506040516040806200437b833981018060405262000033919081019062000092565b60008054600160a060020a0319908116600160a060020a0394851617909155600a600190815560c860025560038054909216929093169190911790556023556005602455620000f0565b60006200008b8251620000dd565b9392505050565b60008060408385031215620000a657600080fd5b6000620000b485856200007d565b9250506020620000c7858286016200007d565b9150509250929050565b600160a060020a031690565b6000620000ea82620000d1565b92915050565b61427b80620001006000396000f3fe6080604052600436106101955763ffffffff7c010000000000000000000000000000000000000000000000000000000060003504166302e15a91811461019a57806310851876146101bc578063167e54b7146101dc57806316f9a2a4146101fc5780631d40ff0b146102335780631f3c99c31461026057806328aa1aaa146102755780633d8063a5146102a257806347e7ef24146102c257806350946a9f146102e257806372b0b85c1461030257806374c0ff4f1461032257806375bbf75b1461034f5780637624281e14610364578063786cd4d7146103915780638e055b8b146103b15780638ed05737146103de5780639609feeb1461040b5780639836ca311461042b578063a3bdae3e1461045b578063b34e97e814610489578063b5c149921461049e578063c011b1c3146104be578063c41bfb03146104eb578063cbbc061d1461050b578063ccfae2181461052b578063d1dfd95e1461054b578063de22c6461461056b578063df4da4611461058b578063e9dbdee6146105a0578063f3fef3a3146105c0578063f9a9b7ae146105e0575b600080fd5b3480156101a657600080fd5b506101ba6101b53660046134b5565b610600565b005b3480156101c857600080fd5b506101ba6101d736600461309f565b610692565b3480156101e857600080fd5b506101ba6101f7366004613471565b610721565b34801561020857600080fd5b5061021c610217366004613165565b61077a565b60405161022a929190613c07565b60405180910390f35b34801561023f57600080fd5b5061025361024e3660046132c9565b61098e565b60405161022a9190613bf6565b34801561026c57600080fd5b506101ba610a43565b34801561028157600080fd5b506102956102903660046132c9565b610c1d565b60405161022a9190613c4b565b3480156102ae57600080fd5b506101ba6102bd3660046132e8565b610d0f565b3480156102ce57600080fd5b506101ba6102dd366004612fa6565b610f45565b3480156102ee57600080fd5b506101ba6102fd3660046133fc565b6110f0565b34801561030e57600080fd5b506101ba61031d3660046131a1565b61129d565b34801561032e57600080fd5b5061034261033d366004613165565b611496565b60405161022a9190613c3d565b34801561035b57600080fd5b5061029561153b565b34801561037057600080fd5b5061038461037f366004613165565b6115e3565b60405161022a9190613cfe565b34801561039d57600080fd5b506101ba6103ac366004612f29565b6116b2565b3480156103bd57600080fd5b506103d16103cc3660046132c9565b61173e565b60405161022a9190613c2c565b3480156103ea57600080fd5b506103fe6103f9366004613165565b6117ea565b60405161022a91906140b6565b34801561041757600080fd5b506101ba6104263660046132e8565b6118f5565b34801561043757600080fd5b5061044b610446366004613165565b611aed565b60405161022a94939291906140d8565b34801561046757600080fd5b5061047b610476366004612eb9565b611bac565b60405161022a929190613bd6565b34801561049557600080fd5b506101ba611dad565b3480156104aa57600080fd5b506102956104b936600461352a565b611fa5565b3480156104ca57600080fd5b506104de6104d9366004612eb9565b61204a565b60405161022a91906140c7565b3480156104f757600080fd5b50610295610506366004613165565b612170565b34801561051757600080fd5b50610295610526366004613165565b61225f565b34801561053757600080fd5b506103426105463660046132c9565b612304565b34801561055757600080fd5b506103d161056636600461342e565b6123ee565b34801561057757600080fd5b506101ba61058636600461338f565b6124e7565b34801561059757600080fd5b50610295612711565b3480156105ac57600080fd5b506101ba6105bb3660046133fc565b612717565b3480156105cc57600080fd5b506101ba6105db366004612fa6565b61293d565b3480156105ec57600080fd5b506102956105fb366004612eb9565b612ae7565b6040517ff37f394500000000000000000000000000000000000000000000000000000000815273__TaskImpl______________________________9063f37f39459061065b9060009089908990899089908990600401614067565b60006040518083038186803b15801561067357600080fd5b505af4158015610687573d6000803e3d6000fd5b505050505050505050565b6040517feeb3ea8f00000000000000000000000000000000000000000000000000000000815273__TaskImpl______________________________9063eeb3ea8f906106eb906000908890889088908890600401613dab565b60006040518083038186803b15801561070357600080fd5b505af4158015610717573d6000803e3d6000fd5b5050505050505050565b6040517f27731d8100000000000000000000000000000000000000000000000000000000815273__TaskImpl______________________________906327731d81906106eb906000908890889088908890600401614025565b60608033610786612b02565b600160a060020a038281166000908152601f6020908152604091829020825160c081019093528054938416835291929083019060a060020a900460ff1660028111156107ce57fe5b60028111156107d957fe5b815260200160018201548152602001600282018054600181600116156101000203166002900480601f0160208091040260200160405190810160405280929190818152602001828054600181600116156101000203166002900480156108805780601f1061085557610100808354040283529160200191610880565b820191906000526020600020905b81548152906001019060200180831161086357829003601f168201915b50505091835250506003820154602082015260049091015460409091015290506000816020015160028111156108b257fe5b14156108dc5760405160e560020a62461bcd0281526004016108d390613cbe565b60405180910390fd5b6040517feacba65300000000000000000000000000000000000000000000000000000000815273__PrincipalImpl_________________________9063eacba6539061092f906000908990600401613e02565b60006040518083038186803b15801561094757600080fd5b505af415801561095b573d6000803e3d6000fd5b505050506040513d6000823e601f3d908101601f19168201604052610983919081019061300b565b935093505050915091565b6040517fbbd5bf7a00000000000000000000000000000000000000000000000000000000815260609073__WorkersImpl___________________________9063bbd5bf7a906109e69060009087908790600401613ec5565b60006040518083038186803b1580156109fe57600080fd5b505af4158015610a12573d6000803e3d6000fd5b505050506040513d6000823e601f3d908101601f19168201604052610a3a9190810190612fd6565b90505b92915050565b33610a4c612b02565b600160a060020a038281166000908152601f6020908152604091829020825160c081019093528054938416835291929083019060a060020a900460ff166002811115610a9457fe5b6002811115610a9f57fe5b815260200160018201548152602001600282018054600181600116156101000203166002900480601f016020809104026020016040519081016040528092919081815260200182805460018160011615610100020316600290048015610b465780601f10610b1b57610100808354040283529160200191610b46565b820191906000526020600020905b815481529060010190602001808311610b2957829003601f168201915b5050509183525050600382015460208201526004909101546040909101529050600181602001516002811115610b7857fe5b14610b985760405160e560020a62461bcd0281526004016108d390613cae565b6040517f49e44f4900000000000000000000000000000000000000000000000000000000815273__WorkersImpl___________________________906349e44f4990610be990600090600401613d0f565b60006040518083038186803b158015610c0157600080fd5b505af4158015610c15573d6000803e3d6000fd5b505050505050565b600082600160008281526021602052604090206005015460ff166001811115610c4257fe5b14610c625760405160e560020a62461bcd0281526004016108d390613c8e565b6040517f1e61849d00000000000000000000000000000000000000000000000000000000815273__SecretContractImpl____________________90631e61849d90610cb79060009088908890600401613ec5565b60206040518083038186803b158015610ccf57600080fd5b505af4158015610ce3573d6000803e3d6000fd5b505050506040513d601f19601f82011682018060405250610d079190810190613183565b949350505050565b33610d18612b02565b600160a060020a038281166000908152601f6020908152604091829020825160c081019093528054938416835291929083019060a060020a900460ff166002811115610d6057fe5b6002811115610d6b57fe5b815260200160018201548152602001600282018054600181600116156101000203166002900480601f016020809104026020016040519081016040528092919081815260200182805460018160011615610100020316600290048015610e125780601f10610de757610100808354040283529160200191610e12565b820191906000526020600020905b815481529060010190602001808311610df557829003601f168201915b5050509183525050600382015460208201526004909101546040909101529050600181602001516002811115610e4457fe5b14610e645760405160e560020a62461bcd0281526004016108d390613cae565b89600160008281526021602052604090206005015460ff166001811115610e8757fe5b14610ea75760405160e560020a62461bcd0281526004016108d390613c8e565b6040517f066b136d00000000000000000000000000000000000000000000000000000000815273__TaskImpl______________________________9063066b136d90610f08906000908f908f908f908f908f908f908f908f90600401613ee0565b60006040518083038186803b158015610f2057600080fd5b505af4158015610f34573d6000803e3d6000fd5b505050505050505050505050505050565b81610f4e612b02565b600160a060020a038281166000908152601f6020908152604091829020825160c081019093528054938416835291929083019060a060020a900460ff166002811115610f9657fe5b6002811115610fa157fe5b815260200160018201548152602001600282018054600181600116156101000203166002900480601f0160208091040260200160405190810160405280929190818152602001828054600181600116156101000203166002900480156110485780601f1061101d57610100808354040283529160200191611048565b820191906000526020600020905b81548152906001019060200180831161102b57829003601f168201915b505050918352505060038201546020820152600490910154604090910152905060008160200151600281111561107a57fe5b141561109b5760405160e560020a62461bcd0281526004016108d390613cbe565b6040517f3a0120c400000000000000000000000000000000000000000000000000000000815273__WorkersImpl___________________________90633a0120c4906106eb9060009088908890600401613d83565b336110f9612b02565b600160a060020a038281166000908152601f6020908152604091829020825160c081019093528054938416835291929083019060a060020a900460ff16600281111561114157fe5b600281111561114c57fe5b815260200160018201548152602001600282018054600181600116156101000203166002900480601f0160208091040260200160405190810160405280929190818152602001828054600181600116156101000203166002900480156111f35780601f106111c8576101008083540402835291602001916111f3565b820191906000526020600020905b8154815290600101906020018083116111d657829003601f168201915b505050918352505060038201546020820152600490910154604090910152905060008160200151600281111561122557fe5b14156112465760405160e560020a62461bcd0281526004016108d390613cbe565b6040517fc2743b1800000000000000000000000000000000000000000000000000000000815273__PrincipalImpl_________________________9063c2743b189061065b90600090899089908990600401613fb6565b336112a6612b02565b600160a060020a038281166000908152601f6020908152604091829020825160c081019093528054938416835291929083019060a060020a900460ff1660028111156112ee57fe5b60028111156112f957fe5b815260200160018201548152602001600282018054600181600116156101000203166002900480601f0160208091040260200160405190810160405280929190818152602001828054600181600116156101000203166002900480156113a05780601f10611375576101008083540402835291602001916113a0565b820191906000526020600020905b81548152906001019060200180831161138357829003601f168201915b50505091835250506003820154602082015260049091015460409091015290506001816020015160028111156113d257fe5b146113f25760405160e560020a62461bcd0281526004016108d390613cae565b89600160008281526021602052604090206005015460ff16600181111561141557fe5b146114355760405160e560020a62461bcd0281526004016108d390613c8e565b6040517fe535016f00000000000000000000000000000000000000000000000000000000815273__TaskImpl______________________________9063e535016f90610f08906000908f908f908f908f908f908f908f908f90600401613e1d565b6040517f24a6c70600000000000000000000000000000000000000000000000000000000815260009073__SecretContractImpl____________________906324a6c706906114eb9084908690600401613e02565b60206040518083038186803b15801561150357600080fd5b505af4158015611517573d6000803e3d6000fd5b505050506040513d601f19601f82011682018060405250610a3d9190810190613147565b6040517f056a338600000000000000000000000000000000000000000000000000000000815260009073__SecretContractImpl____________________9063056a33869061158e908490600401613d0f565b60206040518083038186803b1580156115a657600080fd5b505af41580156115ba573d6000803e3d6000fd5b505050506040513d601f19601f820116820180604052506115de9190810190613183565b905090565b6115eb612b39565b600082815260216020908152604091829020825160c0810184528154600160a060020a03168152600182015481840152600282015481850152600382018054855181860281018601909652808652919492936060860193929083018282801561167357602002820191906000526020600020905b81548152602001906001019080831161165f575b505050918352505060048201546020820152600582015460409091019060ff16600181111561169e57fe5b60018111156116a957fe5b90525092915050565b6040517fc7d11e2000000000000000000000000000000000000000000000000000000000815273__WorkersImpl___________________________9063c7d11e209061170990600090879087908790600401613d38565b60006040518083038186803b15801561172157600080fd5b505af4158015611735573d6000803e3d6000fd5b50505050505050565b6040517fe5a2600900000000000000000000000000000000000000000000000000000000815260609073__SecretContractImpl____________________9063e5a26009906117969060009087908790600401613ec5565b60006040518083038186803b1580156117ae57600080fd5b505af41580156117c2573d6000803e3d6000fd5b505050506040513d6000823e601f3d908101601f19168201604052610a3a919081019061306a565b6117f2612b6e565b60008281526020808052604091829020825160e08101845281548152600180830154828501526002808401548387015260038401805487519381161561010002600019011691909104601f8101869004860283018601909652858252919492936060860193919291908301828280156118ac5780601f10611881576101008083540402835291602001916118ac565b820191906000526020600020905b81548152906001019060200180831161188f57829003601f168201915b50505091835250506004820154600160a060020a0316602082015260058201546040820152600682015460609091019060ff1660038111156118ea57fe5b60038111156116a957fe5b336118fe612b02565b600160a060020a038281166000908152601f6020908152604091829020825160c081019093528054938416835291929083019060a060020a900460ff16600281111561194657fe5b600281111561195157fe5b815260200160018201548152602001600282018054600181600116156101000203166002900480601f0160208091040260200160405190810160405280929190818152602001828054600181600116156101000203166002900480156119f85780601f106119cd576101008083540402835291602001916119f8565b820191906000526020600020905b8154815290600101906020018083116119db57829003601f168201915b5050509183525050600382015460208201526004909101546040909101529050600181602001516002811115611a2a57fe5b14611a4a5760405160e560020a62461bcd0281526004016108d390613cae565b896000808281526021602052604090206005015460ff166001811115611a6c57fe5b14611a8c5760405160e560020a62461bcd0281526004016108d390613cce565b6040517f0154b8d900000000000000000000000000000000000000000000000000000000815273__TaskImpl______________________________90630154b8d990610f08906000908f908f908f908f908f908f908f908f90600401613ee0565b60008060608073__WorkersImpl___________________________63198cc4cb6000876040518363ffffffff167c0100000000000000000000000000000000000000000000000000000000028152600401611b49929190613e02565b60006040518083038186803b158015611b6157600080fd5b505af4158015611b75573d6000803e3d6000fd5b505050506040513d6000823e601f3d908101601f19168201604052611b9d9190810190613589565b93509350935093509193509193565b6000606082611bb9612b02565b600160a060020a038281166000908152601f6020908152604091829020825160c081019093528054938416835291929083019060a060020a900460ff166002811115611c0157fe5b6002811115611c0c57fe5b815260200160018201548152602001600282018054600181600116156101000203166002900480601f016020809104026020016040519081016040528092919081815260200182805460018160011615610100020316600290048015611cb35780601f10611c8857610100808354040283529160200191611cb3565b820191906000526020600020905b815481529060010190602001808311611c9657829003601f168201915b5050509183525050600382015460208201526004909101546040909101529050600081602001516002811115611ce557fe5b1415611d065760405160e560020a62461bcd0281526004016108d390613cbe565b6040517f2f68f03100000000000000000000000000000000000000000000000000000000815273__WorkersImpl___________________________90632f68f03190611d59906000908990600401613d1d565b60006040518083038186803b158015611d7157600080fd5b505af4158015611d85573d6000803e3d6000fd5b505050506040513d6000823e601f3d908101601f191682016040526109839190810190612ed7565b33611db6612b02565b600160a060020a038281166000908152601f6020908152604091829020825160c081019093528054938416835291929083019060a060020a900460ff166002811115611dfe57fe5b6002811115611e0957fe5b815260200160018201548152602001600282018054600181600116156101000203166002900480601f016020809104026020016040519081016040528092919081815260200182805460018160011615610100020316600290048015611eb05780601f10611e8557610100808354040283529160200191611eb0565b820191906000526020600020905b815481529060010190602001808311611e9357829003601f168201915b50505050508152602001600382015481526020016004820154815250509050611ed84361225f565b1515611ef95760405160e560020a62461bcd0281526004016108d390613c9e565b600281602001516002811115611f0b57fe5b14611f2b5760405160e560020a62461bcd0281526004016108d390613cee565b60235460808201511015611f545760405160e560020a62461bcd0281526004016108d390613c7e565b6040517f3151b8e200000000000000000000000000000000000000000000000000000000815273__WorkersImpl___________________________90633151b8e290610be990600090600401613d0f565b6040517f9646236800000000000000000000000000000000000000000000000000000000815260009073__WorkersImpl___________________________90639646236890611ffa9086908690600401613c59565b60206040518083038186803b15801561201257600080fd5b505af4158015612026573d6000803e3d6000fd5b505050506040513d601f19601f82011682018060405250610a3a9190810190613183565b612052612b02565b600160a060020a038281166000908152601f6020908152604091829020825160c081019093528054938416835291929083019060a060020a900460ff16600281111561209a57fe5b60028111156120a557fe5b815260200160018201548152602001600282018054600181600116156101000203166002900480601f01602080910402602001604051908101604052809291908181526020018280546001816001161561010002031660029004801561214c5780601f106121215761010080835404028352916020019161214c565b820191906000526020600020905b81548152906001019060200180831161212f57829003601f168201915b50505050508152602001600382015481526020016004820154815250509050919050565b600081600160008281526021602052604090206005015460ff16600181111561219557fe5b146121b55760405160e560020a62461bcd0281526004016108d390613c8e565b6040517f50ec2f3d00000000000000000000000000000000000000000000000000000000815273__SecretContractImpl____________________906350ec2f3d90612208906000908790600401613e02565b60206040518083038186803b15801561222057600080fd5b505af4158015612234573d6000803e3d6000fd5b505050506040513d601f19601f820116820180604052506122589190810190613183565b9392505050565b6040517f26ae089800000000000000000000000000000000000000000000000000000000815260009073__WorkersImpl___________________________906326ae0898906122b49084908690600401613e02565b60206040518083038186803b1580156122cc57600080fd5b505af41580156122e0573d6000803e3d6000fd5b505050506040513d601f19601f82011682018060405250610a3d9190810190613183565b600082600160008281526021602052604090206005015460ff16600181111561232957fe5b146123495760405160e560020a62461bcd0281526004016108d390613c8e565b6040517f11ba13fb00000000000000000000000000000000000000000000000000000000815273__SecretContractImpl____________________906311ba13fb9061239e9060009088908890600401613ec5565b60206040518083038186803b1580156123b657600080fd5b505af41580156123ca573d6000803e3d6000fd5b505050506040513d601f19601f82011682018060405250610d079190810190613147565b606083600160008281526021602052604090206005015460ff16600181111561241357fe5b146124335760405160e560020a62461bcd0281526004016108d390613c8e565b6040517f953ecad400000000000000000000000000000000000000000000000000000000815273__SecretContractImpl____________________9063953ecad49061248a90600090899089908990600401613ff0565b60006040518083038186803b1580156124a257600080fd5b505af41580156124b6573d6000803e3d6000fd5b505050506040513d6000823e601f3d908101601f191682016040526124de919081019061306a565b95945050505050565b336124f0612b02565b600160a060020a038281166000908152601f6020908152604091829020825160c081019093528054938416835291929083019060a060020a900460ff16600281111561253857fe5b600281111561254357fe5b815260200160018201548152602001600282018054600181600116156101000203166002900480601f0160208091040260200160405190810160405280929190818152602001828054600181600116156101000203166002900480156125ea5780601f106125bf576101008083540402835291602001916125ea565b820191906000526020600020905b8154815290600101906020018083116125cd57829003601f168201915b505050918352505060038201546020820152600490910154604090910152905060018160200151600281111561261c57fe5b1461263c5760405160e560020a62461bcd0281526004016108d390613cae565b85600160008281526021602052604090206005015460ff16600181111561265f57fe5b1461267f5760405160e560020a62461bcd0281526004016108d390613c8e565b6040517ff9b6dc7300000000000000000000000000000000000000000000000000000000815273__TaskImpl______________________________9063f9b6dc73906126d8906000908b908b908b908b90600401613f64565b60006040518083038186803b1580156126f057600080fd5b505af4158015612704573d6000803e3d6000fd5b5050505050505050505050565b60015490565b33612720612b02565b600160a060020a038281166000908152601f6020908152604091829020825160c081019093528054938416835291929083019060a060020a900460ff16600281111561276857fe5b600281111561277357fe5b815260200160018201548152602001600282018054600181600116156101000203166002900480601f01602080910402602001604051908101604052809291908181526020018280546001816001161561010002031660029004801561281a5780601f106127ef5761010080835404028352916020019161281a565b820191906000526020600020905b8154815290600101906020018083116127fd57829003601f168201915b505050918352505060038201546020820152600490910154604090910152905060018160200151600281111561284c57fe5b1461286c5760405160e560020a62461bcd0281526004016108d390613cae565b846000808281526021602052604090206005015460ff16600181111561288e57fe5b146128ae5760405160e560020a62461bcd0281526004016108d390613cce565b6040517faba856bf00000000000000000000000000000000000000000000000000000000815273__TaskImpl______________________________9063aba856bf90612905906000908a908a908a90600401613fb6565b60006040518083038186803b15801561291d57600080fd5b505af4158015612931573d6000803e3d6000fd5b50505050505050505050565b81612946612b02565b600160a060020a038281166000908152601f6020908152604091829020825160c081019093528054938416835291929083019060a060020a900460ff16600281111561298e57fe5b600281111561299957fe5b815260200160018201548152602001600282018054600181600116156101000203166002900480601f016020809104026020016040519081016040528092919081815260200182805460018160011615610100020316600290048015612a405780601f10612a1557610100808354040283529160200191612a40565b820191906000526020600020905b815481529060010190602001808311612a2357829003601f168201915b5050509183525050600382015460208201526004909101546040909101529050600281602001516002811115612a7257fe5b14612a925760405160e560020a62461bcd0281526004016108d390613cde565b6040517f78925d4000000000000000000000000000000000000000000000000000000000815273__WorkersImpl___________________________906378925d40906106eb9060009088908890600401613d83565b600160a060020a031660009081526022602052604090205490565b6040805160c08101909152600080825260208201908152602001600081526020016060815260200160008152602001600081525090565b6040805160c081018252600080825260208201819052918101829052606080820152608081018290529060a08201905b905290565b6040805160e0810182526000808252602082018190529181018290526060808201526080810182905260a081018290529060c0820190612b69565b6000610a3a8235614193565b6000610a3a8251614193565b6000601f82018313612bd257600080fd5b8151612be5612be082614140565b614119565b91508181835260208401935060208101905083856020840282011115612c0a57600080fd5b60005b83811015612c365781612c208882612bb5565b8452506020928301929190910190600101612c0d565b5050505092915050565b6000601f82018313612c5157600080fd5b8135612c5f612be082614140565b91508181835260208401935060208101905083856020840282011115612c8457600080fd5b60005b83811015612c365781612c9a8882612e0c565b8452506020928301929190910190600101612c87565b6000601f82018313612cc157600080fd5b8151612ccf612be082614140565b91508181835260208401935060208101905083856020840282011115612cf457600080fd5b60005b83811015612c365781612d0a8882612e18565b8452506020928301929190910190600101612cf7565b6000601f82018313612d3157600080fd5b8135612d3f612be082614140565b91508181835260208401935060208101905083856020840282011115612d6457600080fd5b60005b83811015612c365781612d7a8882612e0c565b8452506020928301929190910190600101612d67565b6000601f82018313612da157600080fd5b8151612daf612be082614140565b91508181835260208401935060208101905083856020840282011115612dd457600080fd5b60005b83811015612c365781612dea8882612e18565b8452506020928301929190910190600101612dd7565b6000610a3a825161419e565b6000610a3a82356141a3565b6000610a3a82516141a3565b6000601f82018313612e3557600080fd5b8135612e43612be082614161565b91508082526020830160208301858383011115612e5f57600080fd5b612e6a8382846141fb565b50505092915050565b6000601f82018313612e8457600080fd5b8151612e92612be082614161565b91508082526020830160208301858383011115612eae57600080fd5b612e6a838284614207565b600060208284031215612ecb57600080fd5b6000610d078484612ba9565b60008060408385031215612eea57600080fd5b6000612ef68585612bb5565b925050602083015167ffffffffffffffff811115612f1357600080fd5b612f1f85828601612e73565b9150509250929050565b600080600060608486031215612f3e57600080fd5b6000612f4a8686612ba9565b935050602084013567ffffffffffffffff811115612f6757600080fd5b612f7386828701612e24565b925050604084013567ffffffffffffffff811115612f9057600080fd5b612f9c86828701612e24565b9150509250925092565b60008060408385031215612fb957600080fd5b6000612fc58585612ba9565b9250506020612f1f85828601612e0c565b600060208284031215612fe857600080fd5b815167ffffffffffffffff811115612fff57600080fd5b610d0784828501612bc1565b6000806040838503121561301e57600080fd5b825167ffffffffffffffff81111561303557600080fd5b61304185828601612bc1565b925050602083015167ffffffffffffffff81111561305e57600080fd5b612f1f85828601612d90565b60006020828403121561307c57600080fd5b815167ffffffffffffffff81111561309357600080fd5b610d0784828501612cb0565b600080600080608085870312156130b557600080fd5b843567ffffffffffffffff8111156130cc57600080fd5b6130d887828801612c40565b945050602085013567ffffffffffffffff8111156130f557600080fd5b61310187828801612d20565b935050604085013567ffffffffffffffff81111561311e57600080fd5b61312a87828801612d20565b925050606061313b87828801612e0c565b91505092959194509250565b60006020828403121561315957600080fd5b6000610d078484612e00565b60006020828403121561317757600080fd5b6000610d078484612e0c565b60006020828403121561319557600080fd5b6000610d078484612e18565b600080600080600080600080610100898b0312156131be57600080fd5b60006131ca8b8b612e0c565b985050602089013567ffffffffffffffff8111156131e757600080fd5b6131f38b828c01612c40565b975050604089013567ffffffffffffffff81111561321057600080fd5b61321c8b828c01612c40565b965050606061322d8b828c01612e0c565b955050608089013567ffffffffffffffff81111561324a57600080fd5b6132568b828c01612e24565b94505060a06132678b828c01612ba9565b93505060c089013567ffffffffffffffff81111561328457600080fd5b6132908b828c01612d20565b92505060e089013567ffffffffffffffff8111156132ad57600080fd5b6132b98b828c01612e24565b9150509295985092959890939650565b600080604083850312156132dc57600080fd5b6000612fc58585612e0c565b600080600080600080600080610100898b03121561330557600080fd5b60006133118b8b612e0c565b98505060206133228b828c01612e0c565b97505060406133338b828c01612e0c565b96505060606133448b828c01612e0c565b955050608089013567ffffffffffffffff81111561336157600080fd5b61336d8b828c01612e24565b94505060a061337e8b828c01612ba9565b93505060c06132908b828c01612e0c565b600080600080608085870312156133a557600080fd5b60006133b18787612e0c565b94505060206133c287828801612e0c565b93505060406133d387828801612e0c565b925050606085013567ffffffffffffffff8111156133f057600080fd5b61313b87828801612e24565b60008060006060848603121561341157600080fd5b600061341d8686612e0c565b9350506020612f7386828701612e0c565b60008060006060848603121561344357600080fd5b600061344f8686612e0c565b935050602061346086828701612e0c565b9250506040612f9c86828701612e0c565b6000806000806080858703121561348757600080fd5b60006134938787612e0c565b94505060206134a487828801612e0c565b935050604061312a87828801612e0c565b600080600080600060a086880312156134cd57600080fd5b60006134d98888612e0c565b95505060206134ea88828901612e0c565b94505060406134fb88828901612e0c565b935050606061350c88828901612e0c565b925050608061351d88828901612e0c565b9150509295509295909350565b6000806040838503121561353d57600080fd5b823567ffffffffffffffff81111561355457600080fd5b61356085828601612e24565b925050602083013567ffffffffffffffff81111561357d57600080fd5b612f1f85828601612e24565b6000806000806080858703121561359f57600080fd5b60006135ab8787612e18565b94505060206135bc87828801612e18565b935050604085015167ffffffffffffffff8111156135d957600080fd5b6135e587828801612bc1565b925050606085015167ffffffffffffffff81111561360257600080fd5b61313b87828801612d90565b61361781614193565b82525050565b60006136288261418f565b80845260208401935061363a83614189565b60005b8281101561366a5761365086835161360e565b61365982614189565b60209690960195915060010161363d565b5093949350505050565b600061367f8261418f565b80845260208401935061369183614189565b60005b8281101561366a576136a78683516137fe565b6136b082614189565b602096909601959150600101613694565b60006136cc8261418f565b8084526020840193506136de83614189565b60005b8281101561366a576136f48683516137fe565b6136fd82614189565b6020969096019591506001016136e1565b60006137198261418f565b80845260208401935061372b83614189565b60005b8281101561366a576137418683516137fe565b61374a82614189565b60209690960195915060010161372e565b60006137668261418f565b80845260208401935061377883614189565b60005b8281101561366a5761378e8683516137fe565b61379782614189565b60209690960195915060010161377b565b60006137b38261418f565b8084526020840193506137c583614189565b60005b8281101561366a576137db8683516137fe565b6137e482614189565b6020969096019591506001016137c8565b6136178161419e565b613617816141a3565b60006138128261418f565b808452613826816020860160208601614207565b61382f81614237565b9093016020019392505050565b613617816141da565b613617816141e5565b613617816141f0565b602281527f576f726b657227732062616c616e6365206973206e6f7420737566666963696560208201527f6e74000000000000000000000000000000000000000000000000000000000000604082015260600190565b601c81527f53656372657420636f6e7472616374206e6f74206465706c6f79656400000000602082015260400190565b602781527f5072696e636970616c206e6f646520686173206e6f74206265656e20696e697460208201527f69616c697a656400000000000000000000000000000000000000000000000000604082015260600190565b601481527f576f726b6572206e6f74206c6f6767656420696e000000000000000000000000602082015260400190565b601381527f556e7265676973746572656420776f726b657200000000000000000000000000602082015260400190565b60208082527f53656372657420636f6e747261637420616c7265616479206465706c6f7965649082015260400190565b601581527f576f726b6572206e6f74206c6f67676564206f75740000000000000000000000602082015260400190565b602781527f576f726b6572206e6f742072656769737465726564206f72206e6f74206c6f6760208201527f676564206f757400000000000000000000000000000000000000000000000000604082015260600190565b805160009060c0840190613a5d858261360e565b506020830151613a7060208601826137fe565b506040830151613a8360408601826137fe565b5060608301518482036060860152613a9b828261370e565b9150506080830151613ab060808601826137fe565b5060a0830151613ac360a086018261383c565b509392505050565b9052565b805160009060e0840190613ae385826137fe565b506020830151613af660208601826137fe565b506040830151613b0960408601826137fe565b5060608301518482036060860152613b218282613807565b9150506080830151613b36608086018261360e565b5060a0830151613b4960a08601826137fe565b5060c0830151613ac360c0860182613845565b805160009060c0840190613b70858261360e565b506020830151613b83602086018261384e565b506040830151613b9660408601826137fe565b5060608301518482036060860152613bae8282613807565b9150506080830151613bc360808601826137fe565b5060a0830151613ac360a08601826137fe565b60408101613be4828561360e565b8181036020830152610d078184613807565b60208082528101610a3a818461361d565b60408082528101613c18818561361d565b90508181036020830152610d07818461375b565b60208082528101610a3a8184613674565b60208101610a3d82846137f5565b60208101610a3d82846137fe565b60408082528101613c6a8185613807565b90508181036020830152610d078184613807565b60208082528101610a3d81613857565b60208082528101610a3d816138ad565b60208082528101610a3d816138dd565b60208082528101610a3d81613933565b60208082528101610a3d81613963565b60208082528101610a3d81613993565b60208082528101610a3d816139c3565b60208082528101610a3d816139f3565b60208082528101610a3a8184613a49565b60208101610a3d8284613acb565b60408101613d2b8285613acb565b612258602083018461360e565b60808101613d468287613acb565b613d53602083018661360e565b8181036040830152613d658185613807565b90508181036060830152613d798184613807565b9695505050505050565b60608101613d918286613acb565b613d9e602083018561360e565b610d0760408301846137fe565b60a08101613db98288613acb565b8181036020830152613dcb81876136c1565b90508181036040830152613ddf81866137a8565b90508181036060830152613df381856137a8565b9050613d7960808301846137fe565b60408101613e108285613acb565b61225860208301846137fe565b6101208101613e2c828c613acb565b613e39602083018b6137fe565b8181036040830152613e4b818a6136c1565b90508181036060830152613e5f81896136c1565b9050613e6e60808301886137fe565b81810360a0830152613e808187613807565b9050613e8f60c083018661360e565b81810360e0830152613ea181856137a8565b9050818103610100830152613eb68184613807565b9b9a5050505050505050505050565b60608101613ed38286613acb565b613d9e60208301856137fe565b6101208101613eef828c613acb565b613efc602083018b6137fe565b613f09604083018a6137fe565b613f1660608301896137fe565b613f2360808301886137fe565b81810360a0830152613f358187613807565b9050613f4460c083018661360e565b613f5160e08301856137fe565b818103610100830152613eb68184613807565b60a08101613f728288613acb565b613f7f60208301876137fe565b613f8c60408301866137fe565b613f9960608301856137fe565b8181036080830152613fab8184613807565b979650505050505050565b60808101613fc48287613acb565b613fd160208301866137fe565b613fde60408301856137fe565b8181036060830152613d798184613807565b60808101613ffe8287613acb565b61400b60208301866137fe565b61401860408301856137fe565b6124de60608301846137fe565b60a081016140338288613acb565b61404060208301876137fe565b61404d60408301866137fe565b61405a60608301856137fe565b613d7960808301846137fe565b60c081016140758289613acb565b61408260208301886137fe565b61408f60408301876137fe565b61409c60608301866137fe565b6140a960808301856137fe565b613fab60a08301846137fe565b60208082528101610a3a8184613acf565b60208082528101610a3a8184613b5c565b608081016140e682876137fe565b6140f360208301866137fe565b8181036040830152614105818561361d565b90508181036060830152613d79818461375b565b60405181810167ffffffffffffffff8111828210171561413857600080fd5b604052919050565b600067ffffffffffffffff82111561415757600080fd5b5060209081020190565b600067ffffffffffffffff82111561417857600080fd5b506020601f91909101601f19160190565b60200190565b5190565b6000610a3d826141ce565b151590565b90565b6000600282106141b257fe5b5090565b6000600482106141b257fe5b6000600382106141b257fe5b600160a060020a031690565b6000610a3d826141a6565b6000610a3d826141b6565b6000610a3d826141c2565b82818337506000910152565b60005b8381101561422257818101518382015260200161420a565b83811115614231576000848401525b50505050565b601f01601f19169056fea265627a7a72305820c2271e325a8bf5e8c8f5a0d45c121ced107da336064ce75960e15ce8dd6b08046c6578706572696d656e74616cf50037",
  "source": "pragma solidity ^0.5.0;\npragma experimental ABIEncoderV2;\n\nimport \"openzeppelin-solidity/contracts/math/SafeMath.sol\";\nimport \"openzeppelin-solidity/contracts/cryptography/ECDSA.sol\";\nimport \"./utils/SolRsaVerify.sol\";\n\nimport { WorkersImpl } from \"./impl/WorkersImpl.sol\";\nimport { PrincipalImpl } from \"./impl/PrincipalImpl.sol\";\nimport { TaskImpl } from \"./impl/TaskImpl.sol\";\nimport { SecretContractImpl } from \"./impl/SecretContractImpl.sol\";\nimport { EnigmaCommon } from \"./impl/EnigmaCommon.sol\";\nimport { EnigmaState } from \"./impl/EnigmaState.sol\";\nimport { EnigmaEvents } from \"./impl/EnigmaEvents.sol\";\nimport { EnigmaStorage } from \"./impl/EnigmaStorage.sol\";\nimport { Getters } from \"./impl/Getters.sol\";\nimport { ERC20 } from \"./interfaces/ERC20.sol\";\n\ncontract Enigma is EnigmaStorage, EnigmaEvents, Getters {\n    using SafeMath for uint256;\n    using ECDSA for bytes32;\n\n    // ========================================== Constructor ==========================================\n\n    constructor(address _tokenAddress, address _principal) public {\n        state.engToken = ERC20(_tokenAddress);\n        state.epochSize = 10;\n        state.taskTimeoutSize = 200;\n        state.principal = _principal;\n        state.stakingThreshold = 1;\n        state.workerGroupSize = 5;\n    }\n\n    //TODO: break down these methods into services for upgradability\n\n    // ========================================== Modifiers ==========================================\n\n    /**\n    * Checks if the custodian wallet is registered as a worker\n    *\n    * @param _user The custodian address of the worker\n    */\n    modifier workerRegistered(address _user) {\n        EnigmaCommon.Worker memory worker = state.workers[_user];\n        require(worker.status != EnigmaCommon.WorkerStatus.Unregistered, \"Unregistered worker\");\n        _;\n    }\n\n    /**\n    * Checks if the custodian wallet is logged in as a worker\n    *\n    * @param _user The custodian address of the worker\n    */\n    modifier workerLoggedIn(address _user) {\n        EnigmaCommon.Worker memory worker = state.workers[_user];\n        require(worker.status == EnigmaCommon.WorkerStatus.LoggedIn, \"Worker not logged in\");\n        _;\n    }\n\n    /**\n    * Checks if the custodian wallet is logged in as a worker\n    *\n    * @param _user The custodian address of the worker\n    */\n    modifier workerLoggedOut(address _user) {\n        EnigmaCommon.Worker memory worker = state.workers[_user];\n        require(worker.status == EnigmaCommon.WorkerStatus.LoggedOut, \"Worker not logged out\");\n        _;\n    }\n\n    /**\n    * Checks if the custodian wallet is logged in as a worker\n    *\n    * @param _user The custodian address of the worker\n    */\n    modifier canLogIn(address _user) {\n        EnigmaCommon.Worker memory worker = state.workers[_user];\n        require(getFirstBlockNumber(block.number) != 0, \"Principal node has not been initialized\");\n        require(worker.status == EnigmaCommon.WorkerStatus.LoggedOut, \"Worker not registered or not logged out\");\n        require(worker.balance >= state.stakingThreshold, \"Worker's balance is not sufficient\");\n        _;\n    }\n\n    /**\n    * Checks secret contract has not been deployed\n    *\n    * @param _scAddr Secret contract address\n    */\n    modifier contractUndefined(bytes32 _scAddr) {\n        require(state.contracts[_scAddr].status == EnigmaCommon.SecretContractStatus.Undefined, \"Secret contract already deployed\");\n        _;\n    }\n\n    /**\n    * Checks secret contract has been deployed\n    *\n    * @param _scAddr Secret contract address\n    */\n    modifier contractDeployed(bytes32 _scAddr) {\n        require(state.contracts[_scAddr].status == EnigmaCommon.SecretContractStatus.Deployed, \"Secret contract not deployed\");\n        _;\n    }\n\n    /**\n    * Checks task record has been created and is still pending receipt\n    *\n    * @param _taskId Task ID\n    */\n    modifier taskWaiting(bytes32 _taskId) {\n        require(state.tasks[_taskId].status == EnigmaCommon.TaskStatus.RecordCreated, \"Task is not waiting\");\n        _;\n    }\n\n    // ========================================== Functions ==========================================\n\n    /**\n    * Registers a new worker of change the signer parameters of an existing\n    * worker. This should be called by every worker (and the principal)\n    * node in order to receive tasks.\n    *\n    * @param _signer The signer address, derived from the enclave public key\n    * @param _report The RLP encoded report returned by the IAS\n    * @param _signature Signature\n    */\n    function register(address _signer, bytes memory _report, bytes memory _signature)\n    public\n    {\n        WorkersImpl.registerImpl(state, _signer, _report, _signature);\n    }\n//\n    /**\n    * Deposits ENG stake into contract from worker. Worker must be registered to do so.\n    *\n    * @param _custodian The worker's ETH address\n    * @param _amount The amount of ENG, in grains format (10 ** 8), to deposit\n    */\n    function deposit(address _custodian, uint _amount)\n    public\n    workerRegistered(_custodian)\n    {\n        WorkersImpl.depositImpl(state, _custodian, _amount);\n    }\n\n    /**\n    * Withdraws ENG stake from contract back to worker. Worker must be registered to do so.\n    *\n    * @param _custodian The worker's ETH address\n    * @param _amount The amount of ENG, in grains format (10 ** 8), to deposit\n    */\n    function withdraw(address _custodian, uint _amount)\n    public\n    workerLoggedOut(_custodian)\n    {\n        WorkersImpl.withdrawImpl(state, _custodian, _amount);\n    }\n\n    /**\n    * Login worker. Worker must be registered to do so, and must be logged in at start of epoch to be part of worker\n    * selection process.\n    */\n    function login() public canLogIn(msg.sender) {\n        WorkersImpl.loginImpl(state);\n    }\n\n    /**\n    * Logout worker. Worker must be logged in to do so.\n    */\n    function logout() public workerLoggedIn(msg.sender) {\n        WorkersImpl.logoutImpl(state);\n    }\n\n    /**\n    * Deploy secret contract from user, called by the worker.\n    *\n    * @param _taskId Task ID of corresponding deployment task (taskId == scAddr)\n    * @param _gasUsed Gas used for task\n    * @param _sig Worker's signature for deployment\n    */\n    function deploySecretContractFailure(\n        bytes32 _taskId,\n        uint _gasUsed,\n        bytes memory _sig\n    )\n    public\n    workerLoggedIn(msg.sender)\n    contractUndefined(_taskId)\n    {\n        TaskImpl.deploySecretContractFailureImpl(state, _taskId, _gasUsed, _sig);\n    }\n\n    /**\n    * Deploy secret contract from user, called by the worker.\n    *\n    * @param _taskId Task ID of corresponding deployment task (taskId == scAddr)\n    * @param _preCodeHash Predeployed bytecode hash\n    * @param _codeHash Deployed bytecode hash\n    * @param _initStateDeltaHash Initial state delta hash as a result of the contract's constructor\n    * @param _optionalEthereumData Initial state delta hash as a result of the contract's constructor\n    * @param _optionalEthereumContractAddress Initial state delta hash as a result of the contract's constructor\n    * @param _gasUsed Gas used for task\n    * @param _sig Worker's signature for deployment\n    */\n    function deploySecretContract(\n        bytes32 _taskId,\n        bytes32 _preCodeHash,\n        bytes32 _codeHash,\n        bytes32 _initStateDeltaHash,\n        bytes memory _optionalEthereumData,\n        address _optionalEthereumContractAddress,\n        uint _gasUsed,\n        bytes memory _sig\n    )\n    public\n    workerLoggedIn(msg.sender)\n    contractUndefined(_taskId)\n    {\n        TaskImpl.deploySecretContractImpl(state, _taskId, _preCodeHash, _codeHash, _initStateDeltaHash,\n            _optionalEthereumData, _optionalEthereumContractAddress, _gasUsed, _sig);\n    }\n\n    /**\n    * Check if secret contract has been deployed\n    *\n    * @param _scAddr Secret contract address\n    * @return  true/false\n    */\n    function isDeployed(bytes32 _scAddr)\n    public\n    view\n    returns (bool)\n    {\n        return SecretContractImpl.isDeployedImpl(state, _scAddr);\n    }\n\n    /**\n    * Check if secret contract has been deployed\n    *\n    * @return  Number of deployed secret contracts\n    */\n    function countSecretContracts()\n    public\n    view\n    returns (uint)\n    {\n        return SecretContractImpl.countSecretContractsImpl(state);\n    }\n\n    /**\n    * Get deployed secret contract addresses within a range\n    *\n    * @param _start Start of range\n    * @param _stop End of range\n    * @return Subset of deployed secret contract addresses\n    */\n    function getSecretContractAddresses(uint _start, uint _stop)\n    public\n    view\n    returns (bytes32[] memory)\n    {\n        return SecretContractImpl.getSecretContractAddressesImpl(state, _start, _stop);\n    }\n\n    /**\n    * Count state deltas for a deployed secret contract\n    *\n    * @param _scAddr Secret contract address\n    * @return Number of state deltas for deployed secret contract\n    */\n    function countStateDeltas(bytes32 _scAddr)\n    public\n    view\n    contractDeployed(_scAddr)\n    returns (uint)\n    {\n        return SecretContractImpl.countStateDeltasImpl(state, _scAddr);\n    }\n\n    /**\n    * Obtain state delta hash for a deployed secret contract at a particular index\n    *\n    * @param _scAddr Secret contract address\n    * @param _index Index in list of state deltas\n    * @return State delta hash\n    */\n    function getStateDeltaHash(bytes32 _scAddr, uint _index)\n    public\n    view\n    contractDeployed(_scAddr)\n    returns (bytes32)\n    {\n        return SecretContractImpl.getStateDeltaHashImpl(state, _scAddr, _index);\n    }\n\n    /**\n    * Obtain state delta hashes for a deployed secret contract within a range\n    *\n    * @param _start Start of range\n    * @param _stop End of range\n    * @return Subset of state delta hashes for deployed secret contract\n    */\n    function getStateDeltaHashes(bytes32 _scAddr, uint _start, uint _stop)\n    public\n    view\n    contractDeployed(_scAddr)\n    returns (bytes32[] memory)\n    {\n        return SecretContractImpl.getStateDeltaHashesImpl(state, _scAddr, _start, _stop);\n    }\n\n    /**\n    * Check if particular state delta hash for a deployed secret contract is valid\n    *\n    * @param _scAddr Secret contract address\n    * @param _stateDeltaHash State delta hash\n    * @return true/false\n    */\n    function isValidDeltaHash(bytes32 _scAddr, bytes32 _stateDeltaHash)\n    public\n    view\n    contractDeployed(_scAddr)\n    returns (bool)\n    {\n        return SecretContractImpl.isValidDeltaHashImpl(state, _scAddr, _stateDeltaHash);\n    }\n//\n    /**\n    * Create task record for contract deployment. This is necessary for transferring task fee from sender to contract,\n    * generating the unique taskId, saving the block number when the record was mined, and incrementing the user's\n    * task deployment counter nonce. We revert the process if the locally-generated nonce value does not match\n    * the on-chain-computed nonce since this indicates that the secret contract address the user has generated is\n    * invalid.\n    *\n    * @param _inputsHash Hash of encrypted fn sig, encrypted ABI-encoded args, and predeployed bytecode hash\n    * @param _gasLimit ENG gas limit\n    * @param _gasPx ENG gas price in grains format (10 ** 8)\n    * @param _firstBlockNumber Locally-computed first block number of epoch\n    * @param _nonce Locally-computed nonce value for this deployment\n    */\n    function createDeploymentTaskRecord(\n        bytes32 _inputsHash,\n        uint _gasLimit,\n        uint _gasPx,\n        uint _firstBlockNumber,\n        uint _nonce\n    )\n    public\n    {\n        TaskImpl.createDeploymentTaskRecordImpl(state, _inputsHash, _gasLimit, _gasPx, _firstBlockNumber, _nonce);\n    }\n\n    /**\n    * Create task record for task for regular tasks. This is necessary for transferring task fee from sender to\n    * contract, generating the unique taskId, saving the block number when the record was mined, and incrementing\n    * the user's task deployment counter nonce.\n    *\n    * @param _inputsHash Hash of encrypted fn sig, encrypted ABI-encoded args, and contract address\n    * @param _gasLimit ENG gas limit\n    * @param _gasPx ENG gas price in grains format (10 ** 8)\n    * @param _firstBlockNumber Locally-computed first block number of epoch\n    */\n    function createTaskRecord(\n        bytes32 _inputsHash,\n        uint _gasLimit,\n        uint _gasPx,\n        uint _firstBlockNumber\n    )\n    public\n    {\n        TaskImpl.createTaskRecordImpl(state, _inputsHash, _gasLimit, _gasPx, _firstBlockNumber);\n    }\n\n    /**\n    * Create task records for tasks (either contract deployment or regular tasks). This is necessary for\n    * transferring task fee from sender to contract, generating the unique taskId, saving the block number\n    * when the record was mined, and incrementing the user's task deployment counter nonce.\n    *\n    * @param _inputsHashes Hashes of encrypted fn sig, encrypted ABI-encoded args, and contract address\n    * @param _gasLimits ENG gas limit\n    * @param _gasPxs ENG gas price in grains format (10 ** 8)\n    * @param _firstBlockNumber Locally-computed first block number of epoch\n    */\n    function createTaskRecords(\n        bytes32[] memory _inputsHashes,\n        uint[] memory _gasLimits,\n        uint[] memory _gasPxs,\n        uint _firstBlockNumber\n    )\n    public\n    {\n        TaskImpl.createTaskRecordsImpl(state, _inputsHashes, _gasLimits, _gasPxs, _firstBlockNumber);\n    }\n\n//    // Execute the encoded function in the specified contract\n//    function executeCall(address _to, uint256 _value, bytes memory _data)\n//    internal\n//    returns (bool success)\n//    {\n//        assembly {\n//            success := call(gas, _to, _value, add(_data, 0x20), mload(_data), 0, 0)\n//        }\n//    }\n\n    /**\n    * Commit the computation task results on chain by first verifying the receipt and then the worker's signature.\n    * The task record is finalized and the worker is credited with the task's fee.\n    *\n    * @param _scAddr Secret contract address\n    * @param _taskId Unique taskId\n    * @param _stateDeltaHash Input state delta hash\n    * @param _outputHash Output state hash\n    * @param _optionalEthereumData Output state hash\n    * @param _optionalEthereumContractAddress Output state hash\n    * @param _gasUsed Gas used for task computation\n    * @param _sig Worker's signature\n    */\n    function commitReceipt(\n        bytes32 _scAddr,\n        bytes32 _taskId,\n        bytes32 _stateDeltaHash,\n        bytes32 _outputHash,\n        bytes memory _optionalEthereumData,\n        address _optionalEthereumContractAddress,\n        uint _gasUsed,\n        bytes memory _sig\n    )\n    public\n    workerLoggedIn(msg.sender)\n    contractDeployed(_scAddr)\n    {\n        TaskImpl.commitReceiptImpl(state, _scAddr, _taskId, _stateDeltaHash, _outputHash, _optionalEthereumData,\n            _optionalEthereumContractAddress, _gasUsed, _sig);\n    }\n\n    /**\n   * Commit the computation task results on chain by first verifying the receipts and then the worker's signature.\n   * The task records are finalized and the worker is credited with the tasks' fees.\n   *\n   * @param _scAddr Secret contract address\n   * @param _taskIds Unique taskId\n   * @param _stateDeltaHashes Input state delta hashes\n   * @param _outputHash Output state hashes\n   * @param _optionalEthereumData Output state hashes\n   * @param _optionalEthereumContractAddress Output state hashes\n   * @param _gasesUsed Output state hashes\n   * @param _sig Worker's signature\n   */\n    function commitReceipts(\n        bytes32 _scAddr,\n        bytes32[] memory _taskIds,\n        bytes32[] memory _stateDeltaHashes,\n        bytes32 _outputHash,\n        bytes memory _optionalEthereumData,\n        address _optionalEthereumContractAddress,\n        uint[] memory _gasesUsed,\n        bytes memory _sig\n    )\n    public\n    workerLoggedIn(msg.sender)\n    contractDeployed(_scAddr)\n    {\n        TaskImpl.commitReceiptsImpl(state, _scAddr, _taskIds, _stateDeltaHashes, _outputHash, _optionalEthereumData,\n            _optionalEthereumContractAddress, _gasesUsed, _sig);\n    }\n//\n    /**\n    * Commit the computation task results on chain by first verifying the receipt and then the worker's signature.\n    * After this, the task record is finalized and the worker is credited with the task's fee.\n    *\n    * @param _scAddr Secret contract address\n    * @param _taskId Unique taskId\n    * @param _gasUsed Gas used for task computation\n    * @param _sig Worker's signature\n    */\n    function commitTaskFailure(\n        bytes32 _scAddr,\n        bytes32 _taskId,\n        uint _gasUsed,\n        bytes memory _sig\n    )\n    public\n    workerLoggedIn(msg.sender)\n    contractDeployed(_scAddr)\n    {\n        TaskImpl.commitTaskFailureImpl(state, _scAddr, _taskId, _gasUsed, _sig);\n    }\n\n//    function returnFeesForTask(bytes32 _taskId) public taskWaiting(_taskId) {\n//        TaskRecord storage task = tasks[_taskId];\n//\n//        // Ensure that the timeout window has elapsed, allowing for a fee return\n//        require(block.number - task.blockNumber > taskTimeoutSize, \"Task timeout window has not elapsed yet\");\n//\n//        // Return the full fee to the task sender\n//        require(engToken.transfer(task.sender, task.gasLimit.mul(task.gasPx)), \"Token transfer failed\");\n//\n//        // Set task's status to ReceiptFailed and emit event\n//        task.status = TaskStatus.ReceiptFailed;\n//        emit TaskFeeReturned(_taskId);\n//    }\n//\n//    // Verify the signature submitted while reparameterizing workers\n//    function verifyParamsSig(uint256 _seed, bytes memory _sig)\n//    internal\n//    pure\n//    returns (address)\n//    {\n//        bytes32 hash = keccak256(abi.encodePacked(_seed));\n//        address signer = hash.recover(_sig);\n//        return signer;\n//    }\n\n    /**\n    * Reparameterizing workers with a new seed\n    * This should be called for each epoch by the Principal node\n    *\n    * @param _seed The random integer generated by the enclave\n    * @param _sig The random integer signed by the the principal node's enclave\n    */\n    function setWorkersParams(uint _blockNumber, uint _seed, bytes memory _sig)\n    public\n    workerRegistered(msg.sender)\n    {\n        PrincipalImpl.setWorkersParamsImpl(state, _blockNumber, _seed, _sig);\n    }\n\n    /**\n    * Get active workers before a certain block number\n    *\n    * @param _blockNumber Block number\n    */\n    function getActiveWorkers(uint _blockNumber)\n    public\n    view\n    workerRegistered(msg.sender)\n    returns (address[] memory, uint[] memory)\n    {\n        return PrincipalImpl.getActiveWorkersImpl(state, _blockNumber);\n    }\n\n    function getFirstBlockNumber(uint _blockNumber)\n    public\n    view\n    returns (uint) {\n        return WorkersImpl.getFirstBlockNumberImpl(state, _blockNumber);\n    }\n\n    function getWorkerParams(uint _blockNumber)\n    public\n    view\n    returns (uint, uint, address[] memory, uint[] memory) {\n        return WorkersImpl.getWorkerParamsImpl(state, _blockNumber);\n    }\n\n    /**\n    * Select a group of workers for the computation task given the block number of the task record (implies the epoch)\n    * and the secret contract address.\n    *\n    * @param _blockNumber Block number the task record was mined\n    * @param _scAddr Secret contract address\n    * @return Selected workers' addresses\n    */\n    function getWorkerGroup(uint _blockNumber, bytes32 _scAddr)\n    public\n    view\n    returns (address[] memory)\n    {\n        return WorkersImpl.getWorkerGroupImpl(state, _blockNumber, _scAddr);\n    }\n\n    /**\n    * The RLP encoded report returned by the IAS server\n    *\n    * @param _custodian The worker's custodian address\n    */\n    function getReport(address _custodian)\n    public\n    view\n    workerRegistered(_custodian)\n    returns (address, bytes memory)\n    {\n        return WorkersImpl.getReportImpl(state, _custodian);\n    }\n\n    /**\n    * This verifies an IAS report with hard coded modulus and exponent of Intel's certificate.\n    * @param _data The report itself\n    * @param _signature The signature of the report\n    */\n    function verifyReport(bytes memory _data, bytes memory _signature)\n    public\n    view\n    returns (uint)\n    {\n        return WorkersImpl.verifyReportImpl(_data, _signature);\n    }\n}\n",
  "sourcePath": "/home/fredfortier/Code/Enigma/discovery/enigma-contract-internal/contracts/Enigma.sol",
  "compiler": {
    "name": "solc",
    "version": "0.5.0+commit.1d4f565a.Emscripten.clang"
  },
  "schemaVersion": "3.0.1",
  "updatedAt": "2019-02-14T15:56:06.136Z",
  "devdoc": {
    "methods": {
      "commitReceipt(bytes32,bytes32,bytes32,bytes32,bytes,address,uint256,bytes)": {
        "params": {
          "_gasUsed": "Gas used for task computation",
          "_optionalEthereumContractAddress": "Output state hash",
          "_optionalEthereumData": "Output state hash",
          "_outputHash": "Output state hash",
          "_scAddr": "Secret contract address",
          "_sig": "Worker's signature",
          "_stateDeltaHash": "Input state delta hash",
          "_taskId": "Unique taskId"
        }
      },
      "commitReceipts(bytes32,bytes32[],bytes32[],bytes32,bytes,address,uint256[],bytes)": {
        "params": {
          "_gasesUsed": "Output state hashes",
          "_optionalEthereumContractAddress": "Output state hashes",
          "_optionalEthereumData": "Output state hashes",
          "_outputHash": "Output state hashes",
          "_scAddr": "Secret contract address",
          "_sig": "Worker's signature",
          "_stateDeltaHashes": "Input state delta hashes",
          "_taskIds": "Unique taskId"
        }
      },
      "commitTaskFailure(bytes32,bytes32,uint256,bytes)": {
        "params": {
          "_gasUsed": "Gas used for task computation",
          "_scAddr": "Secret contract address",
          "_sig": "Worker's signature",
          "_taskId": "Unique taskId"
        }
      },
      "countSecretContracts()": {
        "return": "Number of deployed secret contracts"
      },
      "countStateDeltas(bytes32)": {
        "params": {
          "_scAddr": "Secret contract address"
        },
        "return": "Number of state deltas for deployed secret contract"
      },
      "createDeploymentTaskRecord(bytes32,uint256,uint256,uint256,uint256)": {
        "params": {
          "_firstBlockNumber": "Locally-computed first block number of epoch",
          "_gasLimit": "ENG gas limit",
          "_gasPx": "ENG gas price in grains format (10 ** 8)",
          "_inputsHash": "Hash of encrypted fn sig, encrypted ABI-encoded args, and predeployed bytecode hash",
          "_nonce": "Locally-computed nonce value for this deployment"
        }
      },
      "createTaskRecord(bytes32,uint256,uint256,uint256)": {
        "params": {
          "_firstBlockNumber": "Locally-computed first block number of epoch",
          "_gasLimit": "ENG gas limit",
          "_gasPx": "ENG gas price in grains format (10 ** 8)",
          "_inputsHash": "Hash of encrypted fn sig, encrypted ABI-encoded args, and contract address"
        }
      },
      "createTaskRecords(bytes32[],uint256[],uint256[],uint256)": {
        "params": {
          "_firstBlockNumber": "Locally-computed first block number of epoch",
          "_gasLimits": "ENG gas limit",
          "_gasPxs": "ENG gas price in grains format (10 ** 8)",
          "_inputsHashes": "Hashes of encrypted fn sig, encrypted ABI-encoded args, and contract address"
        }
      },
      "deploySecretContract(bytes32,bytes32,bytes32,bytes32,bytes,address,uint256,bytes)": {
        "params": {
          "_codeHash": "Deployed bytecode hash",
          "_gasUsed": "Gas used for task",
          "_initStateDeltaHash": "Initial state delta hash as a result of the contract's constructor",
          "_optionalEthereumContractAddress": "Initial state delta hash as a result of the contract's constructor",
          "_optionalEthereumData": "Initial state delta hash as a result of the contract's constructor",
          "_preCodeHash": "Predeployed bytecode hash",
          "_sig": "Worker's signature for deployment",
          "_taskId": "Task ID of corresponding deployment task (taskId == scAddr)"
        }
      },
      "deploySecretContractFailure(bytes32,uint256,bytes)": {
        "params": {
          "_gasUsed": "Gas used for task",
          "_sig": "Worker's signature for deployment",
          "_taskId": "Task ID of corresponding deployment task (taskId == scAddr)"
        }
      },
      "deposit(address,uint256)": {
        "params": {
          "_amount": "The amount of ENG, in grains format (10 ** 8), to deposit",
          "_custodian": "The worker's ETH address"
        }
      },
      "getActiveWorkers(uint256)": {
        "params": {
          "_blockNumber": "Block number"
        }
      },
      "getReport(address)": {
        "params": {
          "_custodian": "The worker's custodian address"
        }
      },
      "getSecretContractAddresses(uint256,uint256)": {
        "params": {
          "_start": "Start of range",
          "_stop": "End of range"
        },
        "return": "Subset of deployed secret contract addresses"
      },
      "getStateDeltaHash(bytes32,uint256)": {
        "params": {
          "_index": "Index in list of state deltas",
          "_scAddr": "Secret contract address"
        },
        "return": "State delta hash"
      },
      "getStateDeltaHashes(bytes32,uint256,uint256)": {
        "params": {
          "_start": "Start of range",
          "_stop": "End of range"
        },
        "return": "Subset of state delta hashes for deployed secret contract"
      },
      "getWorkerGroup(uint256,bytes32)": {
        "params": {
          "_blockNumber": "Block number the task record was mined",
          "_scAddr": "Secret contract address"
        },
        "return": "Selected workers' addresses"
      },
      "isDeployed(bytes32)": {
        "params": {
          "_scAddr": "Secret contract address"
        },
        "return": "true/false"
      },
      "isValidDeltaHash(bytes32,bytes32)": {
        "params": {
          "_scAddr": "Secret contract address",
          "_stateDeltaHash": "State delta hash"
        },
        "return": "true/false"
      },
      "register(address,bytes,bytes)": {
        "params": {
          "_report": "The RLP encoded report returned by the IAS",
          "_signature": "Signature",
          "_signer": "The signer address, derived from the enclave public key"
        }
      },
      "setWorkersParams(uint256,uint256,bytes)": {
        "params": {
          "_seed": "The random integer generated by the enclave",
          "_sig": "The random integer signed by the the principal node's enclave"
        }
      },
      "verifyReport(bytes,bytes)": {
        "params": {
          "_data": "The report itself",
          "_signature": "The signature of the report"
        }
      },
      "withdraw(address,uint256)": {
        "params": {
          "_amount": "The amount of ENG, in grains format (10 ** 8), to deposit",
          "_custodian": "The worker's ETH address"
        }
      }
    }
  },
  "userdoc": {
    "methods": {
      "commitReceipt(bytes32,bytes32,bytes32,bytes32,bytes,address,uint256,bytes)": {
        "notice": "Commit the computation task results on chain by first verifying the receipt and then the worker's signature. The task record is finalized and the worker is credited with the task's fee."
      },
      "commitReceipts(bytes32,bytes32[],bytes32[],bytes32,bytes,address,uint256[],bytes)": {
        "notice": "Commit the computation task results on chain by first verifying the receipts and then the worker's signature. The task records are finalized and the worker is credited with the tasks' fees."
      },
      "commitTaskFailure(bytes32,bytes32,uint256,bytes)": {
        "notice": "Commit the computation task results on chain by first verifying the receipt and then the worker's signature. After this, the task record is finalized and the worker is credited with the task's fee."
      },
      "countSecretContracts()": {
        "notice": "Check if secret contract has been deployed"
      },
      "countStateDeltas(bytes32)": {
        "notice": "Count state deltas for a deployed secret contract"
      },
      "createDeploymentTaskRecord(bytes32,uint256,uint256,uint256,uint256)": {
        "notice": "Create task record for contract deployment. This is necessary for transferring task fee from sender to contract, generating the unique taskId, saving the block number when the record was mined, and incrementing the user's task deployment counter nonce. We revert the process if the locally-generated nonce value does not match the on-chain-computed nonce since this indicates that the secret contract address the user has generated is invalid."
      },
      "createTaskRecord(bytes32,uint256,uint256,uint256)": {
        "notice": "Create task record for task for regular tasks. This is necessary for transferring task fee from sender to contract, generating the unique taskId, saving the block number when the record was mined, and incrementing the user's task deployment counter nonce."
      },
      "createTaskRecords(bytes32[],uint256[],uint256[],uint256)": {
        "notice": "Create task records for tasks (either contract deployment or regular tasks). This is necessary for transferring task fee from sender to contract, generating the unique taskId, saving the block number when the record was mined, and incrementing the user's task deployment counter nonce."
      },
      "deploySecretContract(bytes32,bytes32,bytes32,bytes32,bytes,address,uint256,bytes)": {
        "notice": "Deploy secret contract from user, called by the worker."
      },
      "deploySecretContractFailure(bytes32,uint256,bytes)": {
        "notice": "Deploy secret contract from user, called by the worker."
      },
      "deposit(address,uint256)": {
        "notice": "Deposits ENG stake into contract from worker. Worker must be registered to do so."
      },
      "getActiveWorkers(uint256)": {
        "notice": "Get active workers before a certain block number"
      },
      "getReport(address)": {
        "notice": "The RLP encoded report returned by the IAS server"
      },
      "getSecretContractAddresses(uint256,uint256)": {
        "notice": "Get deployed secret contract addresses within a range"
      },
      "getStateDeltaHash(bytes32,uint256)": {
        "notice": "Obtain state delta hash for a deployed secret contract at a particular index"
      },
      "getStateDeltaHashes(bytes32,uint256,uint256)": {
        "notice": "Obtain state delta hashes for a deployed secret contract within a range"
      },
      "getWorkerGroup(uint256,bytes32)": {
        "notice": "Select a group of workers for the computation task given the block number of the task record (implies the epoch) and the secret contract address."
      },
      "isDeployed(bytes32)": {
        "notice": "Check if secret contract has been deployed"
      },
      "isValidDeltaHash(bytes32,bytes32)": {
        "notice": "Check if particular state delta hash for a deployed secret contract is valid"
      },
      "login()": {
        "notice": "Login worker. Worker must be registered to do so, and must be logged in at start of epoch to be part of worker selection process."
      },
      "logout()": {
        "notice": "Logout worker. Worker must be logged in to do so."
      },
      "register(address,bytes,bytes)": {
        "notice": "Registers a new worker of change the signer parameters of an existing worker. This should be called by every worker (and the principal) node in order to receive tasks."
      },
      "setWorkersParams(uint256,uint256,bytes)": {
        "notice": "Reparameterizing workers with a new seed This should be called for each epoch by the Principal node"
      },
      "verifyReport(bytes,bytes)": {
        "notice": "This verifies an IAS report with hard coded modulus and exponent of Intel's certificate."
      },
      "withdraw(address,uint256)": {
        "notice": "Withdraws ENG stake from contract back to worker. Worker must be registered to do so."
      }
    }
  }
}