{
  "contractName": "Enigma",
  "abi": [
    {
      "constant": true,
      "inputs": [
        {
          "name": "",
          "type": "uint256"
        }
      ],
      "name": "workerAddresses",
      "outputs": [
        {
          "name": "",
          "type": "address"
        }
      ],
      "payable": false,
      "stateMutability": "view",
      "type": "function",
      "signature": "0x0a318da0"
    },
    {
      "constant": true,
      "inputs": [],
      "name": "taskTimeoutSize",
      "outputs": [
        {
          "name": "",
          "type": "uint256"
        }
      ],
      "payable": false,
      "stateMutability": "view",
      "type": "function",
      "signature": "0x3a8f36cb"
    },
    {
      "constant": true,
      "inputs": [
        {
          "name": "",
          "type": "address"
        }
      ],
      "name": "workers",
      "outputs": [
        {
          "name": "signer",
          "type": "address"
        },
        {
          "name": "status",
          "type": "uint8"
        },
        {
          "name": "report",
          "type": "bytes"
        },
        {
          "name": "balance",
          "type": "uint256"
        }
      ],
      "payable": false,
      "stateMutability": "view",
      "type": "function",
      "signature": "0x4048a257"
    },
    {
      "constant": true,
      "inputs": [],
      "name": "epochSize",
      "outputs": [
        {
          "name": "",
          "type": "uint256"
        }
      ],
      "payable": false,
      "stateMutability": "view",
      "type": "function",
      "signature": "0x572d356e"
    },
    {
      "constant": true,
      "inputs": [
        {
          "name": "",
          "type": "uint256"
        }
      ],
      "name": "scAddresses",
      "outputs": [
        {
          "name": "",
          "type": "bytes32"
        }
      ],
      "payable": false,
      "stateMutability": "view",
      "type": "function",
      "signature": "0x5f0dd5bb"
    },
    {
      "constant": true,
      "inputs": [
        {
          "name": "",
          "type": "address"
        }
      ],
      "name": "userTaskDeployments",
      "outputs": [
        {
          "name": "",
          "type": "uint256"
        }
      ],
      "payable": false,
      "stateMutability": "view",
      "type": "function",
      "signature": "0x5f7a6ff3"
    },
    {
      "constant": true,
      "inputs": [],
      "name": "engToken",
      "outputs": [
        {
          "name": "",
          "type": "address"
        }
      ],
      "payable": false,
      "stateMutability": "view",
      "type": "function",
      "signature": "0x9489ad40"
    },
    {
      "constant": true,
      "inputs": [],
      "name": "workerGroupSize",
      "outputs": [
        {
          "name": "",
          "type": "uint256"
        }
      ],
      "payable": false,
      "stateMutability": "view",
      "type": "function",
      "signature": "0xa3edd784"
    },
    {
      "constant": true,
      "inputs": [
        {
          "name": "",
          "type": "bytes32"
        }
      ],
      "name": "tasks",
      "outputs": [
        {
          "name": "inputsHash",
          "type": "bytes32"
        },
        {
          "name": "gasLimit",
          "type": "uint256"
        },
        {
          "name": "gasPx",
          "type": "uint256"
        },
        {
          "name": "proof",
          "type": "bytes"
        },
        {
          "name": "sender",
          "type": "address"
        },
        {
          "name": "blockNumber",
          "type": "uint256"
        },
        {
          "name": "status",
          "type": "uint8"
        }
      ],
      "payable": false,
      "stateMutability": "view",
      "type": "function",
      "signature": "0xe579f500"
    },
    {
      "constant": true,
      "inputs": [
        {
          "name": "",
          "type": "bytes32"
        }
      ],
      "name": "contracts",
      "outputs": [
        {
          "name": "owner",
          "type": "address"
        },
        {
          "name": "preCodeHash",
          "type": "bytes32"
        },
        {
          "name": "codeHash",
          "type": "bytes32"
        },
        {
          "name": "outputHash",
          "type": "bytes32"
        },
        {
          "name": "status",
          "type": "uint8"
        }
      ],
      "payable": false,
      "stateMutability": "view",
      "type": "function",
      "signature": "0xec56a373"
    },
    {
      "inputs": [
        {
          "name": "_tokenAddress",
          "type": "address"
        },
        {
          "name": "_principal",
          "type": "address"
        }
      ],
      "payable": false,
      "stateMutability": "nonpayable",
      "type": "constructor",
      "signature": "constructor"
    },
    {
      "anonymous": false,
      "inputs": [
        {
          "indexed": false,
          "name": "custodian",
          "type": "address"
        },
        {
          "indexed": false,
          "name": "signer",
          "type": "address"
        }
      ],
      "name": "Registered",
      "type": "event",
      "signature": "0x0a31ee9d46a828884b81003c8498156ea6aa15b9b54bdd0ef0b533d9eba57e55"
    },
    {
      "anonymous": false,
      "inputs": [
        {
          "indexed": false,
          "name": "sig",
          "type": "bytes"
        },
        {
          "indexed": false,
          "name": "hash",
          "type": "bytes32"
        },
        {
          "indexed": false,
          "name": "workerAddr",
          "type": "address"
        }
      ],
      "name": "ValidatedSig",
      "type": "event",
      "signature": "0xe36691ca52ee024e298e5c0ff07191b87f0ac571c01a7631db2d70d573d955cb"
    },
    {
      "anonymous": false,
      "inputs": [
        {
          "indexed": false,
          "name": "seed",
          "type": "uint256"
        },
        {
          "indexed": false,
          "name": "blockNumber",
          "type": "uint256"
        },
        {
          "indexed": false,
          "name": "workers",
          "type": "address[]"
        },
        {
          "indexed": false,
          "name": "balances",
          "type": "uint256[]"
        },
        {
          "indexed": false,
          "name": "nonce",
          "type": "uint256"
        }
      ],
      "name": "WorkersParameterized",
      "type": "event",
      "signature": "0xcdfdbdd264b9f454c9c98dc0d0b5c0a0f683c704db2233ff53b4d4f826c790cb"
    },
    {
      "anonymous": false,
      "inputs": [
        {
          "indexed": false,
          "name": "taskId",
          "type": "bytes32"
        },
        {
          "indexed": false,
          "name": "gasLimit",
          "type": "uint256"
        },
        {
          "indexed": false,
          "name": "gasPx",
          "type": "uint256"
        },
        {
          "indexed": false,
          "name": "sender",
          "type": "address"
        }
      ],
      "name": "TaskRecordCreated",
      "type": "event",
      "signature": "0xb192d3b1f0628de7f85b7f318f78e34c1c4b669e3a9329e4b2c18b38ce591a60"
    },
    {
      "anonymous": false,
      "inputs": [
        {
          "indexed": false,
          "name": "taskIds",
          "type": "bytes32[]"
        },
        {
          "indexed": false,
          "name": "gasLimits",
          "type": "uint256[]"
        },
        {
          "indexed": false,
          "name": "gasPxs",
          "type": "uint256[]"
        },
        {
          "indexed": false,
          "name": "sender",
          "type": "address"
        }
      ],
      "name": "TaskRecordsCreated",
      "type": "event",
      "signature": "0x2df195a6daebd8429cbf3ca44141a14a912cd38df38e82f72c7e6dcbf235e221"
    },
    {
      "anonymous": false,
      "inputs": [
        {
          "indexed": false,
          "name": "taskId",
          "type": "bytes32"
        },
        {
          "indexed": false,
          "name": "stateDeltaHash",
          "type": "bytes32"
        },
        {
          "indexed": false,
          "name": "outputHash",
          "type": "bytes32"
        },
        {
          "indexed": false,
          "name": "ethCall",
          "type": "bytes"
        },
        {
          "indexed": false,
          "name": "sig",
          "type": "bytes"
        }
      ],
      "name": "ReceiptVerified",
      "type": "event",
      "signature": "0x665329bb9a4e1062edc215d9c5ab57fa54c4c88e3dfbcc68e0cd92fdd010fa6e"
    },
    {
      "anonymous": false,
      "inputs": [
        {
          "indexed": false,
          "name": "taskIds",
          "type": "bytes32[]"
        },
        {
          "indexed": false,
          "name": "_stateDeltaHashes",
          "type": "bytes32[]"
        },
        {
          "indexed": false,
          "name": "outputHash",
          "type": "bytes32"
        },
        {
          "indexed": false,
          "name": "ethCall",
          "type": "bytes"
        },
        {
          "indexed": false,
          "name": "sig",
          "type": "bytes"
        }
      ],
      "name": "ReceiptsVerified",
      "type": "event",
      "signature": "0xd5e13609ca03677e625611b77318c6bc27aba5addd14136f8a61b2fa2da74c7c"
    },
    {
      "anonymous": false,
      "inputs": [
        {
          "indexed": false,
          "name": "taskId",
          "type": "bytes32"
        },
        {
          "indexed": false,
          "name": "ethCall",
          "type": "bytes"
        },
        {
          "indexed": false,
          "name": "sig",
          "type": "bytes"
        }
      ],
      "name": "ReceiptFailed",
      "type": "event",
      "signature": "0xd00f54eef7ac1bb182f64f87a723ee430edf936251f8b0bf4edafaa0c0ffe912"
    },
    {
      "anonymous": false,
      "inputs": [
        {
          "indexed": false,
          "name": "taskId",
          "type": "bytes32"
        }
      ],
      "name": "TaskFeeReturned",
      "type": "event",
      "signature": "0x8f86891ac4edccb13a0629ba04c2b3c434909504438dda249003b4fd85752d1f"
    },
    {
      "anonymous": false,
      "inputs": [
        {
          "indexed": false,
          "name": "from",
          "type": "address"
        },
        {
          "indexed": false,
          "name": "value",
          "type": "uint256"
        }
      ],
      "name": "DepositSuccessful",
      "type": "event",
      "signature": "0xb3ef81558ed1a50072a492984535a009da8b129c749500b387f1e5f4886bdde5"
    },
    {
      "anonymous": false,
      "inputs": [
        {
          "indexed": false,
          "name": "to",
          "type": "address"
        },
        {
          "indexed": false,
          "name": "value",
          "type": "uint256"
        }
      ],
      "name": "WithdrawSuccessful",
      "type": "event",
      "signature": "0x84e742a3ea03623687a5febaa797636d728230721d4b3d1405d19fbbc16298d9"
    },
    {
      "anonymous": false,
      "inputs": [
        {
          "indexed": false,
          "name": "scAddr",
          "type": "bytes32"
        },
        {
          "indexed": false,
          "name": "codeHash",
          "type": "bytes32"
        }
      ],
      "name": "SecretContractDeployed",
      "type": "event",
      "signature": "0x9d707d3c048dd1c209a28ea6367edf3d939a45cb46f86be5a728577e3e52273e"
    },
    {
      "constant": false,
      "inputs": [
        {
          "name": "_signer",
          "type": "address"
        },
        {
          "name": "_report",
          "type": "bytes"
        },
        {
          "name": "_signature",
          "type": "bytes"
        }
      ],
      "name": "register",
      "outputs": [],
      "payable": false,
      "stateMutability": "nonpayable",
      "type": "function",
      "signature": "0x786cd4d7"
    },
    {
      "constant": false,
      "inputs": [
        {
          "name": "_custodian",
          "type": "address"
        },
        {
          "name": "_amount",
          "type": "uint256"
        }
      ],
      "name": "deposit",
      "outputs": [],
      "payable": false,
      "stateMutability": "nonpayable",
      "type": "function",
      "signature": "0x47e7ef24"
    },
    {
      "constant": false,
      "inputs": [
        {
          "name": "_custodian",
          "type": "address"
        },
        {
          "name": "_amount",
          "type": "uint256"
        }
      ],
      "name": "withdraw",
      "outputs": [],
      "payable": false,
      "stateMutability": "nonpayable",
      "type": "function",
      "signature": "0xf3fef3a3"
    },
    {
      "constant": false,
      "inputs": [],
      "name": "login",
      "outputs": [],
      "payable": false,
      "stateMutability": "nonpayable",
      "type": "function",
      "signature": "0xb34e97e8"
    },
    {
      "constant": false,
      "inputs": [],
      "name": "logout",
      "outputs": [],
      "payable": false,
      "stateMutability": "nonpayable",
      "type": "function",
      "signature": "0x1f3c99c3"
    },
    {
      "constant": false,
      "inputs": [
        {
          "name": "_taskId",
          "type": "bytes32"
        },
        {
          "name": "_preCodeHash",
          "type": "bytes32"
        },
        {
          "name": "_codeHash",
          "type": "bytes32"
        },
        {
          "name": "_initStateDeltaHash",
          "type": "bytes32"
        },
        {
          "name": "_gasUsed",
          "type": "uint256"
        },
        {
          "name": "_sig",
          "type": "bytes"
        }
      ],
      "name": "deploySecretContract",
      "outputs": [],
      "payable": false,
      "stateMutability": "nonpayable",
      "type": "function",
      "signature": "0x84aa2dfa"
    },
    {
      "constant": true,
      "inputs": [
        {
          "name": "_scAddr",
          "type": "bytes32"
        }
      ],
      "name": "isDeployed",
      "outputs": [
        {
          "name": "",
          "type": "bool"
        }
      ],
      "payable": false,
      "stateMutability": "view",
      "type": "function",
      "signature": "0x74c0ff4f"
    },
    {
      "constant": true,
      "inputs": [],
      "name": "countSecretContracts",
      "outputs": [
        {
          "name": "",
          "type": "uint256"
        }
      ],
      "payable": false,
      "stateMutability": "view",
      "type": "function",
      "signature": "0x75bbf75b"
    },
    {
      "constant": true,
      "inputs": [
        {
          "name": "_start",
          "type": "uint256"
        },
        {
          "name": "_stop",
          "type": "uint256"
        }
      ],
      "name": "getSecretContractAddresses",
      "outputs": [
        {
          "name": "",
          "type": "bytes32[]"
        }
      ],
      "payable": false,
      "stateMutability": "view",
      "type": "function",
      "signature": "0x8e055b8b"
    },
    {
      "constant": true,
      "inputs": [
        {
          "name": "_scAddr",
          "type": "bytes32"
        }
      ],
      "name": "countStateDeltas",
      "outputs": [
        {
          "name": "",
          "type": "uint256"
        }
      ],
      "payable": false,
      "stateMutability": "view",
      "type": "function",
      "signature": "0xc41bfb03"
    },
    {
      "constant": true,
      "inputs": [
        {
          "name": "_scAddr",
          "type": "bytes32"
        },
        {
          "name": "_index",
          "type": "uint256"
        }
      ],
      "name": "getStateDeltaHash",
      "outputs": [
        {
          "name": "",
          "type": "bytes32"
        }
      ],
      "payable": false,
      "stateMutability": "view",
      "type": "function",
      "signature": "0x28aa1aaa"
    },
    {
      "constant": true,
      "inputs": [
        {
          "name": "_scAddr",
          "type": "bytes32"
        },
        {
          "name": "_start",
          "type": "uint256"
        },
        {
          "name": "_stop",
          "type": "uint256"
        }
      ],
      "name": "getStateDeltaHashes",
      "outputs": [
        {
          "name": "",
          "type": "bytes32[]"
        }
      ],
      "payable": false,
      "stateMutability": "view",
      "type": "function",
      "signature": "0xd1dfd95e"
    },
    {
      "constant": true,
      "inputs": [
        {
          "name": "_scAddr",
          "type": "bytes32"
        },
        {
          "name": "_stateDeltaHash",
          "type": "bytes32"
        }
      ],
      "name": "isValidDeltaHash",
      "outputs": [
        {
          "name": "",
          "type": "bool"
        }
      ],
      "payable": false,
      "stateMutability": "view",
      "type": "function",
      "signature": "0xccfae218"
    },
    {
      "constant": false,
      "inputs": [
        {
          "name": "_inputsHash",
          "type": "bytes32"
        },
        {
          "name": "_gasLimit",
          "type": "uint256"
        },
        {
          "name": "_gasPx",
          "type": "uint256"
        },
        {
          "name": "_firstBlockNumber",
          "type": "uint256"
        },
        {
          "name": "_nonce",
          "type": "uint256"
        }
      ],
      "name": "createDeploymentTaskRecord",
      "outputs": [],
      "payable": false,
      "stateMutability": "nonpayable",
      "type": "function",
      "signature": "0x02e15a91"
    },
    {
      "constant": false,
      "inputs": [
        {
          "name": "_inputsHash",
          "type": "bytes32"
        },
        {
          "name": "_gasLimit",
          "type": "uint256"
        },
        {
          "name": "_gasPx",
          "type": "uint256"
        },
        {
          "name": "_firstBlockNumber",
          "type": "uint256"
        }
      ],
      "name": "createTaskRecord",
      "outputs": [],
      "payable": false,
      "stateMutability": "nonpayable",
      "type": "function",
      "signature": "0x167e54b7"
    },
    {
      "constant": false,
      "inputs": [
        {
          "name": "_inputsHashes",
          "type": "bytes32[]"
        },
        {
          "name": "_gasLimits",
          "type": "uint256[]"
        },
        {
          "name": "_gasPxs",
          "type": "uint256[]"
        },
        {
          "name": "_firstBlockNumber",
          "type": "uint256"
        }
      ],
      "name": "createTaskRecords",
      "outputs": [],
      "payable": false,
      "stateMutability": "nonpayable",
      "type": "function",
      "signature": "0x10851876"
    },
    {
      "constant": false,
      "inputs": [
        {
          "name": "_scAddr",
          "type": "bytes32"
        },
        {
          "name": "_taskId",
          "type": "bytes32"
        },
        {
          "name": "_stateDeltaHash",
          "type": "bytes32"
        },
        {
          "name": "_outputHash",
          "type": "bytes32"
        },
        {
          "name": "_gasUsed",
          "type": "uint256"
        },
        {
          "name": "_ethCall",
          "type": "bytes"
        },
        {
          "name": "_sig",
          "type": "bytes"
        }
      ],
      "name": "commitReceipt",
      "outputs": [],
      "payable": false,
      "stateMutability": "nonpayable",
      "type": "function",
      "signature": "0xf0b52ceb"
    },
    {
      "constant": false,
      "inputs": [
        {
          "name": "_scAddr",
          "type": "bytes32"
        },
        {
          "name": "_taskIds",
          "type": "bytes32[]"
        },
        {
          "name": "_stateDeltaHashes",
          "type": "bytes32[]"
        },
        {
          "name": "_outputHash",
          "type": "bytes32"
        },
        {
          "name": "_gasesUsed",
          "type": "uint256[]"
        },
        {
          "name": "_ethCall",
          "type": "bytes"
        },
        {
          "name": "_sig",
          "type": "bytes"
        }
      ],
      "name": "commitReceipts",
      "outputs": [],
      "payable": false,
      "stateMutability": "nonpayable",
      "type": "function",
      "signature": "0x01bac208"
    },
    {
      "constant": false,
      "inputs": [
        {
          "name": "_scAddr",
          "type": "bytes32"
        },
        {
          "name": "_taskId",
          "type": "bytes32"
        },
        {
          "name": "_gasUsed",
          "type": "uint256"
        },
        {
          "name": "_ethCall",
          "type": "bytes"
        },
        {
          "name": "_sig",
          "type": "bytes"
        }
      ],
      "name": "commitTaskFailure",
      "outputs": [],
      "payable": false,
      "stateMutability": "nonpayable",
      "type": "function",
      "signature": "0x1f2dcbb7"
    },
    {
      "constant": false,
      "inputs": [
        {
          "name": "_taskId",
          "type": "bytes32"
        }
      ],
      "name": "returnFeesForTask",
      "outputs": [],
      "payable": false,
      "stateMutability": "nonpayable",
      "type": "function",
      "signature": "0xee6dcef9"
    },
    {
      "constant": false,
      "inputs": [
        {
          "name": "_seed",
          "type": "uint256"
        },
        {
          "name": "_sig",
          "type": "bytes"
        }
      ],
      "name": "setWorkersParams",
      "outputs": [],
      "payable": false,
      "stateMutability": "nonpayable",
      "type": "function",
      "signature": "0x2873e73c"
    },
    {
      "constant": true,
      "inputs": [
        {
          "name": "_blockNumber",
          "type": "uint256"
        }
      ],
      "name": "getFirstBlockNumber",
      "outputs": [
        {
          "name": "",
          "type": "uint256"
        }
      ],
      "payable": false,
      "stateMutability": "view",
      "type": "function",
      "signature": "0xcbbc061d"
    },
    {
      "constant": true,
      "inputs": [
        {
          "name": "_blockNumber",
          "type": "uint256"
        }
      ],
      "name": "getWorkerParams",
      "outputs": [
        {
          "name": "",
          "type": "uint256"
        },
        {
          "name": "",
          "type": "uint256"
        },
        {
          "name": "",
          "type": "address[]"
        },
        {
          "name": "",
          "type": "uint256[]"
        }
      ],
      "payable": false,
      "stateMutability": "view",
      "type": "function",
      "signature": "0x9836ca31"
    },
    {
      "constant": true,
      "inputs": [
        {
          "name": "_blockNumber",
          "type": "uint256"
        },
        {
          "name": "_scAddr",
          "type": "bytes32"
        }
      ],
      "name": "getWorkerGroup",
      "outputs": [
        {
          "name": "",
          "type": "address[]"
        }
      ],
      "payable": false,
      "stateMutability": "view",
      "type": "function",
      "signature": "0x1d40ff0b"
    },
    {
      "constant": true,
      "inputs": [
        {
          "name": "_custodian",
          "type": "address"
        }
      ],
      "name": "getReport",
      "outputs": [
        {
          "name": "",
          "type": "address"
        },
        {
          "name": "",
          "type": "bytes"
        }
      ],
      "payable": false,
      "stateMutability": "view",
      "type": "function",
      "signature": "0xa3bdae3e"
    },
    {
      "constant": true,
      "inputs": [
        {
          "name": "data",
          "type": "bytes"
        },
        {
          "name": "signature",
          "type": "bytes"
        }
      ],
      "name": "verifyReport",
      "outputs": [
        {
          "name": "",
          "type": "uint256"
        }
      ],
      "payable": false,
      "stateMutability": "view",
      "type": "function",
      "signature": "0xb5c14992"
    }
  ],
  "bytecode": "0x6080604052606460015560c86002553480156200001b57600080fd5b506040516040806200602083398101806040526200003d91908101906200008e565b60008054600160a060020a03938416600160a060020a0319918216179091556003805492909316911617905560016023556005602455620000ec565b6000620000878251620000d9565b9392505050565b60008060408385031215620000a257600080fd5b6000620000b0858562000079565b9250506020620000c38582860162000079565b9150509250929050565b600160a060020a031690565b6000620000e682620000cd565b92915050565b615f2480620000fc6000396000f3fe6080604052600436106101a85763ffffffff60e060020a60003504166301bac20881146101ad57806302e15a91146101cf5780630a318da0146101ef5780631085187614610225578063167e54b7146102455780631d40ff0b146102655780631f2dcbb7146102925780631f3c99c3146102b25780632873e73c146102c757806328aa1aaa146102e75780633a8f36cb146103145780634048a2571461032957806347e7ef2414610359578063572d356e146103795780635f0dd5bb1461038e5780635f7a6ff3146103ae57806374c0ff4f146103ce57806375bbf75b146103fb578063786cd4d71461041057806384aa2dfa146104305780638e055b8b146104505780639489ad401461047d5780639836ca311461049f578063a3bdae3e146104cf578063a3edd784146104fd578063b34e97e814610512578063b5c1499214610527578063c41bfb0314610547578063cbbc061d14610567578063ccfae21814610587578063d1dfd95e146105a7578063e579f500146105c7578063ec56a373146105fa578063ee6dcef91461062b578063f0b52ceb1461064b578063f3fef3a31461066b575b600080fd5b3480156101b957600080fd5b506101cd6101c8366004614c12565b61068b565b005b3480156101db57600080fd5b506101cd6101ea366004614f7b565b610aed565b3480156101fb57600080fd5b5061020f61020a366004614bd6565b610dcd565b60405161021c9190615790565b60405180910390f35b34801561023157600080fd5b506101cd610240366004614b10565b610df5565b34801561025157600080fd5b506101cd610260366004614f37565b61117d565b34801561027157600080fd5b50610285610280366004614d26565b61142b565b60405161021c91906158c0565b34801561029e57600080fd5b506101cd6102ad366004614e4f565b61154d565b3480156102be57600080fd5b506101cd6119f0565b3480156102d357600080fd5b506101cd6102e2366004615042565b611b6d565b3480156102f357600080fd5b50610307610302366004614d26565b612101565b60405161021c919061599d565b34801561032057600080fd5b50610307612177565b34801561033557600080fd5b50610349610344366004614a3b565b61217d565b60405161021c9493929190615869565b34801561036557600080fd5b506101cd610374366004614ad6565b612241565b34801561038557600080fd5b5061030761255f565b34801561039a57600080fd5b506103076103a9366004614bd6565b612565565b3480156103ba57600080fd5b506103076103c9366004614a3b565b612584565b3480156103da57600080fd5b506103ee6103e9366004614bd6565b612596565b60405161021c919061598f565b34801561040757600080fd5b506103076125d1565b34801561041c57600080fd5b506101cd61042b366004614a59565b6125d8565b34801561043c57600080fd5b506101cd61044b366004614d45565b612717565b34801561045c57600080fd5b5061047061046b366004614d26565b612bd0565b60405161021c91906158d1565b34801561048957600080fd5b50610492612c70565b60405161021c9190615ab9565b3480156104ab57600080fd5b506104bf6104ba366004614bd6565b612c7f565b60405161021c9493929190615c27565b3480156104db57600080fd5b506104ef6104ea366004614a3b565b612cb8565b60405161021c929190615849565b34801561050957600080fd5b50610307612ef7565b34801561051e57600080fd5b506101cd612efd565b34801561053357600080fd5b50610307610542366004614fe3565b613078565b34801561055357600080fd5b50610307610562366004614bd6565b6130e3565b34801561057357600080fd5b50610307610582366004614bd6565b61313f565b34801561059357600080fd5b506103ee6105a2366004614d26565b61315a565b3480156105b357600080fd5b506104706105c2366004614ef4565b613207565b3480156105d357600080fd5b506105e76105e2366004614bd6565b61330a565b60405161021c9796959493929190615a4a565b34801561060657600080fd5b5061061a610615366004614bd6565b6133da565b60405161021c9594939291906157fd565b34801561063757600080fd5b506101cd610646366004614bd6565b613416565b34801561065757600080fd5b506101cd610666366004614de4565b613597565b34801561067757600080fd5b506101cd610686366004614ad6565b61385c565b3361069461479c565b600160a060020a038281166000908152601f60209081526040918290208251608081019093528054938416835291929083019060a060020a900460ff1660038111156106dc57fe5b60038111156106e757fe5b8152602001600182018054600181600116156101000203166002900480601f0160208091040260200160405190810160405280929190818152602001828054600181600116156101000203166002900480156107845780601f1061075957610100808354040283529160200191610784565b820191906000526020600020905b81548152906001019060200180831161076757829003601f168201915b5050509183525050600291820154602090910152909150816020015160038111156107ab57fe5b146107d45760405160e560020a62461bcd0281526004016107cb90615b67565b60405180910390fd5b88600160008281526021602052604090206005015460ff1660018111156107f757fe5b146108175760405160e560020a62461bcd0281526004016107cb90615ae7565b60608951604051908082528060200260200182016040528015610844578160200160208202803883390190505b5060008c81526021602052604081206003810180549394509092600019810190811061086c57fe5b600091825260208220015491505b8c51811015610959576108d68e8e8381518110151561089557fe5b906020019060200201518e848151811015156108ad57fe5b906020019060200201518d858151811015156108c557fe5b90602001906020020151338d613b18565b602060008e838151811015156108e857fe5b90602001906020020151815260200190815260200160002060000154848281518110151561091257fe5b602090810290910101528b5160038401908d908390811061092f57fe5b6020908102909101810151825460018181018555600094855292909320909201919091550161087a565b5089826004018190555060008383600201548d8d8d86600160405160200180888051906020019060200280838360005b838110156109a1578181015183820152602001610989565b50505050905001878152602001868051906020019060200280838360005b838110156109d75781810151838201526020016109bf565b50505050905001858152602001848051906020019060200280838360005b83811015610a0d5781810151838201526020016109f5565b50505050919091019384525050151560f860020a0260208083019190915260408051600181850301815260219093018152825192820192909220336000908152601f90925291902054909650600160a060020a03169450610a7593508592508c915050613d31565b600160a060020a031614610a9e5760405160e560020a62461bcd0281526004016107cb90615b17565b7fd5e13609ca03677e625611b77318c6bc27aba5addd14136f8a61b2fa2da74c7c8d8d8d8c8c604051610ad59594939291906158e2565b60405180910390a15050505050505050505050505050565b336000908152602260205260409020548114610b1e5760405160e560020a62461bcd0281526004016107cb90615b87565b610b274361313f565b8214610b485760405160e560020a62461bcd0281526004016107cb90615b57565b6000610b5a858563ffffffff613e1016565b60005460405160e160020a636eb1769f0281529192508291600160a060020a039091169063dd62ed3e90610b94903390309060040161579e565b60206040518083038186803b158015610bac57600080fd5b505afa158015610bc0573d6000803e3d6000fd5b505050506040513d601f19601f82011682018060405250610be49190810190614bf4565b1015610c055760405160e560020a62461bcd0281526004016107cb90615b77565b60005460405160e060020a6323b872dd028152600160a060020a03909116906323b872dd90610c3c903390309086906004016157b9565b602060405180830381600087803b158015610c5657600080fd5b505af1158015610c6a573d6000803e3d6000fd5b505050506040513d601f19601f82011682018060405250610c8e9190810190614bb8565b1515610caf5760405160e560020a62461bcd0281526004016107cb90615b07565b3360008181526022602090815260408083205481516c010000000000000000000000009095028584015260348086019190915281518086039091018152605490940181528351938201939093208083529080529190206004810154600160a060020a031615610d335760405160e560020a62461bcd0281526004016107cb90615ba7565b878155600180820188905560028201879055600482018054600160a060020a0319163317905543600583015560068201805460ff191682800217905550336000818152602260205260409081902080546001019055517fb192d3b1f0628de7f85b7f318f78e34c1c4b669e3a9329e4b2c18b38ce591a6091610dbb9185918b918b9190615a15565b60405180910390a15050505050505050565b601d805482908110610ddb57fe5b600091825260209091200154600160a060020a0316905081565b610dfe4361313f565b8114610e1f5760405160e560020a62461bcd0281526004016107cb90615b57565b60608451604051908082528060200260200182016040528015610e4c578160200160208202803883390190505b50905060005b8551811015611138576000610e9c8583815181101515610e6e57fe5b906020019060200201518784815181101515610e8657fe5b602090810290910101519063ffffffff613e1016565b60005460405160e160020a636eb1769f0281529192508291600160a060020a039091169063dd62ed3e90610ed6903390309060040161579e565b60206040518083038186803b158015610eee57600080fd5b505afa158015610f02573d6000803e3d6000fd5b505050506040513d601f19601f82011682018060405250610f269190810190614bf4565b1015610f475760405160e560020a62461bcd0281526004016107cb90615b77565b60005460405160e060020a6323b872dd028152600160a060020a03909116906323b872dd90610f7e903390309086906004016157b9565b602060405180830381600087803b158015610f9857600080fd5b505af1158015610fac573d6000803e3d6000fd5b505050506040513d601f19601f82011682018060405250610fd09190810190614bb8565b1515610ff15760405160e560020a62461bcd0281526004016107cb90615b07565b3360008181526022602090815260408083205481516c010000000000000000000000009095028584015260348086019190915281518086039091018152605490940181528351938201939093208083529080529190206004810154600160a060020a0316156110755760405160e560020a62461bcd0281526004016107cb90615ba7565b81858581518110151561108457fe5b60209081029091010152885189908590811061109c57fe5b60209081029091010151815587518890859081106110b657fe5b60209081029091010151600182015586518790859081106110d357fe5b602090810290910101516002820155600481018054600160a060020a031916331790554360058201556006810180546001919060ff1916828002179055505033600090815260226020526040902080546001908101909155929092019150610e529050565b507f2df195a6daebd8429cbf3ca44141a14a912cd38df38e82f72c7e6dcbf235e2218185853360405161116e9493929190615947565b60405180910390a15050505050565b6111864361313f565b81146111a75760405160e560020a62461bcd0281526004016107cb90615b57565b60006111b9848463ffffffff613e1016565b60005460405160e160020a636eb1769f0281529192508291600160a060020a039091169063dd62ed3e906111f3903390309060040161579e565b60206040518083038186803b15801561120b57600080fd5b505afa15801561121f573d6000803e3d6000fd5b505050506040513d601f19601f820116820180604052506112439190810190614bf4565b10156112645760405160e560020a62461bcd0281526004016107cb90615b77565b60005460405160e060020a6323b872dd028152600160a060020a03909116906323b872dd9061129b903390309086906004016157b9565b602060405180830381600087803b1580156112b557600080fd5b505af11580156112c9573d6000803e3d6000fd5b505050506040513d601f19601f820116820180604052506112ed9190810190614bb8565b151561130e5760405160e560020a62461bcd0281526004016107cb90615b07565b3360008181526022602090815260408083205481516c010000000000000000000000009095028584015260348086019190915281518086039091018152605490940181528351938201939093208083529080529190206004810154600160a060020a0316156113925760405160e560020a62461bcd0281526004016107cb90615ba7565b868155600180820187905560028201869055600482018054600160a060020a0319163317905543600583015560068201805460ff191682800217905550336000818152602260205260409081902080546001019055517fb192d3b1f0628de7f85b7f318f78e34c1c4b669e3a9329e4b2c18b38ce591a609161141a9185918a918a9190615a15565b60405180910390a150505050505050565b6060600061143884613e42565b90506060602454604051908082528060200260200182016040528015611468578160200160208202803883390190505b5090506000805b602454811015611540575b6000611487858885613eef565b90506000805b85518110156114d85785818151811015156114a457fe5b90602001906020020151600160a060020a031683600160a060020a031614156114d057600191506114d8565b60010161148d565b50801515611507578185848151811015156114ef57fe5b600160a060020a039092166020928302909101909101525b5050825160019092019160009084908390811061152057fe5b60209081029091010151600160a060020a03161461147a5760010161146f565b5090925050505b92915050565b3361155661479c565b600160a060020a038281166000908152601f60209081526040918290208251608081019093528054938416835291929083019060a060020a900460ff16600381111561159e57fe5b60038111156115a957fe5b8152602001600182018054600181600116156101000203166002900480601f0160208091040260200160405190810160405280929190818152602001828054600181600116156101000203166002900480156116465780601f1061161b57610100808354040283529160200191611646565b820191906000526020600020905b81548152906001019060200180831161162957829003601f168201915b50505091835250506002918201546020909101529091508160200151600381111561166d57fe5b1461168d5760405160e560020a62461bcd0281526004016107cb90615b67565b86600160008281526021602052604090206005015460ff1660018111156116b057fe5b146116d05760405160e560020a62461bcd0281526004016107cb90615ae7565b600088815260216020526040812060038101805491929160001981019081106116f557fe5b60009182526020808320909101548b835290805260409091209091506001600682015460ff16600381111561172657fe5b146117465760405160e560020a62461bcd0281526004016107cb90615af7565b61175481600501548c61142b565b8051600090811061176157fe5b6020908102919091010151600160a060020a031633146117965760405160e560020a62461bcd0281526004016107cb90615bb7565b60018101548911156117bd5760405160e560020a62461bcd0281526004016107cb90615ad7565b86516117d290600383019060208a01906147c5565b5060068101805460ff19166003179055600281015461181b906117fc908b9063ffffffff613e1016565b336000908152601f60205260409020600201549063ffffffff61416a16565b336000908152601f60205260408120600290810192909255546004830154918301546001840154600160a060020a039283169363a9059cbb9316916118769161186a908f63ffffffff61417c16565b9063ffffffff613e1016565b6040518363ffffffff1660e060020a0281526004016118969291906158a5565b602060405180830381600087803b1580156118b057600080fd5b505af11580156118c4573d6000803e3d6000fd5b505050506040513d601f19601f820116820180604052506118e89190810190614bb8565b15156119095760405160e560020a62461bcd0281526004016107cb90615b47565b60008a815260208080526040808320546002870154825180850183905280840191909152606081018e90526080810187905260a081018590528251608181830301815260a19091018352805190840120338552601f909352922054600160a060020a031661197d828b63ffffffff613d3116565b600160a060020a0316146119a65760405160e560020a62461bcd0281526004016107cb90615b17565b7fd00f54eef7ac1bb182f64f87a723ee430edf936251f8b0bf4edafaa0c0ffe9128c8b8b6040516119d9939291906159e1565b60405180910390a150505050505050505050505050565b336119f961479c565b600160a060020a038281166000908152601f60209081526040918290208251608081019093528054938416835291929083019060a060020a900460ff166003811115611a4157fe5b6003811115611a4c57fe5b8152602001600182018054600181600116156101000203166002900480601f016020809104026020016040519081016040528092919081815260200182805460018160011615610100020316600290048015611ae95780601f10611abe57610100808354040283529160200191611ae9565b820191906000526020600020905b815481529060010190602001808311611acc57829003601f168201915b505050918352505060029182015460209091015290915081602001516003811115611b1057fe5b14611b305760405160e560020a62461bcd0281526004016107cb90615b67565b336000908152601f6020526040902080546003919074ff0000000000000000000000000000000000000000191660a060020a835b02179055505050565b33611b7661479c565b600160a060020a038281166000908152601f60209081526040918290208251608081019093528054938416835291929083019060a060020a900460ff166003811115611bbe57fe5b6003811115611bc957fe5b8152602001600182018054600181600116156101000203166002900480601f016020809104026020016040519081016040528092919081815260200182805460018160011615610100020316600290048015611c665780601f10611c3b57610100808354040283529160200191611c66565b820191906000526020600020905b815481529060010190602001808311611c4957829003601f168201915b5050509183525050600291909101546020909101529050600081602001516003811115611c8f57fe5b1415611cb05760405160e560020a62461bcd0281526004016107cb90615b97565b600354336000908152601f6020526040902054600160a060020a03908116911614611cf05760405160e560020a62461bcd0281526004016107cb90615be7565b6000805b6005811015611d585760048160058110611d0a57fe5b60050201541515611d1d57809150611d58565b60048260058110611d2a57fe5b6005020160000154600482600581101515611d4157fe5b60050201541015611d50578091505b600101611cf4565b504360048260058110611d6757fe5b600502016000018190555084600482600581101515611d8257fe5b60050201600301819055506022600033600160a060020a0316600160a060020a0316815260200190815260200160002054600482600581101515611dc257fe5b60050201600401556000805b601d5481101561205657611de061479c565b601f6000601d84815481101515611df357fe5b6000918252602080832090910154600160a060020a0390811684528382019490945260409283019091208251608081019093528054938416835291929083019060ff60a060020a909104166003811115611e4957fe5b6003811115611e5457fe5b8152602001600182018054600181600116156101000203166002900480601f016020809104026020016040519081016040528092919081815260200182805460018160011615610100020316600290048015611ef15780601f10611ec657610100808354040283529160200191611ef1565b820191906000526020600020905b815481529060010190602001808311611ed457829003601f168201915b505050505081526020016002820154815250509050602354816060015110158015611f2c57506003548151600160a060020a03908116911614155b8015611f475750600281602001516003811115611f4557fe5b145b1561204d5760048460058110611f5957fe5b600502016001018054809190600101611f729190614843565b50601d805483908110611f8157fe5b600091825260209091200154600160a060020a031660048560058110611fa357fe5b6005020160010184815481101515611fb757fe5b60009182526020909120018054600160a060020a031916600160a060020a039290921691909117905560048460058110611fed57fe5b6005020160020180548091906001016120069190614843565b5060608101516004856005811061201957fe5b600502016002018481548110151561202d57fe5b60009182526020909120015561204a83600163ffffffff61416a16565b92505b50600101611dce565b507fcdfdbdd264b9f454c9c98dc0d0b5c0a0f683c704db2233ff53b4d4f826c790cb86436004856005811061208757fe5b6005020160010160048660058110151561209d57fe5b600502016002016022600033600160a060020a0316600160a060020a03168152602001908152602001600020546040516120db959493929190615c68565b60405180910390a150503360009081526022602052604090208054600101905550505050565b600082600160008281526021602052604090206005015460ff16600181111561212657fe5b146121465760405160e560020a62461bcd0281526004016107cb90615ae7565b600084815260216020526040902060030180548490811061216357fe5b906000526020600020015491505092915050565b60025481565b601f602081815260009283526040928390208054600180830180548751600261010094831615949094026000190190911692909204958601859004850282018501909652848152600160a060020a0382169560a060020a90920460ff169492939092908301828280156122315780601f1061220657610100808354040283529160200191612231565b820191906000526020600020905b81548152906001019060200180831161221457829003601f168201915b5050505050908060020154905084565b8161224a61479c565b600160a060020a038281166000908152601f60209081526040918290208251608081019093528054938416835291929083019060a060020a900460ff16600381111561229257fe5b600381111561229d57fe5b8152602001600182018054600181600116156101000203166002900480601f01602080910402602001604051908101604052809291908181526020018280546001816001161561010002031660029004801561233a5780601f1061230f5761010080835404028352916020019161233a565b820191906000526020600020905b81548152906001019060200180831161231d57829003601f168201915b505050918352505060029190910154602090910152905060008160200151600381111561236357fe5b14156123845760405160e560020a62461bcd0281526004016107cb90615b97565b60005460405160e160020a636eb1769f0281528491600160a060020a03169063dd62ed3e906123b990889030906004016157e1565b60206040518083038186803b1580156123d157600080fd5b505afa1580156123e5573d6000803e3d6000fd5b505050506040513d601f19601f820116820180604052506124099190810190614bf4565b101561242a5760405160e560020a62461bcd0281526004016107cb90615ac7565b60005460405160e060020a6323b872dd028152600160a060020a03909116906323b872dd90612461908790309088906004016157ef565b602060405180830381600087803b15801561247b57600080fd5b505af115801561248f573d6000803e3d6000fd5b505050506040513d601f19601f820116820180604052506124b39190810190614bb8565b15156124d45760405160e560020a62461bcd0281526004016107cb90615b47565b600160a060020a0384166000908152601f6020526040902060020154612500908463ffffffff61416a16565b600160a060020a0385166000908152601f60205260409081902060020191909155517fb3ef81558ed1a50072a492984535a009da8b129c749500b387f1e5f4886bdde59061255190869086906158a5565b60405180910390a150505050565b60015481565b601e80548290811061257357fe5b600091825260209091200154905081565b60226020526000908152604090205481565b6000600160008381526021602052604090206005015460ff1660018111156125ba57fe5b14156125c8575060016125cc565b5060005b919050565b601e545b90565b336000908152601f6020526040902054600160a060020a0316151561263a57601d80546001810182556000919091527f6d4407e7be21f808e6509aa9fa9143369579dd7d760fe20a2c09680fc146134f018054600160a060020a031916331790555b6126448282613078565b156126645760405160e560020a62461bcd0281526004016107cb90615bf7565b336000908152601f6020908152604082208054600160a060020a031916600160a060020a038716178155600281019290925583516126a892600101918501906147c5565b50336000818152601f602052604090819020805474ff0000000000000000000000000000000000000000191660a060020a179055517f0a31ee9d46a828884b81003c8498156ea6aa15b9b54bdd0ef0b533d9eba57e559161270a91869061579e565b60405180910390a1505050565b3361272061479c565b600160a060020a038281166000908152601f60209081526040918290208251608081019093528054938416835291929083019060a060020a900460ff16600381111561276857fe5b600381111561277357fe5b8152602001600182018054600181600116156101000203166002900480601f0160208091040260200160405190810160405280929190818152602001828054600181600116156101000203166002900480156128105780601f106127e557610100808354040283529160200191612810565b820191906000526020600020905b8154815290600101906020018083116127f357829003601f168201915b50505091835250506002918201546020909101529091508160200151600381111561283757fe5b146128575760405160e560020a62461bcd0281526004016107cb90615b67565b876000808281526021602052604090206005015460ff16600181111561287957fe5b146128995760405160e560020a62461bcd0281526004016107cb90615bd7565b600089815260208052604090206001600682015460ff1660038111156128bb57fe5b146128db5760405160e560020a62461bcd0281526004016107cb90615af7565b60018101548611156129025760405160e560020a62461bcd0281526004016107cb90615ad7565b600061291282600501548c61142b565b8051600090811061291f57fe5b60209081029091010151905033600160a060020a038216146129565760405160e560020a62461bcd0281526004016107cb90615bb7565b8154604080516020808201939093528082018c9052606081018b9052608081018a905260f860020a60a08201528151608181830301815260a19091018252805190830120336000908152601f909352912054600160a060020a03166129c1828963ffffffff613d3116565b600160a060020a0316146129ea5760405160e560020a62461bcd0281526004016107cb90615b17565b60008c8152602160209081526040822060048601548154600160a060020a031916600160a060020a0390911617815560018082018f9055600282018e905560058201805460ff191682179055600380830180548084018255908652848620018e9055601e805492830181559094527f50bb669a95c7b50b7e8a6f09454034b2b14cf2b85c730dca9a539ca82cb6e350018f905589519092612a929290870191908b01906147c5565b5060068401805460ff19166002908117909155840154612abd906117fc908b9063ffffffff613e1016565b336000908152601f60205260408120600290810192909255546004860154918601546001870154600160a060020a039283169363a9059cbb931691612b0c9161186a908f63ffffffff61417c16565b6040518363ffffffff1660e060020a028152600401612b2c9291906158a5565b602060405180830381600087803b158015612b4657600080fd5b505af1158015612b5a573d6000803e3d6000fd5b505050506040513d601f19601f82011682018060405250612b7e9190810190614bb8565b1515612b9f5760405160e560020a62461bcd0281526004016107cb90615b47565b7f9d707d3c048dd1c209a28ea6367edf3d939a45cb46f86be5a728577e3e52273e8d8c6040516119d99291906159ab565b6060811515612bdf57601e5491505b6060612bf1838563ffffffff61417c16565b604051908082528060200260200182016040528015612c1a578160200160208202803883390190505b5090506000845b84811015612c6657601e805482908110612c3757fe5b90600052602060002001548383815181101515612c5057fe5b6020908102909101015260019182019101612c21565b5090949350505050565b600054600160a060020a031681565b600080606080612c8d61486c565b612c9686614191565b8051606082015160208301516040909301519199909850919650945092505050565b6000606082612cc561479c565b600160a060020a038281166000908152601f60209081526040918290208251608081019093528054938416835291929083019060a060020a900460ff166003811115612d0d57fe5b6003811115612d1857fe5b8152602001600182018054600181600116156101000203166002900480601f016020809104026020016040519081016040528092919081815260200182805460018160011615610100020316600290048015612db55780601f10612d8a57610100808354040283529160200191612db5565b820191906000526020600020905b815481529060010190602001808311612d9857829003601f168201915b5050509183525050600291909101546020909101529050600081602001516003811115612dde57fe5b1415612dff5760405160e560020a62461bcd0281526004016107cb90615b97565b600160a060020a038581166000908152601f6020526040902054161515612e3b5760405160e560020a62461bcd0281526004016107cb90615bc7565b600160a060020a038086166000908152601f6020818152604092839020805460019182018054865160026000199583161561010002959095019091169390930494850184900484028301840190955283825290941693918391830182828015612ee55780601f10612eba57610100808354040283529160200191612ee5565b820191906000526020600020905b815481529060010190602001808311612ec857829003601f168201915b50505050509050935093505050915091565b60245481565b33612f0661479c565b600160a060020a038281166000908152601f60209081526040918290208251608081019093528054938416835291929083019060a060020a900460ff166003811115612f4e57fe5b6003811115612f5957fe5b8152602001600182018054600181600116156101000203166002900480601f016020809104026020016040519081016040528092919081815260200182805460018160011615610100020316600290048015612ff65780601f10612fcb57610100808354040283529160200191612ff6565b820191906000526020600020905b815481529060010190602001808311612fd957829003601f168201915b505050918352505060029190910154602090910152905060008160200151600381111561301f57fe5b14156130405760405160e560020a62461bcd0281526004016107cb90615b97565b336000908152601f6020526040902080546002919074ff0000000000000000000000000000000000000000191660a060020a83611b64565b6000606060a060405190810160405280608081526020016000815260200160008152602001600081526020016201000181525090506060610120604051908101604052806101008152602001615deb610100913990506130da858584846142a3565b95945050505050565b600081600160008281526021602052604090206005015460ff16600181111561310857fe5b146131285760405160e560020a62461bcd0281526004016107cb90615ae7565b505060009081526021602052604090206003015490565b600061314961486c565b61315283614191565b519392505050565b600082600160008281526021602052604090206005015460ff16600181111561317f57fe5b1461319f5760405160e560020a62461bcd0281526004016107cb90615ae7565b6000805b6000868152602160205260409020600301548110156131fe5760008681526021602052604090206003018054869190839081106131dc57fe5b906000526020600020015414156131f657600191506131fe565b6001016131a3565b50949350505050565b606083600160008281526021602052604090206005015460ff16600181111561322c57fe5b1461324c5760405160e560020a62461bcd0281526004016107cb90615ae7565b8215156132685760008581526021602052604090206003015492505b606061327a848663ffffffff61417c16565b6040519080825280602002602001820160405280156132a3578160200160208202803883390190505b5090506000855b858110156132fe5760008881526021602052604090206003018054829081106132cf57fe5b906000526020600020015483838151811015156132e857fe5b60209081029091010152600191820191016132aa565b50909695505050505050565b60208080526000918252604091829020805460018083015460028085015460038601805489519581161561010002600019011692909204601f8101889004880285018801909852878452939691959394939091908301828280156133af5780601f10613384576101008083540402835291602001916133af565b820191906000526020600020905b81548152906001019060200180831161339257829003601f168201915b50505050600483015460058401546006909401549293600160a060020a039091169290915060ff1687565b60216020526000908152604090208054600182015460028301546004840154600590940154600160a060020a0390931693919290919060ff1685565b806001600082815260208052604090206006015460ff16600381111561343857fe5b146134585760405160e560020a62461bcd0281526004016107cb90615b37565b60008281526020805260409020600254600582015443031161348f5760405160e560020a62461bcd0281526004016107cb90615b27565b600054600482015460028301546001840154600160a060020a039384169363a9059cbb9316916134c5919063ffffffff613e1016565b6040518363ffffffff1660e060020a0281526004016134e59291906158a5565b602060405180830381600087803b1580156134ff57600080fd5b505af1158015613513573d6000803e3d6000fd5b505050506040513d601f19601f820116820180604052506135379190810190614bb8565b15156135585760405160e560020a62461bcd0281526004016107cb90615b47565b60068101805460ff191660031790556040517f8f86891ac4edccb13a0629ba04c2b3c434909504438dda249003b4fd85752d1f9061270a90859061599d565b336135a061479c565b600160a060020a038281166000908152601f60209081526040918290208251608081019093528054938416835291929083019060a060020a900460ff1660038111156135e857fe5b60038111156135f357fe5b8152602001600182018054600181600116156101000203166002900480601f0160208091040260200160405190810160405280929190818152602001828054600181600116156101000203166002900480156136905780601f1061366557610100808354040283529160200191613690565b820191906000526020600020905b81548152906001019060200180831161367357829003601f168201915b5050509183525050600291820154602090910152909150816020015160038111156136b757fe5b146136d75760405160e560020a62461bcd0281526004016107cb90615b67565b88600160008281526021602052604090206005015460ff1660018111156136fa57fe5b1461371a5760405160e560020a62461bcd0281526004016107cb90615ae7565b60008a8152602160205260408120600381018054919291600019810190811061373f57fe5b9060005260206000200154905061375a8c8c8c8b338b613b18565b60008b81526020808052604080832054600386018054600181018255908552838520018e9055600486018d90556002860154825180850183905280840191909152606081018f9052608081018e905260a081018d905260c0810186905260f860020a60e0820152825160c181830301815260e19091018352805190840120338552601f909352922054600160a060020a03166137fc828a63ffffffff613d3116565b600160a060020a0316146138255760405160e560020a62461bcd0281526004016107cb90615b17565b7f665329bb9a4e1062edc215d9c5ab57fa54c4c88e3dfbcc68e0cd92fdd010fa6e8d8d8d8c8c604051610ad59594939291906159b9565b8161386561479c565b600160a060020a038281166000908152601f60209081526040918290208251608081019093528054938416835291929083019060a060020a900460ff1660038111156138ad57fe5b60038111156138b857fe5b8152602001600182018054600181600116156101000203166002900480601f0160208091040260200160405190810160405280929190818152602001828054600181600116156101000203166002900480156139555780601f1061392a57610100808354040283529160200191613955565b820191906000526020600020905b81548152906001019060200180831161393857829003601f168201915b505050918352505060029190910154602090910152905060008160200151600381111561397e57fe5b141561399f5760405160e560020a62461bcd0281526004016107cb90615b97565b600160a060020a0384166000908152601f60205260409020600201548311156139dd5760405160e560020a62461bcd0281526004016107cb90615c17565b6000546040517fa9059cbb000000000000000000000000000000000000000000000000000000008152600160a060020a039091169063a9059cbb90613a2890879087906004016158a5565b602060405180830381600087803b158015613a4257600080fd5b505af1158015613a56573d6000803e3d6000fd5b505050506040513d601f19601f82011682018060405250613a7a9190810190614bb8565b1515613a9b5760405160e560020a62461bcd0281526004016107cb90615b47565b600160a060020a0384166000908152601f6020526040902060020154613ac7908463ffffffff61417c16565b600160a060020a0385166000908152601f60205260409081902060020191909155517f84e742a3ea03623687a5febaa797636d728230721d4b3d1405d19fbbc16298d99061255190869086906158a5565b600085815260208052604090206001600682015460ff166003811115613b3a57fe5b14613b5a5760405160e560020a62461bcd0281526004016107cb90615af7565b613b6881600501548861142b565b80516000908110613b7557fe5b90602001906020020151600160a060020a031683600160a060020a0316141515613bb45760405160e560020a62461bcd0281526004016107cb90615bb7565b6001810154841115613bdb5760405160e560020a62461bcd0281526004016107cb90615ad7565b8151613bf090600383019060208501906147c5565b5060068101805460ff19166002908117909155810154613c4390613c1b90869063ffffffff613e1016565b600160a060020a0385166000908152601f60205260409020600201549063ffffffff61416a16565b600160a060020a038085166000908152601f602052604081206002908101939093555460048401549284015460018501549183169363a9059cbb931691613c95919061186a908a63ffffffff61417c16565b6040518363ffffffff1660e060020a028152600401613cb59291906158a5565b602060405180830381600087803b158015613ccf57600080fd5b505af1158015613ce3573d6000803e3d6000fd5b505050506040513d601f19601f82011682018060405250613d079190810190614bb8565b1515613d285760405160e560020a62461bcd0281526004016107cb90615b47565b50505050505050565b60008060008084516041141515613d4e5760009350505050611547565b50505060208201516040830151606084015160001a601b60ff82161015613d7357601b015b8060ff16601b14158015613d8b57508060ff16601c14155b15613d9c5760009350505050611547565b6040805160008152602080820180845289905260ff8416828401526060820186905260808201859052915160019260a0808401939192601f1981019281900390910190855afa158015613df3573d6000803e3d6000fd5b505050602060405103519350505050611547565b50505092915050565b6000821515613e2157506000611547565b828202828482811515613e3057fe5b0414613e3b57600080fd5b9392505050565b6000600019815b6005811015613ebc578360048260058110613e6057fe5b600502015411801590613eab57508160000b6000191480613eab57506004600083900b60058110613e8d57fe5b6005020160000154600482600581101515613ea457fe5b6005020154115b15613eb4578091505b600101613e49565b50600019600082900b1415613ee65760405160e560020a62461bcd0281526004016107cb90615c07565b60000b92915050565b6000613ef961486c565b60048560058110613f0657fe5b6005020160a060405190810160405290816000820154815260200160018201805480602002602001604051908101604052809291908181526020018280548015613f7957602002820191906000526020600020905b8154600160a060020a03168152600190910190602001808311613f5b575b5050505050815260200160028201805480602002602001604051908101604052809291908181526020018280548015613fd157602002820191906000526020600020905b815481526020019060010190808311613fbd575b50505091835250506003820154602082015260049091015460409091015290506000805b8260200151518110156140665760208301518051600091908390811061401757fe5b60209081029091010151600160a060020a03161461405e5761405b83604001518281518110151561404457fe5b60209081029091010151839063ffffffff61416a16565b91505b600101613ff5565b50606080830151604080516020808201939093528082018990528084018890528151808203909401845260800190528151910120600082828115156140a757fe5b06905060005b84602001515181101561413d576020850151805160009190839081106140cf57fe5b60209081029091010151600160a060020a0316146141355760408501518051829081106140f857fe5b60209081029091010151909103906000821361413557602085015180518290811061411f57fe5b9060200190602002015195505050505050613e3b565b6001016140ad565b5060208401518051600019810190811061415357fe5b906020019060200201519450505050509392505050565b600082820183811015613e3b57600080fd5b60008282111561418b57600080fd5b50900390565b61419961486c565b60006141a483613e42565b9050600481600581106141b357fe5b6005020160a06040519081016040529081600082015481526020016001820180548060200260200160405190810160405280929190818152602001828054801561422657602002820191906000526020600020905b8154600160a060020a03168152600190910190602001808311614208575b505050505081526020016002820180548060200260200160405190810160405280929190818152602001828054801561427e57602002820191906000526020600020905b81548152602001906001019080831161426a575b5050505050815260200160038201548152602001600482015481525050915050919050565b60006143446002866040518082805190602001908083835b602083106142da5780518252601f1990920191602091820191016142bb565b51815160209384036101000a60001901801990921691161790526040519190930194509192505080830381855afa158015614319573d6000803e3d6000fd5b5050506040513d601f19601f8201168201806040525061433c9190810190614bf4565b85858561434f565b90505b949350505050565b600061435961489c565b5060408051610260810182526030808252603160208084019190915292820152600d60608083019190915260066080830152600960a083015260c0820152608660e0820152604861010082015260016101208201819052606561014083015260036101608301526004610180830181905260026101a08401526101c083019190915260056101e083015260006102008301526102208201526102408101919091528251603e111561440957600080fd5b60006060614418878787614695565b8051865160408051828152601f19601f8401168101602001909152929350909160609082801561444f576020820181803883390190505b5090508160208201846020870160056107d05a03fa5080516035198301908290600090811061447a57fe5b60209101015160f860020a9081900402600160f860020a0319161515806144cd57508160018151811015156144ab57fe5b90602001015160f860020a900460f860020a0260f860020a900460ff16600114155b156144e2576001975050505050505050614347565b600295505b8060020186101561453c57818681518110151561450057fe5b0160200151600160f860020a031960f860020a91829004909102811614614531576002975050505050505050614347565b6001909501946144e7565b818160020181518110151561454d57fe5b60209101015160f860020a9081900402600160f860020a0319161561457c576003975050505050505050614347565b600095505b60138610156145f05786866013811061459657fe5b602002015160ff16828783600301018151811015156145b157fe5b90602001015160f860020a900460f860020a0260f860020a900460ff161415156145e5576004975050505050505050614347565b600190950194614581565b600095505b6020861015614683578b866020811061460a57fe5b1a60f860020a027effffffffffffffffffffffffffffffffffffffffffffffffffffffffffffff19168287601384600301010181518110151561464957fe5b60209101015160f860020a9081900402600160f860020a03191614614678576005975050505050505050614347565b6001909501946145f5565b5060009b9a5050505050505050505050565b60606000825184518651606001010190506000855190506000855190506000855190506000806000806060886040519080825280601f01601f1916602001820160405280156146eb576020820181803883390190505b50905060208d01945060208c01935060208b01925087602082015286604082015285606082015260208101915061472782606001868f5161475e565b6147398d518360600101858e5161475e565b61474e8c518e51846060010101848d5161475e565b9c9b505050505050505050505050565b5b6020811061477e578151835260209283019290910190601f190161475f565b905182516020929092036101000a6000190180199091169116179052565b604080516080810190915260008082526020820190815260200160608152602001600081525090565b828054600181600116156101000203166002900490600052602060002090601f016020900481019282601f1061480657805160ff1916838001178555614833565b82800160010185558215614833579182015b82811115614833578251825591602001919060010190614818565b5061483f9291506148bc565b5090565b815481835581811115614867576000838152602090206148679181019083016148bc565b505050565b60a06040519081016040528060008152602001606081526020016060815260200160008152602001600081525090565b610260604051908101604052806013906020820280388339509192915050565b6125d591905b8082111561483f57600081556001016148c2565b6000613e3b8235615d48565b6000601f820183136148f357600080fd5b813561490661490182615cdf565b615cb8565b9150818183526020840193506020810190508385602084028201111561492b57600080fd5b60005b83811015614957578161494188826149dd565b845250602092830192919091019060010161492e565b5050505092915050565b6000601f8201831361497257600080fd5b813561498061490182615cdf565b915081818352602084019350602081019050838560208402820111156149a557600080fd5b60005b8381101561495757816149bb88826149dd565b84525060209283019291909101906001016149a8565b6000613e3b8251615d53565b6000613e3b82356125d5565b6000613e3b82516125d5565b6000601f82018313614a0657600080fd5b8135614a1461490182615d00565b91508082526020830160208301858383011115614a3057600080fd5b613e07838284615da4565b600060208284031215614a4d57600080fd5b600061434784846148d6565b600080600060608486031215614a6e57600080fd5b6000614a7a86866148d6565b935050602084013567ffffffffffffffff811115614a9757600080fd5b614aa3868287016149f5565b925050604084013567ffffffffffffffff811115614ac057600080fd5b614acc868287016149f5565b9150509250925092565b60008060408385031215614ae957600080fd5b6000614af585856148d6565b9250506020614b06858286016149dd565b9150509250929050565b60008060008060808587031215614b2657600080fd5b843567ffffffffffffffff811115614b3d57600080fd5b614b49878288016148e2565b945050602085013567ffffffffffffffff811115614b6657600080fd5b614b7287828801614961565b935050604085013567ffffffffffffffff811115614b8f57600080fd5b614b9b87828801614961565b9250506060614bac878288016149dd565b91505092959194509250565b600060208284031215614bca57600080fd5b600061434784846149d1565b600060208284031215614be857600080fd5b600061434784846149dd565b600060208284031215614c0657600080fd5b600061434784846149e9565b600080600080600080600060e0888a031215614c2d57600080fd5b6000614c398a8a6149dd565b975050602088013567ffffffffffffffff811115614c5657600080fd5b614c628a828b016148e2565b965050604088013567ffffffffffffffff811115614c7f57600080fd5b614c8b8a828b016148e2565b9550506060614c9c8a828b016149dd565b945050608088013567ffffffffffffffff811115614cb957600080fd5b614cc58a828b01614961565b93505060a088013567ffffffffffffffff811115614ce257600080fd5b614cee8a828b016149f5565b92505060c088013567ffffffffffffffff811115614d0b57600080fd5b614d178a828b016149f5565b91505092959891949750929550565b60008060408385031215614d3957600080fd5b6000614af585856149dd565b60008060008060008060c08789031215614d5e57600080fd5b6000614d6a89896149dd565b9650506020614d7b89828a016149dd565b9550506040614d8c89828a016149dd565b9450506060614d9d89828a016149dd565b9350506080614dae89828a016149dd565b92505060a087013567ffffffffffffffff811115614dcb57600080fd5b614dd789828a016149f5565b9150509295509295509295565b600080600080600080600060e0888a031215614dff57600080fd5b6000614e0b8a8a6149dd565b9750506020614e1c8a828b016149dd565b9650506040614e2d8a828b016149dd565b9550506060614e3e8a828b016149dd565b9450506080614cc58a828b016149dd565b600080600080600060a08688031215614e6757600080fd5b6000614e7388886149dd565b9550506020614e84888289016149dd565b9450506040614e95888289016149dd565b935050606086013567ffffffffffffffff811115614eb257600080fd5b614ebe888289016149f5565b925050608086013567ffffffffffffffff811115614edb57600080fd5b614ee7888289016149f5565b9150509295509295909350565b600080600060608486031215614f0957600080fd5b6000614f1586866149dd565b9350506020614f26868287016149dd565b9250506040614acc868287016149dd565b60008060008060808587031215614f4d57600080fd5b6000614f5987876149dd565b9450506020614f6a878288016149dd565b9350506040614b9b878288016149dd565b600080600080600060a08688031215614f9357600080fd5b6000614f9f88886149dd565b9550506020614fb0888289016149dd565b9450506040614fc1888289016149dd565b9350506060614fd2888289016149dd565b9250506080614ee7888289016149dd565b60008060408385031215614ff657600080fd5b823567ffffffffffffffff81111561500d57600080fd5b615019858286016149f5565b925050602083013567ffffffffffffffff81111561503657600080fd5b614b06858286016149f5565b6000806040838503121561505557600080fd5b600061501985856149dd565b61506a81615d7c565b82525050565b61506a81615d48565b600061508482615d3a565b80845260208401935061509683615d28565b60005b828110156150c6576150ac868351615070565b6150b582615d28565b602096909601959150600101615099565b5093949350505050565b60006150db82615d3e565b8084526020840193506150ed83615d2e565b60005b828110156150c657615103868354615070565b61510c82615d42565b6020969096019591506001016150f0565b600061512882615d3a565b80845260208401935061513a83615d28565b60005b828110156150c65761515086835161520d565b61515982615d28565b60209690960195915060010161513d565b600061517582615d3a565b80845260208401935061518783615d28565b60005b828110156150c65761519d86835161520d565b6151a682615d28565b60209690960195915060010161518a565b60006151c282615d3e565b8084526020840193506151d483615d2e565b60005b828110156150c6576151ea86835461520d565b6151f382615d42565b6020969096019591506001016151d7565b61506a81615d53565b61506a816125d5565b600061522182615d3a565b808452615235816020860160208601615db0565b61523e81615de0565b9093016020019392505050565b61506a81615d83565b61506a81615d8e565b61506a81615d99565b602681527f4e6f7420656e6f75676820746f6b656e7320616c6c6f77656420666f7220747260208201527f616e736665720000000000000000000000000000000000000000000000000000604082015260600190565b601a81527f546f6f206d75636820676173207573656420666f72207461736b000000000000602082015260400190565b601c81527f53656372657420636f6e7472616374206e6f74206465706c6f79656400000000602082015260400190565b601381527f496e76616c6964207461736b2073746174757300000000000000000000000000602082015260400190565b601281527f5472616e73666572206e6f742076616c69640000000000000000000000000000602082015260400190565b601181527f496e76616c6964207369676e6174757265000000000000000000000000000000602082015260400190565b602781527f5461736b2074696d656f75742077696e646f7720686173206e6f7420656c617060208201527f7365642079657400000000000000000000000000000000000000000000000000604082015260600190565b601381527f5461736b206973206e6f742077616974696e6700000000000000000000000000602082015260400190565b601581527f546f6b656e207472616e73666572206661696c65640000000000000000000000602082015260400190565b601981527f57726f6e672065706f636820666f722074686973207461736b00000000000000602082015260400190565b601481527f576f726b6572206e6f74206c6f6767656420696e000000000000000000000000602082015260400190565b601481527f416c6c6f77616e6365206e6f7420656e6f756768000000000000000000000000602082015260400190565b603481527f496e636f7272656374206e6f6e6365207969656c64696e67206261642073656360208201527f72657420636f6e74726163742061646472657373000000000000000000000000604082015260600190565b601381527f556e7265676973746572656420776f726b657200000000000000000000000000602082015260400190565b601381527f5461736b20616c72656164792065786973747300000000000000000000000000602082015260400190565b602581527f4e6f74207468652073656c656374656420776f726b657220666f72207468697360208201527f207461736b000000000000000000000000000000000000000000000000000000604082015260600190565b601581527f576f726b6572206e6f7420726567697374657265640000000000000000000000602082015260400190565b60208082527f53656372657420636f6e747261637420616c7265616479206465706c6f7965649082015260400190565b602681527f4f6e6c7920746865205072696e636970616c2063616e2075706461746520746860208201527f6520736565640000000000000000000000000000000000000000000000000000604082015260600190565b601a81527f566572696679696e67207369676e6174757265206661696c6564000000000000602082015260400190565b603681527f4e6f20776f726b65727320706172616d657465727320656e74727920666f722060208201527f73706563696669656420626c6f636b206e756d62657200000000000000000000604082015260600190565b602381527f4e6f7420656e6f75676820746f6b656e7320696e20776f726b65722062616c6160208201527f6e63650000000000000000000000000000000000000000000000000000000000604082015260600190565b602081016115478284615070565b604081016157ac8285615061565b613e3b6020830184615070565b606081016157c78286615061565b6157d46020830185615070565b614347604083018461520d565b604081016157ac8285615070565b606081016157c78286615070565b60a0810161580b8288615070565b615818602083018761520d565b615825604083018661520d565b615832606083018561520d565b61583f6080830184615254565b9695505050505050565b604081016158578285615070565b81810360208301526143478184615216565b608081016158778287615070565b615884602083018661525d565b81810360408301526158968185615216565b90506130da606083018461520d565b604081016158b38285615070565b613e3b602083018461520d565b60208082528101613e3b8184615079565b60208082528101613e3b818461511d565b60a080825281016158f3818861511d565b90508181036020830152615907818761511d565b9050615916604083018661520d565b81810360608301526159288185615216565b9050818103608083015261593c8184615216565b979650505050505050565b60808082528101615958818761511d565b9050818103602083015261596c818661516a565b90508181036040830152615980818561516a565b90506130da6060830184615061565b602081016115478284615204565b60208101611547828461520d565b604081016158b3828561520d565b60a081016159c7828861520d565b6159d4602083018761520d565b615916604083018661520d565b606081016159ef828661520d565b8181036020830152615a018185615216565b905081810360408301526143448184615216565b60808101615a23828761520d565b615a30602083018661520d565b615a3d604083018561520d565b6130da6060830184615061565b60e08101615a58828a61520d565b615a65602083018961520d565b615a72604083018861520d565b8181036060830152615a848187615216565b9050615a936080830186615070565b615aa060a083018561520d565b615aad60c083018461525d565b98975050505050505050565b60208101611547828461524b565b6020808252810161154781615266565b60208082528101611547816152bc565b60208082528101611547816152ec565b602080825281016115478161531c565b602080825281016115478161534c565b602080825281016115478161537c565b60208082528101611547816153ac565b6020808252810161154781615402565b6020808252810161154781615432565b6020808252810161154781615462565b6020808252810161154781615492565b60208082528101611547816154c2565b60208082528101611547816154f2565b6020808252810161154781615548565b6020808252810161154781615578565b60208082528101611547816155a8565b60208082528101611547816155fe565b602080825281016115478161562e565b602080825281016115478161565e565b60208082528101611547816156b4565b60208082528101611547816156e4565b602080825281016115478161573a565b60808101615c35828761520d565b615c42602083018661520d565b8181036040830152615c548185615079565b9050818103606083015261583f818461516a565b60a08101615c76828861520d565b615c83602083018761520d565b8181036040830152615c9581866150d0565b90508181036060830152615ca981856151b7565b905061583f608083018461520d565b60405181810167ffffffffffffffff81118282101715615cd757600080fd5b604052919050565b600067ffffffffffffffff821115615cf657600080fd5b5060209081020190565b600067ffffffffffffffff821115615d1757600080fd5b506020601f91909101601f19160190565b60200190565b60009081526020902090565b5190565b5490565b60010190565b600061154782615d70565b151590565b60006002821061483f57fe5b60006004821061483f57fe5b600160a060020a031690565b6000611547825b600061154782615d48565b600061154782615d58565b600061154782615d64565b82818337506000910152565b60005b83811015615dcb578181015183820152602001615db3565b83811115615dda576000848401525b50505050565b601f01601f19169056fea97a2de0e66ea6147c9ee745ac0162686c7192099afc4b3f040fad6de093511d74e802f510d716038157dcaf84f4104bd3fed7e6b8f99c8817fd1ff5b9b864296c3d81fa8f1b729e02d21d72ffee4ced725efe74bea68fbc4d4244286fcdd4bf64406a439a15bcb4cf67754489c423972b4a80df5c2e7c5bc2dbaf2d42bb7b244f7c95bf92c75d3b33fc5410678a89589d1083da3acc459f2704cd99598c275e7c1878e00757e5bdb4e840226c11c0a17ff79c80b15c1ddb5af21cc2417061fbd2a2da819ed3b72b7efaa3bfebe2805c9b8ac19aa346512d484cfc81941e15f55881cc127e8f7aa12300cd5afb5742fa1d20cb467a5beb1c666cf76a368978b5a265627a7a72305820903d37a6522732067569f94e33163c29d3aa20c563a9c4edf976c888179e55466c6578706572696d656e74616cf50037",
  "source": "pragma solidity ^0.5.0;\npragma experimental ABIEncoderV2;\n\nimport \"openzeppelin-solidity/contracts/math/SafeMath.sol\";\nimport \"openzeppelin-solidity/contracts/cryptography/ECDSA.sol\";\nimport \"./utils/SolRsaVerify.sol\";\n\ncontract ERC20 {\n    function allowance(address owner, address spender) public view returns (uint256);\n\n    function transferFrom(address from, address to, uint256 value) public returns (bool);\n\n    function approve(address spender, uint256 value) public returns (bool);\n\n    function totalSupply() public view returns (uint256);\n\n    function balanceOf(address who) public view returns (uint256);\n\n    function transfer(address to, uint256 value) public returns (bool);\n\n    event Transfer(address indexed from, address indexed to, uint256 value);\n    event Approval(address indexed owner, address indexed spender, uint256 value);\n}\n\ncontract Enigma {\n    using SafeMath for uint256;\n    using ECDSA for bytes32;\n\n    // ========================================== Structs ==========================================\n\n    struct TaskRecord {\n        bytes32 inputsHash; // Inputs hash of encryptedFn, encryptedArgs, and contract address/preCodeHash)\n        uint gasLimit; // ENG gas limit units\n        uint gasPx; // ENG gas px in grains (10 ** 8) amount\n        bytes proof; // Signature of (taskId, inStateDeltaHash, outStateDeltaHash, ethCall)\n        address sender; // Sender of TaskRecord\n        uint blockNumber; // Block number TaskRecord was mined\n        TaskStatus status; // RecordUndefined: 0; RecordCreated: 1; ReceiptVerified: 2; ReceiptFailed: 3\n    }\n\n    struct Worker {\n        address signer; // Enclave address\n        WorkerStatus status; // Unregistered: 0, Registered: 1, LoggedIn: 2, LoggedOut: 3\n        bytes report; // Decided to store this as one  RLP encoded attribute for easier external storage in the future\n        uint256 balance; // ENG balance\n    }\n\n    /**\n    * The data representation of the worker parameters used as input for\n    * the worker selection algorithm\n    */\n    struct WorkersParams {\n        uint firstBlockNumber;\n        address[] workers;\n        uint[] balances;\n        uint seed;\n        uint nonce;\n    }\n\n    struct SecretContract {\n        address owner; // Owner who deployed secret contract\n        bytes32 preCodeHash; // Predeployed bytecode hash\n        bytes32 codeHash; // Deployed bytecode hash\n        bytes32[] stateDeltaHashes;\n        bytes32 outputHash;\n        SecretContractStatus status; // Undefined: 0, Deployed: 1\n        // TODO: consider keeping an index of taskIds\n    }\n\n    // ========================================== Enums ==========================================\n\n    enum TaskStatus {RecordUndefined, RecordCreated, ReceiptVerified, ReceiptFailed}\n\n    enum WorkerStatus {Unregistered, Registered, LoggedIn, LoggedOut}\n\n    enum SecretContractStatus {Undefined, Deployed}\n\n    // ========================================== Events ==========================================\n\n    event Registered(address custodian, address signer);\n    event ValidatedSig(bytes sig, bytes32 hash, address workerAddr);\n    event WorkersParameterized(uint seed, uint256 blockNumber, address[] workers, uint[] balances, uint nonce);\n    event TaskRecordCreated(bytes32 taskId, uint gasLimit, uint gasPx, address sender);\n    event TaskRecordsCreated(bytes32[] taskIds, uint[] gasLimits, uint[] gasPxs, address sender);\n    event ReceiptVerified(bytes32 taskId, bytes32 stateDeltaHash, bytes32 outputHash, bytes ethCall, bytes sig);\n    event ReceiptsVerified(bytes32[] taskIds, bytes32[] _stateDeltaHashes, bytes32 outputHash, bytes ethCall, bytes sig);\n    event ReceiptFailed(bytes32 taskId, bytes ethCall, bytes sig);\n    event TaskFeeReturned(bytes32 taskId);\n    event DepositSuccessful(address from, uint value);\n    event WithdrawSuccessful(address to, uint value);\n    event SecretContractDeployed(bytes32 scAddr, bytes32 codeHash);\n\n    // ========================================== State Variables ==========================================\n\n    // The interface of the deployed ENG ERC20 token contract\n    ERC20 public engToken;\n\n    // Epoch size in number of blocks\n    uint public epochSize = 100;\n\n    // Task timeout size in number of blocks\n    uint public taskTimeoutSize = 200;\n\n    /**\n    * The signer address of the principal node\n    * This must be set when deploying the contract and remains immutable\n    * Since the signer address is derived from the public key of an\n    * SGX enclave, this ensures that the principal node cannot be tempered\n    * with or replaced.\n    */\n    address principal;\n\n    /**\n    * The last 5 worker parameters\n    * We keep a collection of worker parameters to account for latency issues.\n    * A computation task might be conceivably given out at a certain block number\n    * but executed at a later block in a different epoch. It follows that\n    * the contract must have access to the worker parameters effective when giving\n    * out the task, otherwise the selected worker would not match. We calculated\n    * that keeping the last 5 items should be more than enough to account for\n    * all latent tasks. Tasks results will be rejected past this limit.\n    */\n    WorkersParams[5] workersParams;\n\n    // An address-based index of all registered worker\n    address[] public workerAddresses;\n    // An address-based index of all secret contracts\n    bytes32[] public scAddresses;\n\n    // A registry of all registered workers with their attributes\n    mapping(address => Worker) public workers;\n\n    // A registry of all tasks with their attributes\n    mapping(bytes32 => TaskRecord) public tasks;\n\n    // A registry of all deployed secret contracts with their attributes\n    mapping(bytes32 => SecretContract) public contracts;\n\n    // A mapping of number of tasks deployed for each address\n    mapping(address => uint) public userTaskDeployments;\n\n    // TODO: do we keep tasks forever? if not, when do we delete them?\n    uint stakingThreshold;\n    uint public workerGroupSize;\n\n    // ========================================== Constructor ==========================================\n\n    constructor(address _tokenAddress, address _principal) public {\n        engToken = ERC20(_tokenAddress);\n        principal = _principal;\n        stakingThreshold = 1;\n        workerGroupSize = 5;\n    }\n\n    //TODO: break down these methods into services for upgradability\n\n    // ========================================== Modifiers ==========================================\n\n    /**\n    * Checks if the custodian wallet is registered as a worker\n    *\n    * @param _user The custodian address of the worker\n    */\n    modifier workerRegistered(address _user) {\n        Worker memory worker = workers[_user];\n        require(worker.status != WorkerStatus.Unregistered, \"Unregistered worker\");\n        _;\n    }\n\n    /**\n    * Checks if the custodian wallet is logged in as a worker\n    *\n    * @param _user The custodian address of the worker\n    */\n    modifier workerLoggedIn(address _user) {\n        Worker memory worker = workers[_user];\n        require(worker.status == WorkerStatus.LoggedIn, \"Worker not logged in\");\n        _;\n    }\n\n    /**\n    * Checks secret contract has not been deployed\n    *\n    * @param _scAddr Secret contract address\n    */\n    modifier contractUndefined(bytes32 _scAddr) {\n        require(contracts[_scAddr].status == SecretContractStatus.Undefined, \"Secret contract already deployed\");\n        _;\n    }\n\n    /**\n    * Checks secret contract has been deployed\n    *\n    * @param _scAddr Secret contract address\n    */\n    modifier contractDeployed(bytes32 _scAddr) {\n        require(contracts[_scAddr].status == SecretContractStatus.Deployed, \"Secret contract not deployed\");\n        _;\n    }\n\n    /**\n    * Checks task record has been created and is still pending receipt\n    *\n    * @param _taskId Task ID\n    */\n    modifier taskWaiting(bytes32 _taskId) {\n        require(tasks[_taskId].status == TaskStatus.RecordCreated, \"Task is not waiting\");\n        _;\n    }\n\n    // ========================================== Functions ==========================================\n\n    /**\n    * Registers a new worker of change the signer parameters of an existing\n    * worker. This should be called by every worker (and the principal)\n    * node in order to receive tasks.\n    *\n    * @param _signer The signer address, derived from the enclave public key\n    * @param _report The RLP encoded report returned by the IAS\n    */\n    function register(address _signer, bytes memory _report, bytes memory _signature)\n    public\n    {\n        // TODO: consider exit if both signer and custodian are matching\n        // If the custodian is not already register, we add an index entry\n        if (workers[msg.sender].signer == address(0)) {\n            workerAddresses.push(msg.sender);\n        }\n        require(verifyReport(_report, _signature) == 0, \"Verifying signature failed\");\n\n        // Set the custodian attributes\n        workers[msg.sender].signer = _signer;\n        workers[msg.sender].balance = 0;\n        workers[msg.sender].report = _report;\n        workers[msg.sender].status = WorkerStatus.Registered;\n\n        emit Registered(msg.sender, _signer);\n    }\n\n    /**\n    * Deposits ENG stake into contract from worker. Worker must be registered to do so.\n    *\n    * @param _custodian The worker's ETH address\n    * @param _amount The amount of ENG, in grains format (10 ** 8), to deposit\n    */\n    function deposit(address _custodian, uint _amount)\n    public\n    workerRegistered(_custodian)\n    {\n        require(engToken.allowance(_custodian, address(this)) >= _amount, \"Not enough tokens allowed for transfer\");\n        require(engToken.transferFrom(_custodian, address(this), _amount), \"Token transfer failed\");\n\n        workers[_custodian].balance = workers[_custodian].balance.add(_amount);\n\n        emit DepositSuccessful(_custodian, _amount);\n    }\n\n    /**\n    * Withdraws ENG stake from contract back to worker. Worker must be registered to do so.\n    *\n    * @param _custodian The worker's ETH address\n    * @param _amount The amount of ENG, in grains format (10 ** 8), to deposit\n    */\n    function withdraw(address _custodian, uint _amount)\n    public\n    workerRegistered(_custodian)\n    {\n        require(workers[_custodian].balance >= _amount, \"Not enough tokens in worker balance\");\n        require(engToken.transfer(_custodian, _amount), \"Token transfer failed\");\n\n        workers[_custodian].balance = workers[_custodian].balance.sub(_amount);\n\n        emit WithdrawSuccessful(_custodian, _amount);\n    }\n\n    /**\n    * Login worker. Worker must be registered to do so, and must be logged in at start of epoch to be part of worker\n    * selection process.\n    */\n    function login() public workerRegistered(msg.sender) {\n        workers[msg.sender].status = WorkerStatus.LoggedIn;\n    }\n\n    /**\n    * Logout worker. Worker must be logged in to do so.\n    */\n    function logout() public workerLoggedIn(msg.sender) {\n        workers[msg.sender].status = WorkerStatus.LoggedOut;\n    }\n\n    /**\n    * Deploy secret contract from user, called by the worker.\n    *\n    * @param _taskId Task ID of corresponding deployment task (taskId == scAddr)\n    * @param _preCodeHash Predeployed bytecode hash\n    * @param _codeHash Deployed bytecode hash\n    * @param _initStateDeltaHash Initial state delta hash as a result of the contract's constructor\n    * @param _gasUsed Gas used for task\n    * @param _sig Worker's signature for deployment\n    */\n    function deploySecretContract(bytes32 _taskId, bytes32 _preCodeHash, bytes32 _codeHash, bytes32 _initStateDeltaHash,\n        uint _gasUsed, bytes memory _sig)\n    public\n    workerLoggedIn(msg.sender)\n    contractUndefined(_taskId)\n    {\n        // Index into task records based on _taskId to find corresponding deployment task\n        TaskRecord storage task = tasks[_taskId];\n        require(task.status == TaskStatus.RecordCreated, \"Invalid task status\");\n\n        // Check that worker isn't charging the user too high of a fee\n        require(task.gasLimit >= _gasUsed, \"Too much gas used for task\");\n\n        // Worker deploying task must be the appropriate worker as per the worker selection algorithm\n        address selectedWorker = getWorkerGroup(task.blockNumber, _taskId)[0];\n        require(msg.sender == selectedWorker, \"Not the selected worker for this task\");\n\n        // Verify the worker's signature\n        bytes32 msgHash = keccak256(abi.encodePacked(task.inputsHash, _codeHash, _initStateDeltaHash, _gasUsed, true));\n        require(msgHash.recover(_sig) == workers[msg.sender].signer, \"Invalid signature\");\n\n        // Set the secret contract's attributes in registry\n        SecretContract storage secretContract = contracts[_taskId];\n        secretContract.owner = task.sender;\n        secretContract.preCodeHash = _preCodeHash;\n        secretContract.codeHash = _codeHash;\n        secretContract.status = SecretContractStatus.Deployed;\n        secretContract.stateDeltaHashes.push(_initStateDeltaHash);\n        scAddresses.push(_taskId);\n\n        // Finalize task record for deployment task\n        task.proof = _sig;\n        task.status = TaskStatus.ReceiptVerified;\n\n        // Credit worker with the fees associated with this task\n        workers[msg.sender].balance = workers[msg.sender].balance.add(_gasUsed.mul(task.gasPx));\n\n        // Credit the task sender with the unused gas fees\n        require(engToken.transfer(task.sender, (task.gasLimit.sub(_gasUsed)).mul(task.gasPx)), \"Token transfer failed\");\n\n        emit SecretContractDeployed(_taskId, _codeHash);\n    }\n\n    /**\n    * Check if secret contract has been deployed\n    *\n    * @param _scAddr Secret contract address\n    * @return  true/false\n    */\n    function isDeployed(bytes32 _scAddr)\n    public\n    view\n    returns (bool)\n    {\n        if (contracts[_scAddr].status == SecretContractStatus.Deployed) {\n            return true;\n        } else {\n            return false;\n        }\n    }\n\n    /**\n    * Check if secret contract has been deployed\n    *\n    * @return  Number of deployed secret contracts\n    */\n    function countSecretContracts()\n    public\n    view\n    returns (uint)\n    {\n        return scAddresses.length;\n    }\n\n    /**\n    * Get deployed secret contract addresses within a range\n    *\n    * @param _start Start of range\n    * @param _stop End of range\n    * @return Subset of deployed secret contract addresses\n    */\n    function getSecretContractAddresses(uint _start, uint _stop)\n    public\n    view\n    returns (bytes32[] memory)\n    {\n        if (_stop == 0) {\n            _stop = scAddresses.length;\n        }\n        bytes32[] memory addresses = new bytes32[](_stop.sub(_start));\n        uint pos = 0;\n        for (uint i = _start; i < _stop; i++) {\n            addresses[pos] = scAddresses[i];\n            pos++;\n        }\n        return addresses;\n    }\n\n    /**\n    * Count state deltas for a deployed secret contract\n    *\n    * @param _scAddr Secret contract address\n    * @return Number of state deltas for deployed secret contract\n    */\n    function countStateDeltas(bytes32 _scAddr)\n    public\n    view\n    contractDeployed(_scAddr)\n    returns (uint)\n    {\n        return contracts[_scAddr].stateDeltaHashes.length;\n    }\n\n    /**\n    * Obtain state delta hash for a deployed secret contract at a particular index\n    *\n    * @param _scAddr Secret contract address\n    * @param _index Index in list of state deltas\n    * @return State delta hash\n    */\n    function getStateDeltaHash(bytes32 _scAddr, uint _index)\n    public\n    view\n    contractDeployed(_scAddr)\n    returns (bytes32)\n    {\n        return contracts[_scAddr].stateDeltaHashes[_index];\n    }\n\n    /**\n    * Obtain state delta hashes for a deployed secret contract within a range\n    *\n    * @param _start Start of range\n    * @param _stop End of range\n    * @return Subset of state delta hashes for deployed secret contract\n    */\n    function getStateDeltaHashes(bytes32 _scAddr, uint _start, uint _stop)\n    public\n    view\n    contractDeployed(_scAddr)\n    returns (bytes32[] memory)\n    {\n        if (_stop == 0) {\n            _stop = contracts[_scAddr].stateDeltaHashes.length;\n        }\n        bytes32[] memory deltas = new bytes32[](_stop.sub(_start));\n        uint pos = 0;\n        for (uint i = _start; i < _stop; i++) {\n            deltas[pos] = contracts[_scAddr].stateDeltaHashes[i];\n            pos++;\n        }\n        return deltas;\n    }\n\n    /**\n    * Check if particular state delta hash for a deployed secret contract is valid\n    *\n    * @param _scAddr Secret contract address\n    * @param _stateDeltaHash State delta hash\n    * @return true/false\n    */\n    function isValidDeltaHash(bytes32 _scAddr, bytes32 _stateDeltaHash)\n    public\n    view\n    contractDeployed(_scAddr)\n    returns (bool)\n    {\n        bool valid = false;\n        for (uint i = 0; i < contracts[_scAddr].stateDeltaHashes.length; i++) {\n            if (contracts[_scAddr].stateDeltaHashes[i] == _stateDeltaHash) {\n                valid = true;\n                break;\n            }\n        }\n        return valid;\n    }\n\n    /**\n    * Create task record for contract deployment. This is necessary for transferring task fee from sender to contract,\n    * generating the unique taskId, saving the block number when the record was mined, and incrementing the user's\n    * task deployment counter nonce. We revert the process if the locally-generated nonce value does not match\n    * the on-chain-computed nonce since this indicates that the secret contract address the user has generated is\n    * invalid.\n    *\n    * @param _inputsHash Hash of encrypted fn sig, encrypted ABI-encoded args, and predeployed bytecode hash\n    * @param _gasLimit ENG gas limit\n    * @param _gasPx ENG gas price in grains format (10 ** 8)\n    * @param _firstBlockNumber Locally-computed first block number of epoch\n    * @param _nonce Locally-computed nonce value for this deployment\n    */\n    function createDeploymentTaskRecord(\n        bytes32 _inputsHash,\n        uint _gasLimit,\n        uint _gasPx,\n        uint _firstBlockNumber,\n        uint _nonce\n    )\n    public\n    {\n        // Check that the locally-generated nonce matches the on-chain value, otherwise _scAddr is invalid\n        require(userTaskDeployments[msg.sender] == _nonce, \"Incorrect nonce yielding bad secret contract address\");\n\n        // Worker deploying task must be the appropriate worker as per the worker selection algorithm\n        require(_firstBlockNumber == getFirstBlockNumber(block.number), \"Wrong epoch for this task\");\n\n        // Transfer fee from sender to contract\n        uint fee = _gasLimit.mul(_gasPx);\n        require(engToken.allowance(msg.sender, address(this)) >= fee, \"Allowance not enough\");\n        require(engToken.transferFrom(msg.sender, address(this), fee), \"Transfer not valid\");\n\n        // Create taskId and TaskRecord\n        bytes32 taskId = keccak256(abi.encodePacked(msg.sender, userTaskDeployments[msg.sender]));\n        TaskRecord storage task = tasks[taskId];\n        require(task.sender == address(0), \"Task already exists\");\n        task.inputsHash = _inputsHash;\n        task.gasLimit = _gasLimit;\n        task.gasPx = _gasPx;\n        task.sender = msg.sender;\n        task.blockNumber = block.number;\n        task.status = TaskStatus.RecordCreated;\n\n        // Increment user task deployment nonce\n        userTaskDeployments[msg.sender]++;\n\n        emit TaskRecordCreated(taskId, _gasLimit, _gasPx, msg.sender);\n    }\n\n    /**\n    * Create task record for task for regular tasks. This is necessary for transferring task fee from sender to\n    * contract, generating the unique taskId, saving the block number when the record was mined, and incrementing\n    * the user's task deployment counter nonce.\n    *\n    * @param _inputsHash Hash of encrypted fn sig, encrypted ABI-encoded args, and contract address\n    * @param _gasLimit ENG gas limit\n    * @param _gasPx ENG gas price in grains format (10 ** 8)\n    * @param _firstBlockNumber Locally-computed first block number of epoch\n    */\n    function createTaskRecord(\n        bytes32 _inputsHash,\n        uint _gasLimit,\n        uint _gasPx,\n        uint _firstBlockNumber\n    )\n    public\n    {\n        // Worker deploying task must be the appropriate worker as per the worker selection algorithm\n        require(_firstBlockNumber == getFirstBlockNumber(block.number), \"Wrong epoch for this task\");\n\n        // Transfer fee from sender to contract\n        uint fee = _gasLimit.mul(_gasPx);\n        require(engToken.allowance(msg.sender, address(this)) >= fee, \"Allowance not enough\");\n        require(engToken.transferFrom(msg.sender, address(this), fee), \"Transfer not valid\");\n\n        // Create taskId and TaskRecord\n        bytes32 taskId = keccak256(abi.encodePacked(msg.sender, userTaskDeployments[msg.sender]));\n        TaskRecord storage task = tasks[taskId];\n        require(task.sender == address(0), \"Task already exists\");\n        task.inputsHash = _inputsHash;\n        task.gasLimit = _gasLimit;\n        task.gasPx = _gasPx;\n        task.sender = msg.sender;\n        task.blockNumber = block.number;\n        task.status = TaskStatus.RecordCreated;\n\n        // Increment user task deployment nonce\n        userTaskDeployments[msg.sender]++;\n\n        emit TaskRecordCreated(taskId, _gasLimit, _gasPx, msg.sender);\n    }\n\n    /**\n    * Create task records for tasks (either contract deployment or regular tasks). This is necessary for\n    * transferring task fee from sender to contract, generating the unique taskId, saving the block number\n    * when the record was mined, and incrementing the user's task deployment counter nonce.\n    *\n    * @param _inputsHashes Hashes of encrypted fn sig, encrypted ABI-encoded args, and contract address\n    * @param _gasLimits ENG gas limit\n    * @param _gasPxs ENG gas price in grains format (10 ** 8)\n    * @param _firstBlockNumber Locally-computed first block number of epoch\n    */\n    function createTaskRecords(\n        bytes32[] memory _inputsHashes,\n        uint[] memory _gasLimits,\n        uint[] memory _gasPxs,\n        uint _firstBlockNumber\n    )\n    public\n    {\n        // Worker deploying task must be the appropriate worker as per the worker selection algorithm\n        require(_firstBlockNumber == getFirstBlockNumber(block.number), \"Wrong epoch for this task\");\n\n        bytes32[] memory taskIds = new bytes32[](_inputsHashes.length);\n        for (uint i = 0; i < _inputsHashes.length; i++) {\n            // Transfer fee from sender to contract\n            uint fee = _gasLimits[i].mul(_gasPxs[i]);\n            require(engToken.allowance(msg.sender, address(this)) >= fee, \"Allowance not enough\");\n            require(engToken.transferFrom(msg.sender, address(this), fee), \"Transfer not valid\");\n\n            // Create taskId and TaskRecord\n            bytes32 taskId = keccak256(abi.encodePacked(msg.sender, userTaskDeployments[msg.sender]));\n            TaskRecord storage task = tasks[taskId];\n            require(task.sender == address(0), \"Task already exists\");\n            taskIds[i] = taskId;\n            task.inputsHash = _inputsHashes[i];\n            task.gasLimit = _gasLimits[i];\n            task.gasPx = _gasPxs[i];\n            task.sender = msg.sender;\n            task.blockNumber = block.number;\n            task.status = TaskStatus.RecordCreated;\n\n            // Increment user task deployment nonce\n            userTaskDeployments[msg.sender]++;\n        }\n        emit TaskRecordsCreated(taskIds, _gasLimits, _gasPxs, msg.sender);\n    }\n\n    // Execute the encoded function in the specified contract\n    function executeCall(address _to, uint256 _value, bytes memory _data)\n    internal\n    returns (bool success)\n    {\n        assembly {\n            success := call(gas, _to, _value, add(_data, 0x20), mload(_data), 0, 0)\n        }\n    }\n\n    /**\n    * Verify the task receipt prior to committing/finalizing it on chain.\n    *\n    * @param _scAddr Secret contract address\n    * @param _taskId Unique taskId\n    * @param _stateDeltaHash Input state delta hash\n    * @param _gasUsed Gas used for task computation\n    * @param _sender Worker address\n    * @param _sig Worker's signature\n    */\n    function verifyReceipt(bytes32 _scAddr, bytes32 _taskId, bytes32 _stateDeltaHash, uint _gasUsed, address _sender,\n        bytes memory _sig)\n    internal\n    {\n        TaskRecord storage task = tasks[_taskId];\n        require(task.status == TaskStatus.RecordCreated, 'Invalid task status');\n\n        // Worker deploying task must be the appropriate worker as per the worker selection algorithm\n        require(_sender == getWorkerGroup(task.blockNumber, _scAddr)[0], \"Not the selected worker for this task\");\n\n        // Check that worker isn't charging the user too high of a fee\n        require(task.gasLimit >= _gasUsed, \"Too much gas used for task\");\n\n        // Update proof and status attributes of TaskRecord\n        task.proof = _sig;\n        task.status = TaskStatus.ReceiptVerified;\n\n        // Credit worker with the fees associated with this task\n        workers[_sender].balance = workers[_sender].balance.add(_gasUsed.mul(task.gasPx));\n\n        // Credit the task sender with the unused gas fees\n        require(engToken.transfer(task.sender, (task.gasLimit.sub(_gasUsed)).mul(task.gasPx)),\n            \"Token transfer failed\");\n    }\n\n    /**\n    * Commit the computation task results on chain by first verifying the receipt and then the worker's signature.\n    * The task record is finalized and the worker is credited with the task's fee.\n    *\n    * @param _scAddr Secret contract address\n    * @param _taskId Unique taskId\n    * @param _stateDeltaHash Input state delta hash\n    * @param _outputHash Output state hash\n    * @param _gasUsed Gas used for task computation\n    * @param _ethCall Eth call\n    * @param _sig Worker's signature\n    */\n    function commitReceipt(\n        bytes32 _scAddr,\n        bytes32 _taskId,\n        bytes32 _stateDeltaHash,\n        bytes32 _outputHash,\n        uint _gasUsed,\n        bytes memory _ethCall,\n        bytes memory _sig\n    )\n    public\n    workerLoggedIn(msg.sender)\n    contractDeployed(_scAddr)\n    {\n        SecretContract storage secretContract = contracts[_scAddr];\n        // Obtain the last state delta hash the contract is aware of\n        bytes32 lastStateDeltaHash = secretContract.stateDeltaHashes[secretContract.stateDeltaHashes.length - 1];\n\n        // Verify the receipt\n        verifyReceipt(_scAddr, _taskId, _stateDeltaHash, _gasUsed, msg.sender, _sig);\n        bytes32 inputsHash = tasks[_taskId].inputsHash;\n\n        // Append the new state delta hash and set the contract's output hash\n        secretContract.stateDeltaHashes.push(_stateDeltaHash);\n        secretContract.outputHash = _outputHash;\n\n        // Check worker's signature\n        bytes32 msgHash = keccak256(abi.encodePacked(inputsHash, secretContract.codeHash, _stateDeltaHash,\n            _outputHash, _gasUsed, lastStateDeltaHash, true));\n        require(msgHash.recover(_sig) == workers[msg.sender].signer, \"Invalid signature\");\n\n        emit ReceiptVerified(_taskId, _stateDeltaHash, _outputHash, _ethCall, _sig);\n    }\n\n    /**\n   * Commit the computation task results on chain by first verifying the receipts and then the worker's signature.\n   * The task records are finalized and the worker is credited with the tasks' fees.\n   *\n   * @param _scAddr Secret contract address\n   * @param _taskIds Unique taskId\n   * @param _stateDeltaHashes Input state delta hashes\n   * @param _outputHash Output state hashes\n   * @param _ethCall Eth call\n   * @param _sig Worker's signature\n   */\n    function commitReceipts(\n        bytes32 _scAddr,\n        bytes32[] memory _taskIds,\n        bytes32[] memory _stateDeltaHashes,\n        bytes32 _outputHash,\n        uint[] memory _gasesUsed,\n        bytes memory _ethCall,\n        bytes memory _sig\n    )\n    public\n    workerLoggedIn(msg.sender)\n    contractDeployed(_scAddr)\n    {\n        bytes32[] memory inputsHashes = new bytes32[](_taskIds.length);\n        SecretContract storage secretContract = contracts[_scAddr];\n        // Obtain the last state delta hash the contract is aware of\n        bytes32 lastStateDeltaHash = secretContract.stateDeltaHashes[secretContract.stateDeltaHashes.length - 1];\n\n        for (uint i = 0; i < _taskIds.length; i++) {\n            // Verify the receipt\n            verifyReceipt(_scAddr, _taskIds[i], _stateDeltaHashes[i], _gasesUsed[i], msg.sender, _sig);\n            inputsHashes[i] = tasks[_taskIds[i]].inputsHash;\n\n            // Append the new state delta hash\n            secretContract.stateDeltaHashes.push(_stateDeltaHashes[i]);\n        }\n\n        //  Set the contract's output hash\n        secretContract.outputHash = _outputHash;\n\n        // Check worker's signature\n        bytes32 msgHash = keccak256(abi.encodePacked(inputsHashes, secretContract.codeHash, _stateDeltaHashes,\n            _outputHash, _gasesUsed, lastStateDeltaHash, true));\n        require(msgHash.recover(_sig) == workers[msg.sender].signer, \"Invalid signature\");\n\n        emit ReceiptsVerified(_taskIds, _stateDeltaHashes, _outputHash, _ethCall, _sig);\n    }\n\n    /**\n    * Commit the computation task results on chain by first verifying the receipt and then the worker's signature.\n    * After this, the task record is finalized and the worker is credited with the task's fee.\n    *\n    * @param _scAddr Secret contract address\n    * @param _taskId Unique taskId\n    * @param _gasUsed Gas used for task computation\n    * @param _ethCall Eth call\n    * @param _sig Worker's signature\n    */\n    function commitTaskFailure(\n        bytes32 _scAddr,\n        bytes32 _taskId,\n        uint _gasUsed,\n        bytes memory _ethCall,\n        bytes memory _sig\n    )\n    public\n    workerLoggedIn(msg.sender)\n    contractDeployed(_scAddr)\n    {\n        SecretContract storage secretContract = contracts[_scAddr];\n        bytes32 lastStateDeltaHash = secretContract.stateDeltaHashes[secretContract.stateDeltaHashes.length - 1];\n\n        TaskRecord storage task = tasks[_taskId];\n        require(task.status == TaskStatus.RecordCreated, 'Invalid task status');\n\n        // Worker deploying task must be the appropriate worker as per the worker selection algorithm\n        require(msg.sender == getWorkerGroup(task.blockNumber, _scAddr)[0], \"Not the selected worker for this task\");\n\n        // Check that worker isn't charging the user too high of a fee\n        require(task.gasLimit >= _gasUsed, \"Too much gas used for task\");\n\n        // Update proof and status attributes of TaskRecord\n        task.proof = _sig;\n        task.status = TaskStatus.ReceiptFailed;\n\n        // Credit worker with the fees associated with this task\n        workers[msg.sender].balance = workers[msg.sender].balance.add(_gasUsed.mul(task.gasPx));\n\n        // Credit the task sender with the unused gas fees\n        require(engToken.transfer(task.sender, (task.gasLimit.sub(_gasUsed)).mul(task.gasPx)),\n            \"Token transfer failed\");\n\n        bytes32 inputsHash = tasks[_taskId].inputsHash;\n\n        // Check worker's signature\n        bytes32 msgHash = keccak256(abi.encodePacked(inputsHash, secretContract.codeHash, _gasUsed, lastStateDeltaHash,\n            false));\n        require(msgHash.recover(_sig) == workers[msg.sender].signer, \"Invalid signature\");\n\n        emit ReceiptFailed(_taskId, _ethCall, _sig);\n    }\n\n    function returnFeesForTask(bytes32 _taskId) public taskWaiting(_taskId) {\n        TaskRecord storage task = tasks[_taskId];\n\n        // Ensure that the timeout window has elapsed, allowing for a fee return\n        require(block.number - task.blockNumber > taskTimeoutSize, \"Task timeout window has not elapsed yet\");\n\n        // Return the full fee to the task sender\n        require(engToken.transfer(task.sender, task.gasLimit.mul(task.gasPx)), \"Token transfer failed\");\n\n        // Set task's status to ReceiptFailed and emit event\n        task.status = TaskStatus.ReceiptFailed;\n        emit TaskFeeReturned(_taskId);\n    }\n\n    // Verify the signature submitted while reparameterizing workers\n    function verifyParamsSig(uint256 _seed, bytes memory _sig)\n    internal\n    pure\n    returns (address)\n    {\n        bytes32 hash = keccak256(abi.encodePacked(_seed));\n        address signer = hash.recover(_sig);\n        return signer;\n    }\n\n    /**\n    * Reparameterizing workers with a new seed\n    * This should be called for each epoch by the Principal node\n    *\n    * @param _seed The random integer generated by the enclave\n    * @param _sig The random integer signed by the the principal node's enclave\n    */\n    function setWorkersParams(uint _seed, bytes memory _sig)\n    public\n    workerRegistered(msg.sender)\n    {\n        // Reparameterizing workers with a new seed\n        // This should be called for each epoch by the Principal node\n\n        // We assume that the Principal is always the first registered node\n        require(workers[msg.sender].signer == principal, \"Only the Principal can update the seed\");\n        // TODO: verify the principal sig\n\n        // Create a new workers parameters item for the specified seed.\n        // The workers parameters list is a sort of cache, it never grows beyond its limit.\n        // If the list is full, the new item will replace the item assigned to the lowest block number.\n        uint paramIndex = 0;\n        for (uint pi = 0; pi < workersParams.length; pi++) {\n            // Find an empty slot in the array, if full use the lowest block number\n            if (workersParams[pi].firstBlockNumber == 0) {\n                paramIndex = pi;\n                break;\n            } else if (workersParams[pi].firstBlockNumber < workersParams[paramIndex].firstBlockNumber) {\n                paramIndex = pi;\n            }\n        }\n        workersParams[paramIndex].firstBlockNumber = block.number;\n        workersParams[paramIndex].seed = _seed;\n        workersParams[paramIndex].nonce = userTaskDeployments[msg.sender];\n\n        // Copy the current worker list\n        uint workerIndex = 0;\n        for (uint wi = 0; wi < workerAddresses.length; wi++) {\n            Worker memory worker = workers[workerAddresses[wi]];\n            if ((worker.balance >= stakingThreshold) && (worker.signer != principal) &&\n                (worker.status == WorkerStatus.LoggedIn)) {\n                workersParams[paramIndex].workers.length++;\n                workersParams[paramIndex].workers[workerIndex] = workerAddresses[wi];\n\n                workersParams[paramIndex].balances.length++;\n                workersParams[paramIndex].balances[workerIndex] = worker.balance;\n\n                workerIndex = workerIndex.add(1);\n            }\n        }\n        emit WorkersParameterized(_seed, block.number, workersParams[paramIndex].workers,\n            workersParams[paramIndex].balances, userTaskDeployments[msg.sender]);\n        userTaskDeployments[msg.sender]++;\n    }\n\n    function getWorkerParamsIndex(uint _blockNumber)\n    internal\n    view\n    returns (uint)\n    {\n        // The workers parameters for a given block number\n        int8 index = - 1;\n        for (uint i = 0; i < workersParams.length; i++) {\n            if (workersParams[i].firstBlockNumber <= _blockNumber && (index == - 1 || workersParams[i].firstBlockNumber > workersParams[uint(index)].firstBlockNumber)) {\n                index = int8(i);\n            }\n        }\n        require(index != - 1, \"No workers parameters entry for specified block number\");\n        return uint(index);\n    }\n\n    function getParams(uint _blockNumber) internal view returns (WorkersParams memory) {\n        uint index = getWorkerParamsIndex(_blockNumber);\n        return workersParams[index];\n    }\n\n    function getFirstBlockNumber(uint _blockNumber)\n    public\n    view\n    returns (uint) {\n        WorkersParams memory params = getParams(_blockNumber);\n        return params.firstBlockNumber;\n    }\n\n    function getWorkerParams(uint _blockNumber)\n    public\n    view\n    returns (uint, uint, address[] memory, uint[] memory) {\n        WorkersParams memory params = getParams(_blockNumber);\n        return (params.firstBlockNumber, params.seed, params.workers, params.balances);\n    }\n\n    /**\n    * Select a worker for the computation task pseudorandomly based on the epoch, secret contract address, and nonce\n    *\n    * @param _paramIndex Param index\n    * @param _scAddr Secret contract address\n    * @param _nonce Counter\n    * @return Selected worker's address\n    */\n    function selectWeightedRandomWorker(uint _paramIndex, bytes32 _scAddr, uint _nonce)\n    internal\n    view\n    returns (address)\n    {\n        WorkersParams memory params = workersParams[_paramIndex];\n        uint tokenCpt = 0;\n        for (uint i = 0; i < params.workers.length; i++) {\n            if (params.workers[i] != address(0)) {\n                tokenCpt = tokenCpt.add(params.balances[i]);\n            }\n        }\n        bytes32 randHash = keccak256(abi.encodePacked(params.seed, _scAddr, _nonce));\n        int randVal = int256(uint256(randHash) % tokenCpt);\n        for (uint k = 0; k < params.workers.length; k++) {\n            if (params.workers[k] != address(0)) {\n                randVal -= int256(params.balances[k]);\n                if (randVal <= 0) {\n                    return params.workers[k];\n                }\n            }\n        }\n        return params.workers[params.workers.length - 1];\n    }\n\n    /**\n    * Select a group of workers for the computation task given the block number of the task record (implies the epoch)\n    * and the secret contract address.\n    *\n    * @param _blockNumber Block number the task record was mined\n    * @param _scAddr Secret contract address\n    * @return Selected workers' addresses\n    */\n    function getWorkerGroup(uint _blockNumber, bytes32 _scAddr)\n    public\n    view\n    returns (address[] memory)\n    {\n        // Compile a list of selected workers for the block number and\n        // secret contract.\n        uint paramIndex = getWorkerParamsIndex(_blockNumber);\n\n        address[] memory selectedWorkers = new address[](workerGroupSize);\n        uint nonce = 0;\n        for (uint it = 0; it < workerGroupSize; it++) {\n            do {\n                address worker = selectWeightedRandomWorker(paramIndex, _scAddr, nonce);\n                bool dup = false;\n                for (uint id = 0; id < selectedWorkers.length; id++) {\n                    if (worker == selectedWorkers[id]) {\n                        dup = true;\n                        break;\n                    }\n                }\n                if (dup == false) {\n                    selectedWorkers[it] = worker;\n                }\n                nonce++;\n            }\n            while (selectedWorkers[it] == address(0));\n        }\n        return selectedWorkers;\n    }\n\n    /**\n    * The RLP encoded report returned by the IAS server\n    *\n    * @param _custodian The worker's custodian address\n    */\n    function getReport(address _custodian)\n    public\n    view\n    workerRegistered(_custodian)\n    returns (address, bytes memory)\n    {\n        // The RLP encoded report and signer's address for the specified worker\n        require(workers[_custodian].signer != address(0), \"Worker not registered\");\n        return (workers[_custodian].signer, workers[_custodian].report);\n    }\n\n\n    /**\n    * This verifies an IAS report with hard coded modulus and exponent of Intel's certificate.\n    * @param data The report itself\n    * @param signature The signature of the report\n    */\n    function verifyReport(bytes memory data, bytes memory signature)\n    public\n    view\n    returns (uint) {\n        /*\n        this is the modulus and the exponent of intel's certificate, you can extract it using:\n        `openssl x509 -noout -modulus -in intel.cert`\n        and `openssl x509 -in intel.cert  -text`\n        */\n        bytes memory exponent = hex\"0000000000000000000000000000000000000000000000000000000000000000000000000000000000000000000000000000000000000000000000000000000000000000000000000000000000000000000000000000000000000000000000000000000000000000000000000000000000000000000000000000000000010001\";\n        bytes memory modulus = hex\"A97A2DE0E66EA6147C9EE745AC0162686C7192099AFC4B3F040FAD6DE093511D74E802F510D716038157DCAF84F4104BD3FED7E6B8F99C8817FD1FF5B9B864296C3D81FA8F1B729E02D21D72FFEE4CED725EFE74BEA68FBC4D4244286FCDD4BF64406A439A15BCB4CF67754489C423972B4A80DF5C2E7C5BC2DBAF2D42BB7B244F7C95BF92C75D3B33FC5410678A89589D1083DA3ACC459F2704CD99598C275E7C1878E00757E5BDB4E840226C11C0A17FF79C80B15C1DDB5AF21CC2417061FBD2A2DA819ED3B72B7EFAA3BFEBE2805C9B8AC19AA346512D484CFC81941E15F55881CC127E8F7AA12300CD5AFB5742FA1D20CB467A5BEB1C666CF76A368978B5\";\n\n        return SolRsaVerify.pkcs1Sha256VerifyRaw(data, signature, exponent, modulus);\n    }\n}\n",
  "sourcePath": "/home/fredfortier/Code/Enigma/discovery/enigma-contract-internal/contracts/Enigma.sol",
  "compiler": {
    "name": "solc",
    "version": "0.5.0+commit.1d4f565a.Emscripten.clang"
  },
  "schemaVersion": "3.0.1",
  "updatedAt": "2019-01-30T20:01:06.921Z",
  "devdoc": {
    "methods": {
      "commitReceipt(bytes32,bytes32,bytes32,bytes32,uint256,bytes,bytes)": {
        "params": {
          "_ethCall": "Eth call",
          "_gasUsed": "Gas used for task computation",
          "_outputHash": "Output state hash",
          "_scAddr": "Secret contract address",
          "_sig": "Worker's signature",
          "_stateDeltaHash": "Input state delta hash",
          "_taskId": "Unique taskId"
        }
      },
      "commitReceipts(bytes32,bytes32[],bytes32[],bytes32,uint256[],bytes,bytes)": {
        "params": {
          "_ethCall": "Eth call",
          "_outputHash": "Output state hashes",
          "_scAddr": "Secret contract address",
          "_sig": "Worker's signature",
          "_stateDeltaHashes": "Input state delta hashes",
          "_taskIds": "Unique taskId"
        }
      },
      "commitTaskFailure(bytes32,bytes32,uint256,bytes,bytes)": {
        "params": {
          "_ethCall": "Eth call",
          "_gasUsed": "Gas used for task computation",
          "_scAddr": "Secret contract address",
          "_sig": "Worker's signature",
          "_taskId": "Unique taskId"
        }
      },
      "countSecretContracts()": {
        "return": "Number of deployed secret contracts"
      },
      "countStateDeltas(bytes32)": {
        "params": {
          "_scAddr": "Secret contract address"
        },
        "return": "Number of state deltas for deployed secret contract"
      },
      "createDeploymentTaskRecord(bytes32,uint256,uint256,uint256,uint256)": {
        "params": {
          "_firstBlockNumber": "Locally-computed first block number of epoch",
          "_gasLimit": "ENG gas limit",
          "_gasPx": "ENG gas price in grains format (10 ** 8)",
          "_inputsHash": "Hash of encrypted fn sig, encrypted ABI-encoded args, and predeployed bytecode hash",
          "_nonce": "Locally-computed nonce value for this deployment"
        }
      },
      "createTaskRecord(bytes32,uint256,uint256,uint256)": {
        "params": {
          "_firstBlockNumber": "Locally-computed first block number of epoch",
          "_gasLimit": "ENG gas limit",
          "_gasPx": "ENG gas price in grains format (10 ** 8)",
          "_inputsHash": "Hash of encrypted fn sig, encrypted ABI-encoded args, and contract address"
        }
      },
      "createTaskRecords(bytes32[],uint256[],uint256[],uint256)": {
        "params": {
          "_firstBlockNumber": "Locally-computed first block number of epoch",
          "_gasLimits": "ENG gas limit",
          "_gasPxs": "ENG gas price in grains format (10 ** 8)",
          "_inputsHashes": "Hashes of encrypted fn sig, encrypted ABI-encoded args, and contract address"
        }
      },
      "deploySecretContract(bytes32,bytes32,bytes32,bytes32,uint256,bytes)": {
        "params": {
          "_codeHash": "Deployed bytecode hash",
          "_gasUsed": "Gas used for task",
          "_initStateDeltaHash": "Initial state delta hash as a result of the contract's constructor",
          "_preCodeHash": "Predeployed bytecode hash",
          "_sig": "Worker's signature for deployment",
          "_taskId": "Task ID of corresponding deployment task (taskId == scAddr)"
        }
      },
      "deposit(address,uint256)": {
        "params": {
          "_amount": "The amount of ENG, in grains format (10 ** 8), to deposit",
          "_custodian": "The worker's ETH address"
        }
      },
      "getReport(address)": {
        "params": {
          "_custodian": "The worker's custodian address"
        }
      },
      "getSecretContractAddresses(uint256,uint256)": {
        "params": {
          "_start": "Start of range",
          "_stop": "End of range"
        },
        "return": "Subset of deployed secret contract addresses"
      },
      "getStateDeltaHash(bytes32,uint256)": {
        "params": {
          "_index": "Index in list of state deltas",
          "_scAddr": "Secret contract address"
        },
        "return": "State delta hash"
      },
      "getStateDeltaHashes(bytes32,uint256,uint256)": {
        "params": {
          "_start": "Start of range",
          "_stop": "End of range"
        },
        "return": "Subset of state delta hashes for deployed secret contract"
      },
      "getWorkerGroup(uint256,bytes32)": {
        "params": {
          "_blockNumber": "Block number the task record was mined",
          "_scAddr": "Secret contract address"
        },
        "return": "Selected workers' addresses"
      },
      "isDeployed(bytes32)": {
        "params": {
          "_scAddr": "Secret contract address"
        },
        "return": "true/false"
      },
      "isValidDeltaHash(bytes32,bytes32)": {
        "params": {
          "_scAddr": "Secret contract address",
          "_stateDeltaHash": "State delta hash"
        },
        "return": "true/false"
      },
      "register(address,bytes,bytes)": {
        "params": {
          "_report": "The RLP encoded report returned by the IAS",
          "_signer": "The signer address, derived from the enclave public key"
        }
      },
      "setWorkersParams(uint256,bytes)": {
        "params": {
          "_seed": "The random integer generated by the enclave",
          "_sig": "The random integer signed by the the principal node's enclave"
        }
      },
      "verifyReport(bytes,bytes)": {
        "params": {
          "data": "The report itself",
          "signature": "The signature of the report"
        }
      },
      "withdraw(address,uint256)": {
        "params": {
          "_amount": "The amount of ENG, in grains format (10 ** 8), to deposit",
          "_custodian": "The worker's ETH address"
        }
      }
    }
  },
  "userdoc": {
    "methods": {
      "commitReceipt(bytes32,bytes32,bytes32,bytes32,uint256,bytes,bytes)": {
        "notice": "Commit the computation task results on chain by first verifying the receipt and then the worker's signature. The task record is finalized and the worker is credited with the task's fee."
      },
      "commitReceipts(bytes32,bytes32[],bytes32[],bytes32,uint256[],bytes,bytes)": {
        "notice": "Commit the computation task results on chain by first verifying the receipts and then the worker's signature. The task records are finalized and the worker is credited with the tasks' fees."
      },
      "commitTaskFailure(bytes32,bytes32,uint256,bytes,bytes)": {
        "notice": "Commit the computation task results on chain by first verifying the receipt and then the worker's signature. After this, the task record is finalized and the worker is credited with the task's fee."
      },
      "countSecretContracts()": {
        "notice": "Check if secret contract has been deployed"
      },
      "countStateDeltas(bytes32)": {
        "notice": "Count state deltas for a deployed secret contract"
      },
      "createDeploymentTaskRecord(bytes32,uint256,uint256,uint256,uint256)": {
        "notice": "Create task record for contract deployment. This is necessary for transferring task fee from sender to contract, generating the unique taskId, saving the block number when the record was mined, and incrementing the user's task deployment counter nonce. We revert the process if the locally-generated nonce value does not match the on-chain-computed nonce since this indicates that the secret contract address the user has generated is invalid."
      },
      "createTaskRecord(bytes32,uint256,uint256,uint256)": {
        "notice": "Create task record for task for regular tasks. This is necessary for transferring task fee from sender to contract, generating the unique taskId, saving the block number when the record was mined, and incrementing the user's task deployment counter nonce."
      },
      "createTaskRecords(bytes32[],uint256[],uint256[],uint256)": {
        "notice": "Create task records for tasks (either contract deployment or regular tasks). This is necessary for transferring task fee from sender to contract, generating the unique taskId, saving the block number when the record was mined, and incrementing the user's task deployment counter nonce."
      },
      "deploySecretContract(bytes32,bytes32,bytes32,bytes32,uint256,bytes)": {
        "notice": "Deploy secret contract from user, called by the worker."
      },
      "deposit(address,uint256)": {
        "notice": "Deposits ENG stake into contract from worker. Worker must be registered to do so."
      },
      "getReport(address)": {
        "notice": "The RLP encoded report returned by the IAS server"
      },
      "getSecretContractAddresses(uint256,uint256)": {
        "notice": "Get deployed secret contract addresses within a range"
      },
      "getStateDeltaHash(bytes32,uint256)": {
        "notice": "Obtain state delta hash for a deployed secret contract at a particular index"
      },
      "getStateDeltaHashes(bytes32,uint256,uint256)": {
        "notice": "Obtain state delta hashes for a deployed secret contract within a range"
      },
      "getWorkerGroup(uint256,bytes32)": {
        "notice": "Select a group of workers for the computation task given the block number of the task record (implies the epoch) and the secret contract address."
      },
      "isDeployed(bytes32)": {
        "notice": "Check if secret contract has been deployed"
      },
      "isValidDeltaHash(bytes32,bytes32)": {
        "notice": "Check if particular state delta hash for a deployed secret contract is valid"
      },
      "login()": {
        "notice": "Login worker. Worker must be registered to do so, and must be logged in at start of epoch to be part of worker selection process."
      },
      "logout()": {
        "notice": "Logout worker. Worker must be logged in to do so."
      },
      "register(address,bytes,bytes)": {
        "notice": "Registers a new worker of change the signer parameters of an existing worker. This should be called by every worker (and the principal) node in order to receive tasks."
      },
      "setWorkersParams(uint256,bytes)": {
        "notice": "Reparameterizing workers with a new seed This should be called for each epoch by the Principal node"
      },
      "verifyReport(bytes,bytes)": {
        "notice": "This verifies an IAS report with hard coded modulus and exponent of Intel's certificate."
      },
      "withdraw(address,uint256)": {
        "notice": "Withdraws ENG stake from contract back to worker. Worker must be registered to do so."
      }
    }
  }
}