{
  "contractName": "EnigmaToken",
  "abi": [
    {
      "constant": true,
      "inputs": [],
      "name": "name",
      "outputs": [
        {
          "name": "",
          "type": "string"
        }
      ],
      "payable": false,
      "stateMutability": "view",
      "type": "function",
      "signature": "0x06fdde03"
    },
    {
      "constant": true,
      "inputs": [],
      "name": "totalSupply",
      "outputs": [
        {
          "name": "",
          "type": "uint256"
        }
      ],
      "payable": false,
      "stateMutability": "view",
      "type": "function",
      "signature": "0x18160ddd"
    },
    {
      "constant": true,
      "inputs": [],
      "name": "INITIAL_SUPPLY",
      "outputs": [
        {
          "name": "",
          "type": "uint256"
        }
      ],
      "payable": false,
      "stateMutability": "view",
      "type": "function",
      "signature": "0x2ff2e9dc"
    },
    {
      "constant": true,
      "inputs": [],
      "name": "decimals",
      "outputs": [
        {
          "name": "",
          "type": "uint8"
        }
      ],
      "payable": false,
      "stateMutability": "view",
      "type": "function",
      "signature": "0x313ce567"
    },
    {
      "constant": false,
      "inputs": [
        {
          "name": "spender",
          "type": "address"
        },
        {
          "name": "addedValue",
          "type": "uint256"
        }
      ],
      "name": "increaseAllowance",
      "outputs": [
        {
          "name": "",
          "type": "bool"
        }
      ],
      "payable": false,
      "stateMutability": "nonpayable",
      "type": "function",
      "signature": "0x39509351"
    },
    {
      "constant": true,
      "inputs": [
        {
          "name": "owner",
          "type": "address"
        }
      ],
      "name": "balanceOf",
      "outputs": [
        {
          "name": "",
          "type": "uint256"
        }
      ],
      "payable": false,
      "stateMutability": "view",
      "type": "function",
      "signature": "0x70a08231"
    },
    {
      "constant": true,
      "inputs": [],
      "name": "symbol",
      "outputs": [
        {
          "name": "",
          "type": "string"
        }
      ],
      "payable": false,
      "stateMutability": "view",
      "type": "function",
      "signature": "0x95d89b41"
    },
    {
      "constant": false,
      "inputs": [
        {
          "name": "spender",
          "type": "address"
        },
        {
          "name": "subtractedValue",
          "type": "uint256"
        }
      ],
      "name": "decreaseAllowance",
      "outputs": [
        {
          "name": "",
          "type": "bool"
        }
      ],
      "payable": false,
      "stateMutability": "nonpayable",
      "type": "function",
      "signature": "0xa457c2d7"
    },
    {
      "inputs": [],
      "payable": false,
      "stateMutability": "nonpayable",
      "type": "constructor",
      "signature": "constructor"
    },
    {
      "anonymous": false,
      "inputs": [
        {
          "indexed": true,
          "name": "from",
          "type": "address"
        },
        {
          "indexed": true,
          "name": "to",
          "type": "address"
        },
        {
          "indexed": false,
          "name": "value",
          "type": "uint256"
        }
      ],
      "name": "Transfer",
      "type": "event",
      "signature": "0xddf252ad1be2c89b69c2b068fc378daa952ba7f163c4a11628f55a4df523b3ef"
    },
    {
      "anonymous": false,
      "inputs": [
        {
          "indexed": true,
          "name": "owner",
          "type": "address"
        },
        {
          "indexed": true,
          "name": "spender",
          "type": "address"
        },
        {
          "indexed": false,
          "name": "value",
          "type": "uint256"
        }
      ],
      "name": "Approval",
      "type": "event",
      "signature": "0x8c5be1e5ebec7d5bd14f71427d1e84f3dd0314c0f7b2291e5b200ac8c7c3b925"
    },
    {
      "constant": false,
      "inputs": [
        {
          "name": "_to",
          "type": "address"
        },
        {
          "name": "_value",
          "type": "uint256"
        }
      ],
      "name": "transfer",
      "outputs": [
        {
          "name": "",
          "type": "bool"
        }
      ],
      "payable": false,
      "stateMutability": "nonpayable",
      "type": "function",
      "signature": "0xa9059cbb"
    },
    {
      "constant": false,
      "inputs": [
        {
          "name": "_from",
          "type": "address"
        },
        {
          "name": "_to",
          "type": "address"
        },
        {
          "name": "_value",
          "type": "uint256"
        }
      ],
      "name": "transferFrom",
      "outputs": [
        {
          "name": "",
          "type": "bool"
        }
      ],
      "payable": false,
      "stateMutability": "nonpayable",
      "type": "function",
      "signature": "0x23b872dd"
    },
    {
      "constant": false,
      "inputs": [
        {
          "name": "_spender",
          "type": "address"
        },
        {
          "name": "_value",
          "type": "uint256"
        }
      ],
      "name": "approve",
      "outputs": [
        {
          "name": "",
          "type": "bool"
        }
      ],
      "payable": false,
      "stateMutability": "nonpayable",
      "type": "function",
      "signature": "0x095ea7b3"
    },
    {
      "constant": true,
      "inputs": [
        {
          "name": "_owner",
          "type": "address"
        },
        {
          "name": "_spender",
          "type": "address"
        }
      ],
      "name": "allowance",
      "outputs": [
        {
          "name": "",
          "type": "uint256"
        }
      ],
      "payable": false,
      "stateMutability": "view",
      "type": "function",
      "signature": "0xdd62ed3e"
    }
  ],
  "bytecode": "0x608060405234801561001057600080fd5b50604080518082018252600681527f456e69676d6100000000000000000000000000000000000000000000000000006020808301918252835180850190945260038085527f454e47000000000000000000000000000000000000000000000000000000000091850191909152825192939260089261008e92916101aa565b5081516100a29060049060208501906101aa565b506005805460ff191660ff92909216919091179055506100d490503366354a6ba7a180006401000000006100d9810204565b610245565b600160a060020a03821615156100ee57600080fd5b600254610108908264010000000061071b61019182021704565b600255600160a060020a03821660009081526020819052604090205461013b908264010000000061071b61019182021704565b600160a060020a0383166000818152602081815260408083209490945583518581529351929391927fddf252ad1be2c89b69c2b068fc378daa952ba7f163c4a11628f55a4df523b3ef9281900390910190a35050565b6000828201838110156101a357600080fd5b9392505050565b828054600181600116156101000203166002900490600052602060002090601f016020900481019282601f106101eb57805160ff1916838001178555610218565b82800160010185558215610218579182015b828111156102185782518255916020019190600101906101fd565b50610224929150610228565b5090565b61024291905b80821115610224576000815560010161022e565b90565b61087c806102546000396000f3fe6080604052600436106100b95763ffffffff7c010000000000000000000000000000000000000000000000000000000060003504166306fdde0381146100be578063095ea7b31461014857806318160ddd1461019557806323b872dd146101bc5780632ff2e9dc146101ff578063313ce56714610214578063395093511461023f57806370a082311461027857806395d89b41146102ab578063a457c2d7146102c0578063a9059cbb146102f9578063dd62ed3e14610332575b600080fd5b3480156100ca57600080fd5b506100d361036d565b6040805160208082528351818301528351919283929083019185019080838360005b8381101561010d5781810151838201526020016100f5565b50505050905090810190601f16801561013a5780820380516001836020036101000a031916815260200191505b509250505060405180910390f35b34801561015457600080fd5b506101816004803603604081101561016b57600080fd5b50600160a060020a038135169060200135610403565b604080519115158252519081900360200190f35b3480156101a157600080fd5b506101aa610416565b60408051918252519081900360200190f35b3480156101c857600080fd5b50610181600480360360608110156101df57600080fd5b50600160a060020a0381358116916020810135909116906040013561041c565b34801561020b57600080fd5b506101aa610431565b34801561022057600080fd5b5061022961043c565b6040805160ff9092168252519081900360200190f35b34801561024b57600080fd5b506101816004803603604081101561026257600080fd5b50600160a060020a038135169060200135610445565b34801561028457600080fd5b506101aa6004803603602081101561029b57600080fd5b5035600160a060020a03166104f5565b3480156102b757600080fd5b506100d3610510565b3480156102cc57600080fd5b50610181600480360360408110156102e357600080fd5b50600160a060020a038135169060200135610571565b34801561030557600080fd5b506101816004803603604081101561031c57600080fd5b50600160a060020a0381351690602001356105bc565b34801561033e57600080fd5b506101aa6004803603604081101561035557600080fd5b50600160a060020a03813581169160200135166105c8565b60038054604080516020601f60026000196101006001881615020190951694909404938401819004810282018101909252828152606093909290918301828280156103f95780601f106103ce576101008083540402835291602001916103f9565b820191906000526020600020905b8154815290600101906020018083116103dc57829003601f168201915b5050505050905090565b600061040f83836105d4565b9392505050565b60025490565b6000610429848484610652565b949350505050565b66354a6ba7a1800081565b60055460ff1690565b6000600160a060020a038316151561045c57600080fd5b336000908152600160209081526040808320600160a060020a0387168452909152902054610490908363ffffffff61071b16565b336000818152600160209081526040808320600160a060020a0389168085529083529281902085905580519485525191937f8c5be1e5ebec7d5bd14f71427d1e84f3dd0314c0f7b2291e5b200ac8c7c3b925929081900390910190a350600192915050565b600160a060020a031660009081526020819052604090205490565b60048054604080516020601f60026000196101006001881615020190951694909404938401819004810282018101909252828152606093909290918301828280156103f95780601f106103ce576101008083540402835291602001916103f9565b6000600160a060020a038316151561058857600080fd5b336000908152600160209081526040808320600160a060020a0387168452909152902054610490908363ffffffff61072d16565b600061040f8383610742565b600061040f8383610758565b6000600160a060020a03831615156105eb57600080fd5b336000818152600160209081526040808320600160a060020a03881680855290835292819020869055805186815290519293927f8c5be1e5ebec7d5bd14f71427d1e84f3dd0314c0f7b2291e5b200ac8c7c3b925929181900390910190a350600192915050565b600160a060020a0383166000908152600160209081526040808320338452909152812054610686908363ffffffff61072d16565b600160a060020a03851660009081526001602090815260408083203384529091529020556106b5848484610783565b600160a060020a0384166000818152600160209081526040808320338085529083529281902054815190815290519293927f8c5be1e5ebec7d5bd14f71427d1e84f3dd0314c0f7b2291e5b200ac8c7c3b925929181900390910190a35060019392505050565b60008282018381101561040f57600080fd5b60008282111561073c57600080fd5b50900390565b600061074f338484610783565b50600192915050565b600160a060020a03918216600090815260016020908152604080832093909416825291909152205490565b600160a060020a038216151561079857600080fd5b600160a060020a0383166000908152602081905260409020546107c1908263ffffffff61072d16565b600160a060020a0380851660009081526020819052604080822093909355908416815220546107f6908263ffffffff61071b16565b600160a060020a038084166000818152602081815260409182902094909455805185815290519193928716927fddf252ad1be2c89b69c2b068fc378daa952ba7f163c4a11628f55a4df523b3ef92918290030190a350505056fea165627a7a72305820d3c502082b63393e7bd402441c106c58be912e27a997fcc1955036bc208e69920029",
  "source": "pragma solidity ^0.5.0;\nimport \"openzeppelin-solidity/contracts/token/ERC20/ERC20.sol\";\nimport \"openzeppelin-solidity/contracts/token/ERC20/ERC20Detailed.sol\";\n\n/**\n * @title Enigma Token\n * @dev ERC20 Enigma Token (ENG)\n *\n * ENG Tokens are divisible by 1e8 (100,000,000) base\n * units referred to as 'Grains'.\n *\n * ENG are displayed using 8 decimal places of precision.\n *\n * 1 ENG is equivalent to:\n *   100000000 == 1 * 10**8 == 1e8 == One Hundred Million Grains\n *\n * 150 million ENG (total supply) is equivalent to:\n *   15000000000000000 == 150000000 * 10**8 == 1e17\n *\n * All initial ENG Grains are assigned to the creator of\n * this contract.\n *\n */\ncontract EnigmaToken is ERC20, ERC20Detailed {\n\n    uint256 public constant INITIAL_SUPPLY = 150000000 * 10**8;  // 150 million ENG specified in Grains\n\n    /**\n    * @dev EnigmaToken Constructor\n    * Runs only on initial contract creation.\n    */\n    constructor() public ERC20Detailed(\"Enigma\", \"ENG\", 8) {\n        _mint(msg.sender, INITIAL_SUPPLY);\n    }\n\n    /**\n    * @dev Transfer token for a specified address when not paused\n    * @param _to The address to transfer to.\n    * @param _value The amount to be transferred.\n    */\n    function transfer(address _to, uint256 _value) public returns (bool) {\n        return super.transfer(_to, _value);\n    }\n\n    /**\n    * @dev Transfer tokens from one address to another when not paused\n    * @param _from address The address which you want to send tokens from\n    * @param _to address The address which you want to transfer to\n    * @param _value uint256 the amount of tokens to be transferred\n    */\n    function transferFrom(address _from, address _to, uint256 _value) public returns (bool) {\n        return super.transferFrom(_from, _to, _value);\n    }\n\n    /**\n    * @dev Approve the passed address to spend the specified amount of tokens on behalf of msg.sender when not paused.\n    * @param _spender The address which will spend the funds.\n    * @param _value The amount of tokens to be spent.\n    */\n    function approve(address _spender, uint256 _value) public returns (bool) {\n        return super.approve(_spender, _value);\n    }\n\n    function allowance(address _owner, address _spender) public view returns (uint256) {\n        return super.allowance(_owner,_spender);\n    }\n\n}",
  "sourcePath": "/home/fredfortier/Code/Enigma/discovery/enigma-contract-internal/contracts/EnigmaToken.sol",
  "compiler": {
    "name": "solc",
    "version": "0.5.0+commit.1d4f565a.Emscripten.clang"
  },
  "schemaVersion": "3.0.1",
  "updatedAt": "2019-02-17T02:48:09.718Z",
  "devdoc": {
    "details": "ERC20 Enigma Token (ENG) * ENG Tokens are divisible by 1e8 (100,000,000) base units referred to as 'Grains'. * ENG are displayed using 8 decimal places of precision. * 1 ENG is equivalent to:  100000000 == 1 * 10**8 == 1e8 == One Hundred Million Grains * 150 million ENG (total supply) is equivalent to:  15000000000000000 == 150000000 * 10**8 == 1e17 * All initial ENG Grains are assigned to the creator of this contract. ",
    "methods": {
      "approve(address,uint256)": {
        "details": "Approve the passed address to spend the specified amount of tokens on behalf of msg.sender when not paused.",
        "params": {
          "_spender": "The address which will spend the funds.",
          "_value": "The amount of tokens to be spent."
        }
      },
      "balanceOf(address)": {
        "details": "Gets the balance of the specified address.",
        "params": {
          "owner": "The address to query the balance of."
        },
        "return": "An uint256 representing the amount owned by the passed address."
      },
      "constructor": {
        "details": "EnigmaToken Constructor Runs only on initial contract creation."
      },
      "decimals()": {
        "return": "the number of decimals of the token."
      },
      "decreaseAllowance(address,uint256)": {
        "details": "Decrease the amount of tokens that an owner allowed to a spender. approve should be called when allowed_[_spender] == 0. To decrement allowed value is better to use this function to avoid 2 calls (and wait until the first transaction is mined) From MonolithDAO Token.sol Emits an Approval event.",
        "params": {
          "spender": "The address which will spend the funds.",
          "subtractedValue": "The amount of tokens to decrease the allowance by."
        }
      },
      "increaseAllowance(address,uint256)": {
        "details": "Increase the amount of tokens that an owner allowed to a spender. approve should be called when allowed_[_spender] == 0. To increment allowed value is better to use this function to avoid 2 calls (and wait until the first transaction is mined) From MonolithDAO Token.sol Emits an Approval event.",
        "params": {
          "addedValue": "The amount of tokens to increase the allowance by.",
          "spender": "The address which will spend the funds."
        }
      },
      "name()": {
        "return": "the name of the token."
      },
      "symbol()": {
        "return": "the symbol of the token."
      },
      "totalSupply()": {
        "details": "Total number of tokens in existence"
      },
      "transfer(address,uint256)": {
        "details": "Transfer token for a specified address when not paused",
        "params": {
          "_to": "The address to transfer to.",
          "_value": "The amount to be transferred."
        }
      },
      "transferFrom(address,address,uint256)": {
        "details": "Transfer tokens from one address to another when not paused",
        "params": {
          "_from": "address The address which you want to send tokens from",
          "_to": "address The address which you want to transfer to",
          "_value": "uint256 the amount of tokens to be transferred"
        }
      }
    },
    "title": "Enigma Token"
  },
  "userdoc": {
    "methods": {}
  }
}